:020000040800F2
:1000000010040020A5010008130D0008A10C000831
:10001000110D000811020008550E00080000000034
:10002000000000000000000000000000950D000826
:100030001302000800000000150D0008970D0008CD
:10004000BF010008BF010008BF010008BF01000890
:10005000BF010008BF010008BF010008BF01000880
:10006000BF010008BF010008BF010008BF01000870
:10007000BF010008BF010008BF010008BF01000860
:10008000BF010008BF010008BF010008BF01000850
:10009000BF010008BF010008BF010008BF01000840
:1000A000BF010008BF010008BF010008BF01000830
:1000B000BF0100080000000000000000BF010008B0
:1000C000BF0100080000000000000000BF010008A0
:1000D00000000000BF010008BF0100080000000090
:1000E000BF010008BF010008000000000000000080
:1000F0000000000000000000000000000000000000
:10010000000000000000000000000000BF01000827
:100110000000000000000000BF010008BF0100084F
:10012000BF010008BF010008BF010008BF010008AF
:10013000BF010008000000000000000000000000F7
:10014000BF010008BF010008BF010008BF0100088F
:10015000BF010008BF010008BF010008BF0100087F
:10016000BF010008BF010008BF0100080000000037
:10017000BF010008BF0100080000000000000000EF
:10018000BF010008BF010008BF010008DFF810D060
:1001900000F02CF800480047950E0008AFF30080EF
:1001A000100400200648804706480047FEE7FEE7A7
:1001B000FEE7FEE7FEE7FEE7FEE7FEE7FEE7FEE717
:1001C000110E00088D010008D2B201E000F8012BE9
:1001D000491EFBD270470022F6E710B513460A46C7
:1001E00004461946FFF7F0FF204610BD064C074DA8
:1001F00006E0E06840F0010394E8070098471034F7
:10020000AC42F6D3FFF7C6FFE40E0008040F000867
:10021000FEE770472DE9FC4FDFF880A100230125A0
:100220000AF1040B03244FF00F0C0BF1040EAEE0A7
:1002300005FA03F632406FD04F68012F05D0022F28
:1002400003D0112F01D0122F17D1D0F808905F00E2
:1002500004FA07F829EA08090097D1F80C8008FA8F
:1002600007F848EA0908C0F808804768B7430E79DC
:10027000C6F300169E403E434660C6684FEA4308F8
:1002800004FA08F7BE4301978F6807FA08F7374367
:10029000C7604E68022E01D0122E13D1DE0800EB8B
:1002A00086060096366A5F07FF0E0CFA07F926EA03
:1002B0000906D1F8109009FA07F949EA0609009EE3
:1002C000C6F820900768019EB7430E7906F0030632
:1002D00006FA08F63E4306604E68F60056D5304EE4
:1002E000376E47F001073766366E23F0030706F0D6
:1002F000010600962B4E3E44B146B6689F074FEA72
:1003000017780CFA08F7BE43B0F1904F05D0264F8E
:10031000B84204D1012708E038E0002705E0234F68
:10032000B84201D1022700E0072707FA08F7374350
:10033000C9F80870DAF800605746D1F8048096438F
:100340005FEAC83800D516433E60DBF800605F46C0
:10035000D1F8048096435FEA883800D516433E60A2
:10036000DEF800607746D1F8048096435FEAC8283B
:1003700000D516433E60094F0C373E68D1F8048023
:1003800096435FEA882800D516433E605B1C0A68E6
:1003900032FA03F67FF44CAF00F00AB800040140D3
:1003A000001002400000014000040048000800481E
:1003B0001CBCBDE8E08F0AB1816170478162704763
:1003C00001488068704700000000002002488168F2
:1003D00002781144816070470000002010B50024AD
:1003E000032000F063F8002000F008F808B10124B1
:1003F00001E000F025F8204610BD000070B50E4E5B
:1004000005460024307898B14FF47A71B1FBF0F0D2
:100410000A490968B1FBF0F000F02EFC40B9102D3C
:1004200006D200222946501E00F020F8756000E038
:100430000124204670BD0000000000200C000020B8
:10044000094808B5016E41F001010166016E01F035
:1004500001010091816D41F080518165806D00F056
:100460008050009008BD000000100240F0B40E4B18
:100470001B680C46C3F30223C3F10705042D00D902
:100480000425191D072901D2002300E0DB1E0126E7
:1004900006FA05F1491E214099409E40761E1640FD
:1004A0003143F0BC00F0D7BC0CED00E0064900F091
:1004B000070208684FF6FF03184040EA0220034A8B
:1004C00010430860704700000CED00E00000FA05E2
:1004D0001649B0F5007F0868C0F3412009D0022812
:1004E00005D0086820F4C06040F4806008600020F7
:1004F00070470128FBD0086820F4C06040F4007009
:1005000008600B483222006850430A4AB0FBF2F000
:10051000401C00E0401E4A69520501D50028F9D16F
:1005200048694005E3D50320704700000070004093
:100530000C00002040420F000248006800F4C06038
:1005400070470000007000402DE9F0470F4605009D
:1005500058D0404E306800F00700B84209D23068E9
:1005600020F0070038433060306800F00700B842E0
:1005700048D12878384CC0072CD06868032811D09F
:10058000022812D0216898B1490500293ADAA168F9
:1005900021F003010143A160FFF712FF804641F201
:1005A000883910E021688901EFE721688903ECE7C9
:1005B0008907EAE7FFF704FFA0EB0801494502D9E4
:1005C0000320BDE8F087A068696800F00C00B0EB7C
:1005D000810FEFD12878800705D5A068A96820F0A1
:1005E000F0000843A060306800F00700B8420BD963
:1005F000306820F0070038433060306800F00700B2
:10060000B84201D00120DCE72878400705D5A06872
:10061000E96820F4E0600843A0602878000706D568
:10062000A068296920F4605040EAC100A06000F091
:100630001BF8A168094AC1F30311515C01F01F01C5
:10064000C8400749086007480068BDE8F047FFF761
:10065000D5BE00000020024000100240A40E000899
:100660000C0000200400002070B525490023184626
:100670008A68CC6812F00C0204F00306214C4FEAA1
:10068000640509D00C2A05D0042A32D0082A00D1EA
:10069000284670BD012E10D10B681B0704D4D1F879
:1006A0009430C3F3032302E00B68C3F30313164E25
:1006B00056F82330DAB10C2AEBD1C86800F00300F9
:1006C000022818D0032818D01846CA68CB68C2F38D
:1006D0000212C3F306234343521CB3FBF2F2C86871
:1006E000C0F34160401C4000B2FBF0F070BD184602
:1006F00070BD204670BD2046E7E72846E5E70000CC
:10070000001002400024F400B40E00082DE9F84364
:1007100004006FD0FE4DA86800F00C06E86800F0F9
:1007200003072078C00664D576B10C2E01D1012FC5
:100730000AD0A069002828687AD040F0010028601B
:10074000FFF73EFE80465DE02868800702D5A0697D
:100750000028DED0216A2868000703D5286800F049
:10076000F00004E0D5F89400F02202EA1010814273
:1007700016D9084600F0D0FA00283BD1286840F08E
:10078000080028602868216A20F0F00008432860EB
:100790006868E16920F47F4040EA0120686016E063
:1007A000286840F0080028602868216A20F0F000DE
:1007B000084328606868E16920F47F4040EA01202E
:1007C000686026B9206A00F0A7FA0028D5D1FFF7A3
:1007D0004BFFA968CF4AC1F30311515C01F01F011F
:1007E000C840CD490860CD480068FFF707FE0028E3
:1007F0007ED12EE0CAE000BFFFF7E2FDA0EB0800CB
:10080000022876D828688007F6D5286840F00800C6
:1008100028602868216A20F0F00008432860686892
:10082000E16920F47F4040EA0120686011E0FFE7C1
:1008300020F001002860FFF7C3FD804606E000BFFE
:10084000FFF7BEFDA0EB08000228DAD82868800771
:10085000F6D42078C00740D0082E18D00C2E01D135
:10086000032F14D06068B0F5803F17D0B0F5A02FEB
:10087000286817D020F480302860286820F4802071
:1008800028606068E0B1FFF79BFD804614E02868AF
:10089000800322D56068002878D01EE0286840F4E4
:1008A0008030EDE740F480202860F7E7FFF788FD0F
:1008B000A0EB08006428A4D828688003F6D50CE0D3
:1008C000FFF77EFD804605E0FFF77AFDA0EB08000C
:1008D000642896D828688003F6D4207880073BD512
:1008E000042E11D00C2E01D1022F0DD0E06801E0B2
:1008F000B6E1FFE0002828681ED040F48070286030
:10090000FFF75EFD07460CE0286840050CD5E0685F
:100910000028C1D008E000BFFFF752FDC01B02282D
:1009200093D828684005F7D56868217C20F0FE4000
:1009300040EA016068600FE020F480702860FFF7F3
:100940003FFD074605E000BFFFF73AFDC01B022848
:10095000B1D828684005F7D42078000729D5606908
:100960000028D5F8940012D040F00100C5F894009A
:10097000FFF726FD074604E0FFF722FDC01B022813
:1009800099D8D5F894008007F6D512E02BE120F035
:100990000100C5F89400FFF713FD074605E000BF0E
:1009A000FFF70EFDC01B022885D8D5F894008007FC
:1009B000F6D42078400766D5A86D0027C00008D47B
:1009C000A86D40F08050A865A86D012700F0805008
:1009D000009053480168C90512D40168814641F46A
:1009E00080710160FFF7ECFC804605E0FFF7E8FC52
:1009F000A0EB080002287DD8D9F80000C005F5D585
:100A0000A068012816D00528D5F8900017D020F04E
:100A10000100C5F89000D5F8900020F0040000BF58
:100A2000C5F89000A06841F28839C0B1FFF7C8FC52
:100A300080460FE0D5F8900040F00100F0E740F06C
:100A40000400C5F89000F5E7FFF7BAFCA0EB080139
:100A500049454FD8D5F890008007F5D50EE0FFF74F
:100A6000AFFC804606E000BFFFF7AAFCA0EB080140
:100A700049453FD8D5F890008007F5D41FB1A86D3F
:100A800020F08050A8652078800628D5606A00286C
:100A9000D5F8980012D040F00100C5F89800FFF793
:100AA0008FFC074605E000BFFFF78AFCC01B022849
:100AB00020D8D5F898008007F6D510E020F0010086
:100AC000C5F89800FFF77CFC074604E0FFF778FCC8
:100AD000C01B02280ED8D5F898008007F6D4A06A6B
:100AE000A8B1022824D00C2E7DD0286820F0807078
:100AF000286000E0B3E02868000103D4E86820F033
:100B00000300E860E86807490840E8600CE09FE0FF
:100B100000100240A40E00080C0000200400002079
:100B200000700040FFFFEEFEFFF74AFC044699E02C
:100B3000E868E26A00F00301914226D1216B00F0DF
:100B400070020901103991421FD1626B00F4FE411D
:100B5000B1EB022F19D194F8382000F07841B1EBB5
:100B6000C26F12D1A18F00F4C00249084905A1F556
:100B70000011914209D194F8401000F0C06049087A
:100B80004906A1F1007181424BD00C2E6FD028682C
:100B900040016CD4286820F080702860FFF710FCBA
:100BA000064604E0FFF70CFC801B022857D8286893
:100BB0008001F7D4F4E90B016FF00F0202EB011191
:100BC0000843218A5204490802EB4151A26841EAD4
:100BD00002210843217D4FF07E42490802EB41612A
:100BE0000843217B00E042E040EAC160E968214A15
:100BF00011400843E860286840F080702860E86889
:100C000040F08070E860FFF7DBFB044605E000BFC2
:100C1000FFF7D6FB001B022821D828688001F7D5F2
:100C200023E02868800120D4286840F08070286084
:100C3000E86840F08070E860FFF7C2FB044604E01B
:100C4000FFF7BEFB001B022809D828688001F7D5F2
:100C50000BE000BFFFF7B4FB001B022802D9032002
:100C6000BDE8F88328688001F4D40020F8E701206B
:100C7000F6E700008C809D0110B5401EB0F1807F2A
:100C800001D3012010BD4FF0E02460610F216017F7
:100C900000F0E1F80020A06107202061002010BDD5
:100CA000FEE7000010B586B014216846FFF793FAFE
:100CB0001548C16C41F00401C164C16C01F004012C
:100CC0000591C16C41F00101C164C16C01F00101E9
:100CD0000591C16C41F00201C164C06C0B4C00F085
:100CE00002000590002208212046FFF764FB08203F
:100CF000009001200021CDE90101039169462046C1
:100D0000FFF788FA06B010BD00100240000400484A
:100D1000FEE7FEE770470000F8B51C4D06460024CC
:100D2000A86DC00002D5FFF707FC0DE0A86D40F0EC
:100D30008050A865A86D00F080500090FFF7FCFB84
:100D4000A96D21F08051A965B0F5007F04D0802EF7
:100D500007D94FF003040AE0802E08D9A02E01D84D
:100D600004E001D1022402E0702E00D101240848E1
:100D7000016821F0070121430160006800F00700CD
:100D8000A04201D00120F8BD0020F8BD00100240B3
:100D9000002002407047FFF719BB00B597B044210F
:100DA0006846FFF718FA142111A8FFF714FA022079
:100DB000C10103914021009004910BAB0A900421E2
:100DC000502283E8070007220E92CDE90F01684602
:100DD000FFF79CFC08B172B6FEE70F2011900320CC
:100DE000129000204FF48061CDE913011590042189
:100DF00011A8FFF7A9FB08B172B6FEE74FF4007027
:100E0000FFF766FB002801D072B6FEE717B000BD01
:100E10000D48016841F4700101600C48016841F01F
:100E200001010160002181600268094B1A400260E3
:100E30008214C260026822F4802202608161024949
:100E4000C00380390860704788ED00E00010024060
:100E5000FFFFF6EAFEE70907090E002804DB00F1B0
:100E6000E02080F80014704700F00F0000F1E0204F
:100E700080F8141D704702E008C8121F08C1002A3C
:100E8000FAD170477047002001E001C1121F002A0B
:100E9000FBD17047FFF7A2FAFFF77FFFFFF702FFD2
:100EA000FEE7000000000000000000000102030453
:100EB00006070809A0860100400D0300801A0600FD
:100EC00000350C0040420F0080841E0000093D00E8
:100ED00000127A000024F40000366E010048E80198
:100EE000006CDC02040F000800000020100000006D
:100EF000760E0008140F0008100000200004000007
:100F0000860E000801000000100000000000000034
:040F100000093D0097
:040000050800018D61
:00000001FF
