:020000040800F2
:1000000058050020A50100089F1B0008671A00087A
:100010009D1B0008B9020008292400080000000008
:10002000000000000000000000000000BD1F0008EC
:10003000BB02000800000000A11B0008BF1F000851
:10004000BF010008BF010008BF010008BF01000890
:10005000BF010008BF010008BF010008BF01000880
:10006000BF010008BF010008BF010008BF01000870
:10007000BF010008BF010008BF010008BF01000860
:10008000BF010008BF010008BF010008BF01000850
:10009000BF010008BF010008BF010008BF01000840
:1000A000BF010008BF010008BF010008BF01000830
:1000B000BF0100080000000000000000BF010008B0
:1000C000BF01000800000000000000004D1D0008F6
:1000D00000000000BF010008BF0100080000000090
:1000E000BF010008BF010008000000000000000080
:1000F0000000000000000000000000000000000000
:10010000000000000000000000000000591D000871
:100110000000000000000000BF010008BF0100084F
:10012000BF010008BF010008BF010008BF010008AF
:10013000BF010008000000000000000000000000F7
:10014000BF010008BF010008BF010008BF0100088F
:10015000BF010008BF010008BF010008BF0100087F
:10016000BF010008BF010008BF0100080000000037
:10017000BF010008BF0100080000000000000000EF
:10018000BF010008BF010008BF010008DFF810D060
:1001900000F080F80048004769240008AFF30080B1
:1001A000580500200648804706480047FEE7FEE75E
:1001B000FEE7FEE7FEE7FEE7FEE7FEE7FEE7FEE717
:1001C0003D2000088D0100082DE9F05F0546002064
:1001D00092469B4688460646814640241BE02846B8
:1001E00041464746224600F044F853465A46C01A54
:1001F000914110D311461846224600F02BF82D1AD3
:1002000067EB01084F4622460120002100F022F84A
:1002100017EB00094E41201EA4F10104DFDC484623
:1002200031462A46434600F000B830BCBDE8C09FC6
:10023000D2B201E000F8012B491EFBD27047002228
:10024000F6E710B513460A4604461946FFF7F0FFD5
:10025000204610BD202A04DB203A00FA02F10020DB
:1002600070479140C2F1200320FA03F319439040F4
:100270007047202A04DB203A21FA02F0002170475F
:1002800021FA02F3D040C2F12002914008431946FE
:1002900070470000064C074D06E0E06840F001039F
:1002A00094E8070098471034AC42F6D3FFF772FF8A
:1002B0007C2500089C250008FEE7704710B590F8E3
:1002C00025100024022903D00421C16301241AE06F
:1002D00001680A6822F00E020A6001680A6822F0CA
:1002E00001020A6090F84410036C01F01C02012125
:1002F00001FA02F25A6080F82510002180F82410DB
:10030000816B01B18847204610BD000070B50446DE
:1003100000F0ECF80546601C02D004480078044464
:1003200000F0E4F8401BA042FAD370BD00000020AA
:100330002DE9FC4FDFF880A1002301250AF1040B11
:1003400003244FF00F0C0BF1040EAEE005FA03F698
:1003500032406FD04F68012F05D0022F03D0112FEC
:1003600001D0122F17D1D0F808905F0004FA07F8D7
:1003700029EA08090097D1F80C8008FA07F848EA3A
:100380000908C0F808804768B7430E79C6F300161D
:100390009E403E434660C6684FEA430804FA08F7A9
:1003A000BE4301978F6807FA08F73743C7604E6866
:1003B000022E01D0122E13D1DE0800EB8606009625
:1003C000366A5F07FF0E0CFA07F926EA0906D1F82C
:1003D000109009FA07F949EA0609009EC6F820902C
:1003E0000768019EB7430E7906F0030606FA08F681
:1003F0003E4306604E68F60056D5304E376E47F0E5
:1004000001073766366E23F0030706F001060096F3
:100410002B4E3E44B146B6689F074FEA17780CFA58
:1004200008F7BE43B0F1904F05D0264FB84204D133
:10043000012708E038E0002705E0234FB84201D14A
:10044000022700E0072707FA08F73743C9F80870C2
:10045000DAF800605746D1F8048096435FEAC8385E
:1004600000D516433E60DBF800605F46D1F804809B
:1004700096435FEA883800D516433E60DEF8006098
:100480007746D1F8048096435FEAC82800D5164322
:100490003E60094F0C373E68D1F8048096435FEA0E
:1004A000882800D516433E605B1C0A6832FA03F6C2
:1004B0007FF44CAF00F00AB8000401400010024085
:1004C0000000014000040048000800481CBCBDE8D2
:1004D000E08F426921EA02030A4043EA0241816156
:1004E00070470AB181617047816270470148806836
:1004F0007047000000000020024881680278114423
:10050000816070470000002010B50024032000F037
:1005100071F8002000F008F808B1012401E000F0B3
:1005200025F8204610BD000070B50E4E054600248B
:10053000307898B14FF47A71B1FBF0F00A4909684C
:10054000B1FBF0F001F0BAF940B9102D06D200224B
:100550002946501E00F02EF8756000E00124204668
:1005600070BD0000000000200C000020094808B504
:10057000016E41F001010166016E01F0010100917F
:10058000816D41F080518165806D00F08050009058
:1005900008BD000000100240002809DB00F01F0227
:1005A000012191404009800000F1E020C0F80011D5
:1005B00070470000F0B40E4B1B680C46C3F30223D7
:1005C000C3F10705042D00D90425191D072901D2FF
:1005D000002300E0DB1E012606FA05F1491E21403A
:1005E00099409E40761E16403143F0BC01F01DBF7D
:1005F0000CED00E0064900F0070208684FF6FF0323
:10060000184040EA0220034A104308607047000087
:100610000CED00E00000FA051649B0F5007F08680F
:10062000C0F3412009D0022805D0086820F4C0603A
:1006300040F480600860002070470128FBD0086803
:1006400020F4C06040F4007008600B48322200685B
:1006500050430A4AB0FBF2F0401C00E0401E4A69D9
:10066000520501D50028F9D148694005E3D503209A
:1006700070470000007000400C00002040420F0056
:100680000248006800F4C06070470000007000403D
:100690002DE9F84F0446002700889C4D3E46000592
:1006A00015D5E06B60B1B0F5000F04D0B0F5400F88
:1006B0002BD001270AE0E86840F48030E86024E0AD
:1006C0000021201D01F06EFA07001ED03E46206872
:1006D000800338D5A86D4FF00008C00009D4A86D7C
:1006E00040F08050A865A86D4FF0010800F08050E0
:1006F0000090DFF81CA2DAF8001041F48071CAF80B
:100700000010FFF7F3FE814610E0D5F88800E16B9A
:1007100020F440000843C5F88800D8E7FFF7E6FE5C
:10072000A0EB0900022801D9032704E0DAF8000051
:10073000C005F3D5EFB33E46B8F1000F03D0A86D66
:1007400020F08050A8652078C00707D0D5F8880031
:10075000216A20F003000843C5F88800207880074C
:1007600007D5D5F88800616A20F00C000843C5F869
:1007700088002078800607D5D5F88800A16A20F483
:1007800040600843C5F888002088800507D5D5F863
:100790008800616B20F440200843C5F88800208859
:1007A000400509D5D5F88800A16B20F44010084316
:1007B00000E02EE0C5F888002078400607D5D5F87F
:1007C0008800E16A20F440500843C5F8880020887A
:1007D000C00507D5D5F88800216B20F440300843C8
:1007E000C5F8880020884FF0006780044FF08068CB
:1007F0004ED5D5F88800216C20F040600843C5F83C
:100800008800206CB8423BD1E86840F48010E86072
:100810003EE0D5F8900010F4407014D0216D814274
:1008200011D0D5F89000D5F8901020F4407041F424
:100830008031C5F89010D5F8901021F48031C5F8BA
:100840009010C5F89000C00711D0FFF74FFE074683
:1008500041F2883907E000BFFFF748FEC11B494558
:1008600001D9032668E7D5F890008007F4D5D5F8BC
:100870009000216D20F440700843C5F890005BE7BC
:10088000404505D10121201D01F08CF900B106463B
:100890002068400317D5D5F88800616C20F04060CF
:1008A0000843C5F88800606CB84204D1E86840F499
:1008B0008010E86007E0404505D10121201D01F0CE
:1008C00071F900B106462088400411D5D5F888009A
:1008D000A16C20F040500843C5F88800A06CB0F12E
:1008E000805F05D10221201D01F05CF900B10646B0
:1008F0002088000406D555F8880FE16C20F0804070
:1009000008432860304600F005B80000001002409F
:100910000070004018BCBDE8E08F00002DE9F047F2
:100920000F46050058D0404E306800F00700B8422E
:1009300009D2306820F0070038433060306800F09A
:100940000700B84248D12878384CC0072CD06868D6
:10095000032811D0022812D0216898B14905002936
:100960003ADAA16821F003010143A160FFF7BEFD5F
:10097000804641F2883910E021688901EFE721685B
:100980008903ECE78907EAE7FFF7B0FDA0EB080170
:10099000494502D90320BDE8F087A068696800F0E6
:1009A0000C00B0EB810FEFD12878800705D5A06847
:1009B000A96820F0F0000843A060306800F007004C
:1009C000B8420BD9306820F00700384330603068F7
:1009D00000F00700B84201D00120DCE7287840078A
:1009E00005D5A068E96820F4E0600843A060287895
:1009F000000706D5A068296920F4605040EAC100CC
:100A0000A06000F03FF8A168094AC1F30311515CEE
:100A100001F01F01C8400749086007480068BDE8A9
:100A2000F047FFF781BD00000020024000100240A7
:100A3000342500080C000020040000200548064969
:100A400000688968054AC1F30221515C01F01F0169
:100A5000C84070470C0000200010024074250008B8
:100A60000548064900688968054AC1F3C221515CFE
:100A700001F01F01C84070470C0000200010024028
:100A80007425000870B52549002318468A68CC688B
:100A900012F00C0204F00306214C4FEA640509D061
:100AA0000C2A05D0042A32D0082A00D1284670BD6D
:100AB000012E10D10B681B0704D4D1F89430C3F376
:100AC000032302E00B68C3F30313164E56F82330DA
:100AD000DAB10C2AEBD1C86800F00300022818D064
:100AE000032818D01846CA68CB68C2F30212C3F3B1
:100AF00006234343521CB3FBF2F2C868C0F34160C3
:100B0000401C4000B2FBF0F070BD184670BD20469E
:100B100070BD2046E7E72846E5E7000000100240E8
:100B20000024F400442500082DE9F84304006FD0A8
:100B3000FE4DA86800F00C06E86800F00307207876
:100B4000C00664D576B10C2E01D1012F0AD0A06960
:100B5000002828687AD040F001002860FFF7C6FC22
:100B600080465DE02868800702D5A0690028DED0B5
:100B7000216A2868000703D5286800F0F00004E027
:100B8000D5F89400F02202EA1010814216D90846E6
:100B900001F09EF800283BD1286840F0080028604A
:100BA0002868216A20F0F000084328606868E1693D
:100BB00020F47F4040EA0120686016E0286840F099
:100BC000080028602868216A20F0F00008432860A7
:100BD0006868E16920F47F4040EA0120686026B936
:100BE000206A01F075F80028D5D1FFF74BFFA968FE
:100BF000CF4AC1F30311515C01F01F01C840CD4938
:100C00000860CD480068FFF78FFC00287ED12EE0F9
:100C1000CAE000BFFFF76AFCA0EB0800022876D804
:100C200028688007F6D5286840F008002860286802
:100C3000216A20F0F000084328606868E16920F428
:100C40007F4040EA0120686011E0FFE720F00100EA
:100C50002860FFF74BFC804606E000BFFFF746FC2C
:100C6000A0EB08000228DAD828688007F6D420789C
:100C7000C00740D0082E18D00C2E01D1032F14D05D
:100C80006068B0F5803F17D0B0F5A02F286817D066
:100C900020F480302860286820F480202860606874
:100CA000E0B1FFF723FC804614E02868800322D5DA
:100CB0006068002878D01EE0286840F48030EDE7B6
:100CC00040F480202860F7E7FFF710FCA0EB080055
:100CD0006428A4D828688003F6D50CE0FFF706FC4A
:100CE000804605E0FFF702FCA0EB0800642896D8D8
:100CF00028688003F6D4207880073BD5042E11D0D5
:100D00000C2E01D1022F0DD0E06801E0B6E1FFE02A
:100D1000002828681ED040F480702860FFF7E6FBAA
:100D200007460CE0286840050CD5E0680028C1D0D3
:100D300008E000BFFFF7DAFBC01B022893D8286841
:100D40004005F7D56868217C20F0FE4040EA01604C
:100D500068600FE020F480702860FFF7C7FB07464B
:100D600005E000BFFFF7C2FBC01B0228B1D828680E
:100D70004005F7D42078000729D560690028D5F808
:100D8000940012D040F00100C5F89400FFF7AEFBCC
:100D9000074604E0FFF7AAFBC01B022899D8D5F844
:100DA00094008007F6D512E02BE120F00100C5F891
:100DB0009400FFF79BFB074605E000BFFFF796FB9B
:100DC000C01B022885D8D5F894008007F6D4207877
:100DD000400766D5A86D0027C00008D4A86D40F074
:100DE0008050A865A86D012700F0805000905348FE
:100DF0000168C90512D40168814641F4807101601F
:100E0000FFF774FB804605E0FFF770FBA0EB0800DE
:100E100002287DD8D9F80000C005F5D5A0680128C2
:100E200016D00528D5F8900017D020F00100C5F89D
:100E30009000D5F8900020F0040000BFC5F89000A5
:100E4000A06841F28839C0B1FFF750FB80460FE03F
:100E5000D5F8900040F00100F0E740F00400C5F83C
:100E60009000F5E7FFF742FBA0EB080149454FD89A
:100E7000D5F890008007F5D50EE0FFF737FB8046E8
:100E800006E000BFFFF732FBA0EB080149453FD861
:100E9000D5F890008007F5D41FB1A86D20F08050E0
:100EA000A8652078800628D5606A0028D5F89800C3
:100EB00012D040F00100C5F89800FFF717FB074675
:100EC00005E000BFFFF712FBC01B022820D8D5F8B1
:100ED00098008007F6D510E020F00100C5F89800D2
:100EE000FFF704FB074604E0FFF700FBC01B0228E6
:100EF0000ED8D5F898008007F6D4A06AA8B10228C9
:100F000024D00C2E7DD0286820F08070286000E06E
:100F1000B3E02868000103D4E86820F00300E8602B
:100F2000E86807490840E8600CE09FE000100240D4
:100F3000342500080C000020040000200070004050
:100F4000FFFFEEFEFFF7D2FA044699E0E868E26A96
:100F500000F00301914226D1216B00F070020901DB
:100F6000103991421FD1626B00F4FE41B1EB022FA8
:100F700019D194F8382000F07841B1EBC26F12D14A
:100F8000A18F00F4C00249084905A1F50011914262
:100F900009D194F8401000F0C06049084906A1F159
:100FA000007181424BD00C2E6FD0286840016CD468
:100FB000286820F080702860FFF798FA064604E061
:100FC000FFF794FA801B022857D828688001F7D4CD
:100FD000F4E90B016FF00F0202EB01110843218AC3
:100FE0005204490802EB4151A26841EA0221084338
:100FF000217D4FF07E42490802EB41610843217B8D
:1010000000E042E040EAC160E968214A114008433B
:10101000E860286840F080702860E86840F08070E0
:10102000E860FFF763FA044605E000BFFFF75EFAE9
:10103000001B022821D828688001F7D523E0286802
:10104000800120D4286840F080702860E86840F073
:101050008070E860FFF74AFA044604E0FFF746FABA
:10106000001B022809D828688001F7D50BE000BFD3
:10107000FFF73CFA001B022802D90320BDE8F883E1
:1010800028688001F4D40020F8E70120F6E700008A
:101090008C809D017047000038B5016804464A689D
:1010A0008868C043430606D5C30704D1D3435B0613
:1010B00001D4E16C05E0830708D4D3431B0605D4B3
:1010C000216D01B02046BDE830400847830603D5B6
:1010D000430601D5C30551D4D3439B064ED44306E2
:1010E0000AD494F85D30032B49D0236E43F00403F7
:1010F0002366CB688B680093830609D4236E43F084
:10110000010323668B6800930B6823F040030B6098
:10111000C00506D4206E40F0080020662068806874
:101120000090206E002829D02068416821F0E0015D
:101130004160012084F85D00900701D4D00722D0DF
:101140002068416821F003014160114DA06D40B15C
:101150008563A06DFFF7B2F818B1206E40F0400033
:101160002066606D002809D08563606DFFF7A6F8E2
:10117000002803D0206E40F04000206638BDC868CB
:101180008868009038BD2046FFF784FF38BD000016
:10119000651D000870B5040009D0606A002540B1E3
:1011A00025616561A56294F85D0040B10CE0012005
:1011B00070BD6068B0F5827FF4D0E561F2E784F835
:1011C0005C50204600F056F8022084F85D0020684C
:1011D000016821F040010160E1684FF4E062914252
:1011E00001D9002001E04FF48050B1F5706F02D0BA
:1011F000914200D0A562A188228901F4827102F493
:1012000004421143227C02F002021143227D02F0CB
:1012100001021143228B02F400721143227F02F07B
:101220003802114394F8202002F080021143228DED
:1012300002F40052114322681160A169042202EAFB
:10124000114194F8242000F4805002F01002114360
:1012500094F8342002F008021143A28902F470626B
:1012600011430143206841602566012084F85D0038
:10127000002070BD30B587B0044614216846FEF7E3
:10128000DEFF2468284D0021284802220323AC42B7
:1012900022D1046E44F480540466046E04F4805435
:1012A0000594C46C44F00104C464C06CCDE902131D
:1012B00000F001000590C220CDE900020520049055
:1012C00069464FF09040FFF733F800221146232083
:1012D000FFF770F9232023E0154DAC4222D1846D35
:1012E00044F400448465846D04F400440594C46CA3
:1012F00044F00204C464C06CCDE9021300F00200A3
:1013000005903820CDE9000206200490694609487E
:10131000FFF70EF8002211463320FFF74BF9332078
:10132000FFF73AF907B030BD00300140001002402D
:10133000003C0040000400482DE9F84F0446406896
:101340000025984616460F464FF0040BB0F5827FF5
:1013500001D1A06888B194F85C00012818D0012060
:1013600084F85C00FFF7C2F8814694F85D004FF006
:10137000000A01280ED0022599E084F85DB01346DA
:101380000A462046CDF8008000F064F900F098B8D5
:101390000220FBE7002F77D0002E75D084F85DB0D7
:1013A000C4F860A02764A4F84460A4F84660C4F8B8
:1013B00038A0A4F83CA0A4F83EA0C4F84CA0C4F8FF
:1013C00050A0E0684FF4E06188422068426802D98A
:1013D00022F4805201E042F480524260A068B0F5ED
:1013E000004F09D12068026822F0400202602068A4
:1013F000026822F48042026020680268520603D428
:10140000026842F040020260E06888421DD93FE075
:1014100020688168C9070BD0017B206C0170206CAB
:10142000401C2064B4F84600401EA4F846000CE0BE
:10143000FFF75CF8A0EB0901414503D3B8F1FF3F8A
:1014400003D03BE0B8F1000F38D0B4F846000028D4
:10145000DED121E020688168C9070BD0C068216C0B
:101460000880206C801C2064B4F84600401EA4F85C
:1014700046000DE0FFF73AF8A0EB0901414504D31F
:10148000B8F1FF3F04D019E010E0B8F1000F15D01B
:10149000B4F846000028DDD14A464146204600F017
:1014A0006AFC08B120202066206E00B101250120D1
:1014B00084F85D0084F85CA0284667E70325F6E71A
:1014C00018BCBDE8E08F2DE9F84F044690F85C00A9
:1014D00000271D461646894601280DD04FF0010B06
:1014E00084F85CB0FFF702F8804694F85D00BA46D5
:1014F000012804D00227A4E0022000F0A8B8B9F126
:10150000000F74D0002E72D0032084F85D00C4F860
:1015100060A0C4F83890A687E687C4F840A0A4F875
:1015200044A0A4F846A0C4F850A0C4F84CA0A068F9
:10153000B0F5004F09D12068016821F04001016039
:101540002068016841F48041016020680168490613
:1015500003D4016841F040010160E068B0F5E06F3C
:10156000606823D908B1012E1CD1A06B21680088C6
:10157000C86006E020688168890709D5A16B0988E1
:10158000C160A06B801CA063E08F401EE08709E073
:10159000FEF7ACFFA0EB0800A84202D3681C01D004
:1015A00046E0ADB3E08F0028E4D136E008B1012E6B
:1015B00030D1E08F0128A06B03D921680088C86072
:1015C0000FE021680078087314E0E08722E02068CB
:1015D0008168890714D5E18F0129A16B08D9098891
:1015E000C160A06B801CA063E08F801EEDE727E048
:1015F00009780173A06B401CA063E08F401EE4E7F4
:10160000FEF774FFA0EB0800A84202D3681C01D0CB
:101610000EE06DB1E08F0028D9D142462946204620
:1016200000F0E3FB08B120202066A06810B105E0BF
:10163000032706E02068C16880680090206E00B132
:10164000012784F85DB084F85CA0384655E718BCE3
:10165000BDE8E08F2DE9F05F044690F85C000027BC
:101660000A9E1D4692468B464FF0010901280ED076
:10167000012084F85C00FEF739FF804694F85D0095
:10168000616801280CD0B1F5827F07D102E0022009
:1016900000F011B9A16809B9042801D0022700E1BE
:1016A000BBF1000F24D0BAF1000F21D005B394F89C
:1016B0005D00042802D0052084F85D00002020662B
:1016C000C4F840A0A4F84650A4F84450C4F838B078
:1016D000E587A587E0642065E0684FF4E061884213
:1016E00001D8012D06D92068426822F4805205E015
:1016F0000127D6E02068426842F4805242602068A8
:101700000268520603D4026842F040020260E068B8
:101710008842606845D908B1012D3AD1A06B216893
:101720000088C860A06B801CA063E08F401EE0872B
:101730002FE02068816889070FD5E18F69B1B9F181
:10174000010F0AD1A16B0988C160A06B801CA06346
:10175000E08F401EE0874FF0000920688168C907CC
:101760000FD0B4F8461061B1C068216C0880206CBD
:10177000801C2064B4F84600401EA4F846004FF0D8
:101780000109FEF7B3FEA0EB0800B04201D3701CC4
:1017900075D1E08F0028CCD1B4F846000028C8D11C
:1017A00076E008B1012D6CD1E08F0128A06B08D93B
:1017B00021680088C860A06B801CA063E08F801E39
:1017C00007E0216800780873A06B401CA063E08FDD
:1017D000401EE08755E02068816889071AD5E18FAF
:1017E000C1B1B9F1010F15D1E18F0129A16B07D961
:1017F0000988C160A06B801CA063E08F801E06E09A
:1018000009780173A06B401CA063E08F401EE08745
:101810004FF0000920688168C90728D0B4F8461045
:1018200029B3B4F84610012914D9C068216C088086
:10183000206C801C2064B4F84600801EA4F846008A
:10184000B4F84600012810D82068416841F480515E
:1018500041600AE0007B216C0870206C401C206411
:10186000B4F84600401EA4F846004FF00109FEF708
:101870003DFEA0EB0800B04202D3701C01D018E07E
:10188000BEB1E08F0028A6D1B4F846000028A2D14E
:1018900042463146204600F0A8FA10B10127202028
:1018A0002066012084F85D00002084F85C00384642
:1018B000EEE60327F5E730BCBDE8C09F10B5401E3B
:1018C000B0F1807F01D3012010BD4FF0E0246061B2
:1018D0000F21601700F0A9FD0020A0610720206102
:1018E000002010BD10B5040002D0606F10B107E0F9
:1018F000012010BD002084F87000204600F026F87A
:10190000242060672068016821F001010160204601
:1019100000F046FC0128ECD0606A10B1204600F0CF
:10192000AFFB2068416821F49041416020688168E4
:1019300021F02A0181602068016841F00101016005
:101940002046BDE8104000F0FFBB000010B586B097
:10195000044614216846FEF772FC13492068884249
:1019600020D11248016E41F480410166016E01F4FC
:1019700080410591C16C41F00101C164C06C6946B0
:1019800000F0010005904FF4C0600090022001902B
:101990000020029003200390072004904FF0904015
:1019A000FEF7C6FC06B010BD003801400010024032
:1019B0002DE9F8430446406F1F4616460D46202881
:1019C0004FD1CDB1C6B194F87000012849D00120A3
:1019D00084F870004FF00008C4F87C802120606714
:1019E000FEF784FDA4F850608146A4F85260A06818
:1019F000B0F5805F03D004E00120BDE8F8832069E2
:101A000028B12E465FF0000584F8708010E00026B3
:101A1000FAE78021204600F0B5FCB8B9C6B116F847
:101A2000010B21680885B4F85200401EA4F852004A
:101A3000B4F852004B464FF0000200970028E8D15E
:101A40004FF04001204600F09DFC30B10320D4E768
:101A500035F8020BC0F30800E3E7202060670020A0
:101A6000CBE70220C9E7FEE710B586B0142168462F
:101A7000FEF7E5FB1648C16C41F00401C164C16C7E
:101A800001F004010591C16C41F00101C164C16C18
:101A900001F001010591C16C41F00201C164C06C0B
:101AA0004FF0904400F002000590002204212046EF
:101AB000FEF717FD0420009001200021CDE901016F
:101AC000039169462046FEF733FC06B010BD0000C6
:101AD00000100240114810B50F4901604FF48271A7
:101AE000416000214FF4E062C0E902124FF400723D
:101AF0000161C0E90512C161016207224162C0E9CA
:101B00000A12016308214163FFF744FB002801D05A
:101B100072B6FEE710BD000000300140100000204A
:101B20000F4810B50D49016000214FF4E06241609B
:101B3000C0E902124FF400720161C0E905120162AE
:101B400007224162C0E90A1201634163FFF722FBE9
:101B5000002801D072B6FEE710BD0000003C004036
:101B6000740000200C4810B50A4901604FF4E131BF
:101B70004160002181600C22C160C0E904128161D2
:101B8000C16101624162FFF7ADFE002801D072B66B
:101B9000FEE710BD00380140D8000020FEE7FEE758
:101BA000704700002DE9F041444C05468846E06846
:101BB0000026810728680DD0E16801F00301814209
:101BC00016D1A8B1E0686968C0F30210401C8842D1
:101BD0000ED120E0012804D0022805D0032807D127
:101BE00008E02168890701E021684905002907DB31
:101BF00001265FE02168890302D421684903F5E7E3
:101C0000E1686A686FF00F0321F0730103EB0212C1
:101C100011430143E160206820F080602060FEF7FE
:101C200065FC074605E000BFFEF760FCC01B02280C
:101C300037D820680001F7D4B8F1000F18D0B8F1F8
:101C4000010F1DD0287D4FF07E41400801EB406020
:101C5000A96840EA01202169194A1140084320611E
:101C6000206840F080602060FEF740FC07461AE0E4
:101C7000A868297B000240EAC1602169114AECE7AB
:101C8000288A1149400801EB4050A96840EA012028
:101C900021690E4AE1E700BFFEF728FCC01B0228BD
:101CA00001D9032606E020680001F5D52069A9695D
:101CB000084320613046BDE8F0810000001002407A
:101CC000FF80FFF9FF80FF070000E0FFFF809FFF1C
:101CD000F8B51C4D06460024A86DC00002D5FEF7DD
:101CE000CFFC0DE0A86D40F08050A865A86D00F015
:101CF00080500090FEF7C4FCA96D21F08051A965C9
:101D0000B0F5007F04D0802E07D94FF003040AE01D
:101D1000802E08D9A02E01D804E001D1022402E0CF
:101D2000702E00D101240848016821F007012143E9
:101D30000160006800F00700A04201D00120F8BD5A
:101D40000020F8BD00100240002002400148FFF7CB
:101D5000A3B90000100000200148FFF79DB9000062
:101D60007400002010B5806A0021A0F84610C187D9
:101D7000FFF790F910BD2DE9F843044640684FF491
:101D80008276154689464FF400474FF48068B0428A
:101D900009D1A068B84201D0404504D1206801684B
:101DA00021F0400101604B46002280212046009531
:101DB00000F0A8F880B96068B04214D1A068B842B9
:101DC00001D040450FD14B4600224FF4C061204660
:101DD000009500F02FF830B1206E40F02000206612
:101DE0000320BDE8F8830020FBE7F8B515460E4652
:101DF0000B460092044600224FF4C05100F01AF83E
:101E000088B93346002280212046009500F07AF8F8
:101E100048B9334600224FF4C0612046009500F0D7
:101E200009F8002804D0206E40F02000206603202E
:101E3000F8BD00002DE9F84F994617460E460446B6
:101E40000A9DFEF753FB411BA9EB0105FEF74EFB74
:101E5000804629484FF4C06A0068C0EBC00000EB20
:101E60008000000D684300903FE0564501D107B95E
:101E7000007BB9F1FF3F38D0FEF738FBA0EB08003C
:101E8000A84203D215B1009860B32CE020684168E5
:101E900021F0E00141606068B0F5827F0BD1A0685D
:101EA000B0F5004F02D0B0F5806F04D12068016812
:101EB00021F040010160A06AB0F5005F09D12068FF
:101EC000016821F4005101602068016841F400516B
:101ED0000160012084F85D00002084F85C0003208C
:101EE00000F00CB80025401E009020688168314049
:101EF000B942BAD10020F3E70C00002018BCBDE8BD
:101F0000E08F00002DE9F8431E46914688460446BE
:101F1000089DFEF7EBFA401B351AFEF7E7FA074675
:101F200025480068C0F3CB30684338E0701C37D0D8
:101F3000FEF7DCFAC01BA84203D215B1009860B3CB
:101F40002CE02068416821F0E00141606068B0F554
:101F5000827F0BD1A068B0F5004F02D0B0F5806F42
:101F600004D12068016821F040010160A06AB0F549
:101F7000005F09D12068016821F4005101602068E8
:101F8000016841F400510160012084F85D000020E7
:101F900084F85C000320BDE8F8830025401E009013
:101FA0002068816838EA010004D000214945BDD18C
:101FB0000020F0E70121F9E70C0000207047FEF750
:101FC0009BBA30B5ABB0442115A8FEF738F91421FF
:101FD00026A8FEF734F954216846FEF730F91020A0
:101FE000159000246020CDE91C4001251B9515A803
:101FF0001F94FEF799FD08B172B6FEE70F20CDE9F8
:10200000260428942994002126A82A94FEF786FC09
:1020100008B172B6FEE7684600950894FEF738FBF3
:1020200008B172B6FEE74FF40070FEF7F5FA00282B
:1020300001D072B6FEE72BB030BD00000D4801683C
:1020400041F4700101600C48016841F00101016038
:10205000002181600268094B1A4002608214C2604C
:10206000026822F48022026081610249C003803943
:102070000860704788ED00E000100240FFFFF6EABC
:1020800090F82410C90706D001684A68836A22F4D0
:1020900000321A434A6090F82410890706D5016877
:1020A0004A68C36A22F480321A434A6090F82410C6
:1020B000490706D501684A68036B22F480221A4357
:1020C0004A6090F82410090706D501684A68436BF6
:1020D00022F400421A434A6090F82410C90606D53B
:1020E00001688A68836B22F480521A438A6090F8F0
:1020F0002410890606D501688A68C36B22F4005251
:102100001A438A6090F82410490611D501684A687C
:10211000036C22F480121A434A60016CB1F5801FEF
:1021200006D101684A68436C22F4C0021A434A602F
:1021300090F82410090606D501684A68806C22F4DC
:10214000002202434A607047F8B500260446C6677D
:10215000FEF7CCF90546206800686FF07E4700075F
:1021600008D52B4600224FF400112046009700F0BE
:1021700009F960B92068006840070AD52B4600229B
:102180004FF480012046009700F0FCF808B10320CE
:10219000F8BD20206067A06784F870600020F8BD5B
:1021A0002DE9F0410446016880682269E369104323
:1021B000626900251A4310436B4F0A686B4B1A4043
:1021C00002430A6020684168E26821F440511143EB
:1021D00041602168A069B94201D0226A10438A682F
:1021E00022F4306202438A606149236861488B426D
:1021F0000DD1D0F8880010F0030006D0012838D0A7
:10220000022834D0032821D135E001211FE05A49AA
:102210008B420BD1D0F8880010F00C0025D0042898
:1022200027D0082823D00C2810D124E0BB420DD1A0
:10223000D0F8880010F4406017D0B0F5806F18D047
:10224000B0F5006F13D0B0F5406F14D010214B489B
:1022500000264FF40042BB422FD171B1022912D0A7
:1022600004290DD0082973D125E00021EFE70221D0
:10227000EDE70421EBE70821E9E7FEF7DFFB01E0EA
:10228000FEF700FCF0B3626802EB420181425FD8C6
:10229000B0EB023F5CD8010E000273084FEA320730
:1022A000C01959410023FDF78FFF354AA0F5407151
:1022B000914251D94CE01046E5E7E3694FF6EF77DC
:1022C000934229D1092943D2DFE801F005080E42E3
:1022D0000B4242422400FEF7B1FB04E0FEF7C0FBD4
:1022E00001E0FEF7CFFB68B14100606801EB5001EF
:1022F000B1FBF0F080B2A0F11001B94228D84FF63E
:10230000F07100E02AE00140C0F342000143206880
:10231000C16023E01046E7E7092919D2DFE801F0A0
:1023200005080E180B1818181A00FEF787FB04E0B2
:10233000FEF796FB01E0FEF7A5FB78B1616800EBC4
:102340005100B0FBF1F080B2A0F11001B94203D905
:10235000012503E01046F1E72168C860266628469B
:102360006666BDE8F081000000800040F369FFEF81
:102370000038014000100240004400400024F400F6
:10238000FFFC0F002DE9F0479A4617460E4604461B
:102390004FF000094FF02008089D39E0681C37D045
:1023A000FEF7A4F8A0EB0A00A84222D80DB32068DB
:1023B000016849072CD5C069C043000528D42168AD
:1023C0004FF4006008622068016821F4D071016058
:1023D0002068816821F001018160C4F87480C4F82C
:1023E0007880C4F87C8000BF84F870900320BDE83A
:1023F000F0872068016821F4D0710160206881684D
:1024000021F001018160C4F87480C4F87880EBE7A2
:102410002068C06936EA000004D00020B842BDD070
:102420000020E4E70120F9E7FEE70907090E00288C
:1024300004DB00F1E02080F80014704700F00F008A
:1024400000F1E02080F8141D704702E008C8121F58
:1024500008C1002AFAD170477047002001E001C18D
:10246000121F002AFBD170471FB5FEF74DF8FFF78A
:10247000A8FDFFF7F9FAFFF72DFBFFF751FBFFF778
:1024800071FB79218DF8081065218DF809107321F1
:102490008DF80A106E2100208DF80C1030218DF877
:1024A0000D108DF800008DF80B008DF80E004FF424
:1024B0007A764FF09045471E4FF4FA786423012254
:1024C00069461B48FEF7FFFF19486423012201A952
:1024D0006430FEF731FF9DF800009DF8041088423B
:1024E00015D13046FDF712FF11483B46042202A9E0
:1024F000C830FFF75DFA012404212846FDF7E9FF03
:10250000FA20FDF703FF641C062CF5DD06E0084801
:102510003B46032203A9C830FFF74AFA4046FDF7BD
:10252000F5FE9DF800000A308DF80000C6E70000B7
:102530001000002000000000000000000102030461
:1025400006070809A0860100400D0300801A060056
:1025500000350C0040420F0080841E0000093D0041
:1025600000127A000024F40000366E010048E801F1
:10257000006CDC0200000000010203049C2500083E
:1025800000000020100000004A240008AC250008CC
:1025900010000020480500005A2400080100000037
:0C25A000100000000000000000093D00D9
:040000050800018D61
:00000001FF
