:020000040800F2
:10000000E0040020A5010008971C00084119000821
:10001000951C0008B9020008212300080000000018
:10002000000000000000000000000000451E000865
:10003000BB02000800000000991C0008471E0008D1
:10004000BF010008BF010008BF010008BF01000890
:10005000BF010008BF010008BF010008BF01000880
:10006000BF010008BF010008BF010008BF01000870
:10007000BF010008BF010008BF010008BF01000860
:10008000BF010008BF010008BF010008BF01000850
:10009000BF010008BF010008BF010008BF01000840
:1000A000BF010008BF010008BF010008BF01000830
:1000B000BF01000800000000000000004519000812
:1000C000BF0100080000000000000000BF010008A0
:1000D00000000000BF010008152300080000000018
:1000E000BF010008BF010008000000000000000080
:1000F0000000000000000000000000000000000000
:10010000000000000000000000000000BF01000827
:100110000000000000000000BF010008BF0100084F
:10012000BF010008BF010008BF010008BF010008AF
:10013000BF010008000000000000000000000000F7
:10014000BF010008BF010008BF010008BF0100088F
:10015000BF010008BF010008BF010008BF0100087F
:10016000BF010008BF010008BF0100080000000037
:10017000BF010008BF0100080000000000000000EF
:10018000BF010008BF010008BF010008DFF810D060
:1001900000F080F80048004771230008AFF30080AA
:1001A000E00400200648804706480047FEE7FEE7D7
:1001B000FEE7FEE7FEE7FEE7FEE7FEE7FEE7FEE717
:1001C000F51E00088D0100082DE9F05F05460020AE
:1001D00092469B4688460646814640241BE02846B8
:1001E00041464746224600F044F853465A46C01A54
:1001F000914110D311461846224600F02BF82D1AD3
:1002000067EB01084F4622460120002100F022F84A
:1002100017EB00094E41201EA4F10104DFDC484623
:1002200031462A46434600F000B830BCBDE8C09FC6
:10023000D2B201E000F8012B491EFBD27047002228
:10024000F6E710B513460A4604461946FFF7F0FFD5
:10025000204610BD202A04DB203A00FA02F10020DB
:1002600070479140C2F1200320FA03F319439040F4
:100270007047202A04DB203A21FA02F0002170475F
:1002800021FA02F3D040C2F12002914008431946FE
:1002900070470000064C074D06E0E06840F001039F
:1002A00094E8070098471034AC42F6D3FFF772FF8A
:1002B0003425000854250008FEE7704710B590F873
:1002C00025100024022903D00421C16301241AE06F
:1002D00001680A6822F00E020A6001680A6822F0CA
:1002E00001020A6090F84410036C01F01C02012125
:1002F00001FA02F25A6080F82510002180F82410DB
:10030000816B01B18847204610BD000070B50446DE
:1003100000F0ECF80546601C02D004480078044464
:1003200000F0E4F8401BA042FAD370BD00000020AA
:100330002DE9FC4FDFF880A1002301250AF1040B11
:1003400003244FF00F0C0BF1040EAEE005FA03F698
:1003500032406FD04F68012F05D0022F03D0112FEC
:1003600001D0122F17D1D0F808905F0004FA07F8D7
:1003700029EA08090097D1F80C8008FA07F848EA3A
:100380000908C0F808804768B7430E79C6F300161D
:100390009E403E434660C6684FEA430804FA08F7A9
:1003A000BE4301978F6807FA08F73743C7604E6866
:1003B000022E01D0122E13D1DE0800EB8606009625
:1003C000366A5F07FF0E0CFA07F926EA0906D1F82C
:1003D000109009FA07F949EA0609009EC6F820902C
:1003E0000768019EB7430E7906F0030606FA08F681
:1003F0003E4306604E68F60056D5304E376E47F0E5
:1004000001073766366E23F0030706F001060096F3
:100410002B4E3E44B146B6689F074FEA17780CFA58
:1004200008F7BE43B0F1904F05D0264FB84204D133
:10043000012708E038E0002705E0234FB84201D14A
:10044000022700E0072707FA08F73743C9F80870C2
:10045000DAF800605746D1F8048096435FEAC8385E
:1004600000D516433E60DBF800605F46D1F804809B
:1004700096435FEA883800D516433E60DEF8006098
:100480007746D1F8048096435FEAC82800D5164322
:100490003E60094F0C373E68D1F8048096435FEA0E
:1004A000882800D516433E605B1C0A6832FA03F6C2
:1004B0007FF44CAF00F00AB8000401400010024085
:1004C0000000014000040048000800481CBCBDE8D2
:1004D000E08F426921EA02030A4043EA0241816156
:1004E00070470AB181617047816270470148806836
:1004F000704700000000002090F84120202A24D1FD
:1005000090F84020012A20D0012280F840202422A7
:1005100080F841200268136823F001031360026829
:10052000136823F480531360026813680B4313604D
:1005300001680A6842F001020A60202180F8411037
:10054000002180F84010084670470220704790F85C
:100550004120202A22D190F84020012A1ED00122D9
:1005600080F84020242280F841200268136823F09C
:10057000010313600268136823F4706343EA0121E6
:10058000116001680A6842F001020A60202180F8C7
:100590004110002180F84010084670470220704743
:1005A000026891691268436B002B00D018477047AE
:1005B00070B5040004D094F84100002510B106E0A5
:1005C000012070BD84F84050204600F00FFA24202E
:1005D00084F841002068016821F001010160606831
:1005E000216820F0706008612068816821F4004172
:1005F0008160E0680128A06807D040F404402168C9
:100600008860E068022803D006E040F40040F6E786
:1006100021684FF40060486020684168114A114326
:1006200041602068C16821F40041C160D4E904013F
:100630000843A16940EA01202168C860D4E90701A4
:100640000843216808602068016841F001010160E9
:100650006564202084F84100256384F8425000201E
:1006600070BD0000008000022DE9FC470026044612
:10067000019690F841001F469246894620287ED177
:1006800020688069C043000479D594F840000128AF
:1006900075D0012084F84000242084F8410066646D
:1006A0004FF02008E068012809D029F4544040F4B4
:1006B000205021684860FFF719FF05460DE03149D9
:1006C00049EA010030490840F3E7781C05D0FFF7FC
:1006D0000DFF401BB84219D8C7B1216888698969E4
:1006E000C0F34010C1F300110843EED020688069C8
:1006F0003B46C043C0064FF000024FF020012046A9
:10070000009517D501F08EF968BB09E084F84180A7
:1007100054F8440F40F0200044F80409267022E009
:100720002168C1F81C8084F8418084F84060002072
:1007300000F02CB801F076F9A8B921681020C86142
:100740002168C1F81C800198504512D12068416889
:1007500041F4804141603B46002220212046009523
:1007600001F060F910B10120E2E708E02168C1F86A
:100770001C800198401C0190504593D3C6E702208D
:10078000D6E7000000200002FF2300020CBCBDE8F9
:10079000F08700002DE9F84F044690F84100DDF89D
:1007A00028A01F4690468B4620287ED194F8400012
:1007B00001287AD0012084F84000FFF797FE064612
:1007C000012200901923D103204601F02BF9E0BB50
:1007D000222084F84100102084F84200002565643E
:1007E000C4F8248067856563618D3148FF274FF029
:1007F00080784FF00079FF2903D927853A46009089
:1008000039E0618D218500903AE05946204601F09B
:10081000F3F813E001F032F9B8B92068406A616A70
:100820000870606A401C6062208D401E80B2208586
:10083000618D491E6185618D01B168B1608D32465F
:10084000002851462046E5D100E002E001F058F9C9
:10085000D0B1012000F030B853460022802120465C
:10086000009601F0DFF80028F3D1608DFF2804D94D
:1008700027853A4600954346C7E7608D2085009559
:1008800094F828204B46C0E721682020C8612168E1
:100890004A68084B1A404A6084F8410084F8425084
:1008A00084F840500020D5E7FFE70220D2E700009F
:1008B0000024008000E800FE18BCBDE8E08F0000C6
:1008C0002DE9F84F044690F84100DDF828A01F46B6
:1008D00090468B4620287ED194F8400001287AD09B
:1008E000012084F84000FFF701FE06460122009037
:1008F0001923D103204601F095F8E0BB212084F8AC
:100900004100102084F8420000256564C4F824806A
:1009100067856563618D3148FF274FF080784FF020
:100920000079FF2903D927853A46009039E0618D87
:10093000218500903AE05946204601F05DF813E029
:1009400001F004F9B8B9606A216800788862606AC9
:10095000401C6062608D401E6085208D401E80B20C
:100960002085618D01B168B1608D32460028514605
:100970002046E5D100E002E001F0C2F8D0B101204C
:1009800000F030B85346002280212046009601F046
:1009900049F80028F3D1608DFF2804D927853A460D
:1009A00000954346C7E7608D2085009594F8282080
:1009B0004B46C0E721682020C86121684A68084B7F
:1009C0001A404A6084F8410084F8425084F840504C
:1009D0000020D5E7FFE70220D2E7000000200080DA
:1009E00000E800FE18BCBDE8E08F000010B586B03E
:1009F000044614216846FFF722FC17492068884204
:100A000028D1164CE06C40F00100E064E06C6946CF
:100A100000F0010005904FF4C0600090122001909A
:100A20000120029003200390042004904FF0904096
:100A3000FFF77EFCA06D40F40010A065A06D0022C1
:100A400000F40010059011461F2000F067F81F20E9
:100A500000F056F806B010BD0054004000100240EF
:100A600002488168027811448160704700000020CC
:100A700010B50024032000F071F8002000F008F801
:100A800008B1012401E000F025F8204610BD000067
:100A900070B50E4E05460024307898B14FF47A7147
:100AA000B1FBF0F00A490968B1FBF0F000F0B6FDC7
:100AB00040B9102D06D200222946501E00F02EF813
:100AC000756000E00124204670BD00000000002099
:100AD0000C000020094808B5016E41F001010166D3
:100AE000016E01F001010091816D41F0805181653D
:100AF000806D00F08050009008BD000000100240A2
:100B0000002809DB00F01F0201219140400980000C
:100B100000F1E020C0F8001170470000F0B40E4B67
:100B20001B680C46C3F30223C3F10705042D00D94B
:100B30000425191D072901D2002300E0DB1E012630
:100B400006FA05F1491E214099409E40761E164046
:100B50003143F0BC01F0E5BB0CED00E0064900F0CC
:100B6000070208684FF6FF03184040EA0220034AD4
:100B700010430860704700000CED00E00000FA052B
:100B80001649B0F5007F0868C0F3412009D002285B
:100B900005D0086820F4C06040F480600860002040
:100BA00070470128FBD0086820F4C06040F4007052
:100BB00008600B483222006850430A4AB0FBF2F04A
:100BC000401C00E0401E4A69520501D50028F9D1B9
:100BD00048694005E3D503207047000000700040DD
:100BE0000C00002040420F000248006800F4C06082
:100BF00070470000007000400248016841F48071B5
:100C000001607047007000400248016841F0040133
:100C100001607047001002402DE9F84F044600279C
:100C200000889C4D3E46000515D5E06B60B1B0F5DF
:100C3000000F04D0B0F5400F2BD001270AE0E86880
:100C400040F48030E86024E00021201D01F026F807
:100C500007001ED03E462068800338D5A86D4FF0AF
:100C60000008C00009D4A86D40F08050A865A86DA8
:100C70004FF0010800F080500090DFF81CA2DAF875
:100C8000001041F48071CAF80010FFF72FFC814674
:100C900010E0D5F88800E16B20F440000843C5F867
:100CA0008800D8E7FFF722FCA0EB0900022801D951
:100CB000032704E0DAF80000C005F3D5EFB33E46A1
:100CC000B8F1000F03D0A86D20F08050A8652078FF
:100CD000C00707D0D5F88800216A20F00300084338
:100CE000C5F888002078800707D5D5F88800616AA4
:100CF00020F00C000843C5F888002078800607D54E
:100D0000D5F88800A16A20F440600843C5F888003F
:100D10002088800507D5D5F88800616B20F4402035
:100D20000843C5F888002088400509D5D5F8880013
:100D3000A16B20F44010084300E02EE0C5F88800C5
:100D40002078400607D5D5F88800E16A20F44050A5
:100D50000843C5F888002088C00507D5D5F8880065
:100D6000216B20F440300843C5F8880020884FF0FC
:100D7000006780044FF080684ED5D5F88800216C5C
:100D800020F040600843C5F88800206CB8423BD191
:100D9000E86840F48010E8603EE0D5F8900010F478
:100DA000407014D0216D814211D0D5F89000D5F853
:100DB000901020F4407041F48031C5F89010D5F8BF
:100DC000901021F48031C5F89010C5F89000C0074C
:100DD00011D0FFF78BFB074641F2883907E000BFCF
:100DE000FFF784FBC11B494501D9032668E7D5F805
:100DF00090008007F4D5D5F89000216D20F4407064
:100E00000843C5F890005BE7404505D10121201D4E
:100E100000F044FF00B106462068400317D5D5F81E
:100E20008800616C20F040600843C5F88800606C61
:100E3000B84204D1E86840F48010E86007E040451B
:100E400005D10121201D00F029FF00B106462088B0
:100E5000400411D5D5F88800A16C20F0405008431B
:100E6000C5F88800A06CB0F1805F05D10221201D7B
:100E700000F014FF00B106462088000406D555F89E
:100E8000880FE16C20F0804008432860304600F075
:100E900005B80000001002400070004018BCBDE81A
:100EA000E08F00002DE9F0470F46050058D0404E76
:100EB000306800F00700B84209D2306820F007001F
:100EC00038433060306800F00700B84248D12878D5
:100ED000384CC0072CD06868032811D0022812D0E3
:100EE000216898B1490500293ADAA16821F0030187
:100EF0000143A160FFF7FAFA804641F2883910E019
:100F000021688901EFE721688903ECE78907EAE7AF
:100F1000FFF7ECFAA0EB0801494502D90320BDE830
:100F2000F087A068696800F00C00B0EB810FEFD18A
:100F30002878800705D5A068A96820F0F00008434C
:100F4000A060306800F00700B8420BD9306820F08C
:100F5000070038433060306800F00700B84201D025
:100F60000120DCE72878400705D5A068E96820F46F
:100F7000E0600843A0602878000706D5A0682969CA
:100F800020F4605040EAC100A06000F03FF8A16882
:100F9000094AC1F30311515C01F01F01C840074920
:100FA000086007480068BDE8F047FFF771BD000022
:100FB0000020024000100240EC2400080C00002039
:100FC000040000200548064900688968054AC1F305
:100FD0000221515C01F01F01C84070470C00002045
:100FE000001002402C250008054806490068896861
:100FF000054AC1F3C221515C01F01F01C84070478E
:101000000C000020001002402C25000870B5254976
:10101000002318468A68CC6812F00C0204F003061C
:10102000214C4FEA640509D00C2A05D0042A32D09D
:10103000082A00D1284670BD012E10D10B681B076D
:1010400004D4D1F89430C3F3032302E00B68C3F354
:101050000313164E56F82330DAB10C2AEBD1C868C8
:1010600000F00300022818D0032818D01846CA68D8
:10107000CB68C2F30212C3F306234343521CB3FBF3
:10108000F2F2C868C0F34160401C4000B2FBF0F0CF
:1010900070BD184670BD204670BD2046E7E7284663
:1010A000E5E70000001002400024F400FC240008E2
:1010B0002DE9F84304006FD0FE4DA86800F00C063F
:1010C000E86800F003072078C00664D576B10C2EDE
:1010D00001D1012F0AD0A069002828687AD040F0F9
:1010E00001002860FFF702FA80465DE0286880076B
:1010F00002D5A0690028DED0216A2868000703D540
:10110000286800F0F00004E0D5F89400F02202EA2C
:101110001010814216D9084600F056FE00283BD137
:10112000286840F0080028602868216A20F0F00054
:10113000084328606868E16920F47F4040EA0120A4
:10114000686016E0286840F0080028602868216A76
:1011500020F0F000084328606868E16920F47F40CF
:1011600040EA0120686026B9206A00F02DFE0028C0
:10117000D5D1FFF74BFFA968CF4AC1F30311515CEA
:1011800001F01F01C840CD490860CD480068FFF755
:101190007FFC00287ED12EE0CAE000BFFFF7A6F951
:1011A000A0EB0800022876D828688007F6D52868C2
:1011B00040F0080028602868216A20F0F000084309
:1011C00028606868E16920F47F4040EA0120686097
:1011D00011E0FFE720F001002860FFF787F9804663
:1011E00006E000BFFFF782F9A0EB08000228DAD87A
:1011F00028688007F6D42078C00740D0082E18D081
:101200000C2E01D1032F14D06068B0F5803F17D0A9
:10121000B0F5A02F286817D020F480302860286807
:1012200020F4802028606068E0B1FFF75FF9804615
:1012300014E02868800322D56068002878D01EE07A
:10124000286840F48030EDE740F480202860F7E71C
:10125000FFF74CF9A0EB08006428A4D828688003A5
:10126000F6D50CE0FFF742F9804605E0FFF73EF9BE
:10127000A0EB0800642896D828688003F6D420786C
:1012800080073BD5042E11D00C2E01D1022F0DD09A
:10129000E06801E0B6E1FFE0002828681ED040F4D5
:1012A00080702860FFF722F907460CE028684005A7
:1012B0000CD5E0680028C1D008E000BFFFF716F9A0
:1012C000C01B022893D828684005F7D56868217CA0
:1012D00020F0FE4040EA016068600FE020F480707A
:1012E0002860FFF703F9074605E000BFFFF7FEF8A7
:1012F000C01B0228B1D828684005F7D42078000721
:1013000029D560690028D5F8940012D040F001007A
:10131000C5F89400FFF7EAF8074604E0FFF7E6F89F
:10132000C01B022899D8D5F894008007F6D512E0A2
:101330002BE120F00100C5F89400FFF7D7F807462D
:1013400005E000BFFFF7D2F8C01B022885D8D5F80A
:1013500094008007F6D42078400766D5A86D002752
:10136000C00008D4A86D40F08050A865A86D012782
:1013700000F08050009053480168C90512D40168FC
:10138000814641F480710160FFF7B0F8804605E0C6
:10139000FFF7ACF8A0EB080002287DD8D9F80000D0
:1013A000C005F5D5A068012816D00528D5F890000D
:1013B00017D020F00100C5F89000D5F8900020F07B
:1013C000040000BFC5F89000A06841F28839C0B1A0
:1013D000FFF78CF880460FE0D5F8900040F0010050
:1013E000F0E740F00400C5F89000F5E7FFF77EF85D
:1013F000A0EB080149454FD8D5F890008007F5D5F6
:101400000EE0FFF773F8804606E000BFFFF76EF8C6
:10141000A0EB080149453FD8D5F890008007F5D4E6
:101420001FB1A86D20F08050A8652078800628D5CF
:10143000606A0028D5F8980012D040F00100C5F885
:101440009800FFF753F8074605E000BFFFF74EF896
:10145000C01B022820D8D5F898008007F6D510E0E8
:1014600020F00100C5F89800FFF740F8074604E0B7
:10147000FFF73CF8C01B02280ED8D5F8980080076B
:10148000F6D4A06AA8B1022824D00C2E7DD02868FA
:1014900020F08070286000E0B3E02868000103D4E9
:1014A000E86820F00300E860E86807490840E86061
:1014B0000CE09FE000100240EC2400080C0000202B
:1014C0000400002000700040FFFFEEFEFFF70EF862
:1014D000044699E0E868E26A00F00301914226D1EF
:1014E000216B00F070020901103991421FD1626B2B
:1014F00000F4FE41B1EB022F19D194F8382000F02E
:101500007841B1EBC26F12D1A18F00F4C00249083B
:101510004905A1F50011914209D194F8401000F05D
:10152000C06049084906A1F1007181424BD00C2EE0
:101530006FD0286840016CD4286820F08070286043
:10154000FEF7D4FF064604E0FEF7D0FF801B02281A
:1015500057D828688001F7D4F4E90B016FF00F0227
:1015600002EB01110843218A5204490802EB415160
:10157000A26841EA02210843217D4FF07E424908DA
:1015800002EB41610843217B00E042E040EAC16098
:10159000E968214A11400843E860286840F08070FB
:1015A0002860E86840F08070E860FEF79FFF04461E
:1015B00005E000BFFEF79AFF001B022821D828682B
:1015C0008001F7D523E02868800120D4286840F006
:1015D00080702860E86840F08070E860FEF786FF61
:1015E000044604E0FEF782FF001B022809D82868A1
:1015F0008001F7D50BE000BFFEF778FF001B022843
:1016000002D90320BDE8F88328688001F4D40020C3
:10161000F8E70120F6E700008C809D0110B5401E20
:10162000B0F1807F01D3012010BD4FF0E024606154
:101630000F21601700F075FE0020A06107202061D7
:10164000002010BD704770472DE9F0410268044644
:10165000D0691168936840F60F0528424FF00005E5
:1016600005D186067BD58E0679D5216E88E04D4F53
:1016700003F001060F40374371D0C70707D0CF05ED
:1016800005D501271762E26F42F00102E267820787
:1016900008D5DA0706D0276802223A62E26F42F0E4
:1016A0000402E267420708D5DA0706D0236804225D
:1016B0001A62E26F42F00202E26702070AD501F005
:1016C0002002324306D0236808221A62E26F42F0F9
:1016D0000802E267020509D54A0107D523684FF4DD
:1016E00000621A62E26F42F02002E267E26F002AB3
:1016F0002ED0800605D5880603D5216E09B1204677
:101700008847E06F21688968490602D410F0280FE5
:1017100020D0204600F0AAFC20688168490614D534
:10172000816821F040018160E06E70B11E498163E3
:10173000E06EFEF7C3FD00280AD0E06E816B00E08A
:101740002046BDE8F041084709E02046FFF77BFF4F
:10175000BDE8F0812046FFF776FFE567F8E7C602AF
:1017600009D55B0207D54FF4801010622046BDE812
:10177000F041FFF767BF030605D50B0603D5616E81
:101780000029DDD1E4E74006E2D54806E0D511683E
:10179000204621F04001116020216167656600F05C
:1017A000CEF8D5E7200100045920000810B5040048
:1017B00002D0606F10B107E0012010BD002084F856
:1017C0007000204600F026F8242060672068016839
:1017D00021F001010160204600F058FC0128ECD006
:1017E000606A10B1204600F0A7FB2068416821F430
:1017F000904141602068816821F02A018160206861
:10180000016841F0010101602046BDE8104000F090
:10181000F7BB000010B586B0044614216846FEF7F9
:101820000EFD17492068884227D11648816D41F482
:1018300000318165816D01F400310591C16C41F089
:101840000101C164C06C694600F0010005900C20E4
:1018500000900220019000200290032003900720B6
:1018600004904FF09040FEF763FD002211462620C1
:10187000FFF754F92620FFF743F906B010BD00002A
:1018800000440040001002402DE9F8430446406F38
:101890001F4616460D4620284FD1CDB1C6B194F84B
:1018A0007000012849D0012084F870004FF0000832
:1018B000C4F87C8021206067FEF718FEA4F8506011
:1018C0008146A4F85260A068B0F5805F03D004E0C0
:1018D0000120BDE8F883206928B12E465FF000059D
:1018E00084F8708010E00026FAE78021204600F09E
:1018F000BFFCB8B9C6B116F8010B21680885B4F869
:101900005200401EA4F85200B4F852004B464FF06B
:10191000000200970028E8D14FF04001204600F077
:10192000A7FC30B10320D4E735F8020BC0F3080060
:10193000E3E7202060670020CBE70220C9E770477B
:10194000FEE700000148FEF72BBE0000100000205B
:1019500001688A69D243920701D400228A62006832
:101960008169C943C90703D0816941F001018161DF
:10197000704700002DE9F0410446006890460E468D
:101980008069C043C00633D40025202720688069C1
:10199000C043800615D5701CF8D0FEF7A7FDA0EB5C
:1019A0000800B04201D8002EF0D154F8440F40F0A6
:1019B000200044F804096770A57025700120BDE877
:1019C000F08121681020C8612068C7612046FFF7B8
:1019D000BFFF54F8440B4168064A1140416020683B
:1019E00040F0040044F820096777A5772577E5E7FC
:1019F0000020E4E700E800FEF0B50568059C686893
:101A00004FF48066064FC1F3090106EA545641EAD5
:101A100002413E431943B043214308436860F0BD8F
:101A2000FF63FF032DE9F0411D4617460E460446AD
:101A3000DDF8188008E0681C06D0FEF757FDA0EB23
:101A40000800A8420BD855B12068806936EA00002A
:101A500012D00020B842EED00020BDE8F08154F84A
:101A6000440F40F0200044F804092020607000205A
:101A7000A07020700120F0E70120EBE72DE9F04194
:101A8000002690460F460446202525E0424639466A
:101A90002046FFF76FFF78BB20688069C04380064F
:101AA00013D420688169C943490701D4218DC1B984
:101AB000C56154F8440B4168104A1140416044F834
:101AC00020696577A677267716E0FEF70FFDA0EB75
:101AD0000800B84208D83FB120688069C043400779
:101AE000D4D40020BDE8F08154F8440F40F0200029
:101AF00044F80409657026700120F3E700E800FE51
:101B000070B516460D4604460DE03246294620467D
:101B1000FFF730FF08B1012070BDFEF7E7FC801B26
:101B2000A84207D835B120688069C0438006ECD44C
:101B3000002070BD54F8440F40F0200044F8040920
:101B4000202060700020A0702070E4E770B5164679
:101B50000D4604460FE0324629462046FFF70AFFAD
:101B600008B1012070BD681C05D0FEF7BFFC801BCA
:101B7000A84207D835B120688069C0438007EAD4FD
:101B8000002070BD54F8440F40F0200044F80409D0
:101B9000202060700020A0702070E2E710B586B0B1
:101BA00014216846FEF74BFB1548C16C41F0040157
:101BB000C164C16C01F004010591C16C41F00101E7
:101BC000C164C16C01F001010591C16C41F00201D9
:101BD000C164C06C0B4C00F002000590002208218B
:101BE0002046FEF77EFC0820009001200021CDE970
:101BF0000101039169462046FEF79AFB06B010BD2D
:101C00000010024000040048124810B5104901605D
:101C10001149416000210122C0E9021201614161C4
:101C20008161C1610162FEF7C3FC08B172B6FEE7D3
:101C300000210848FEF760FC08B172B6FEE70021FB
:101C40000448FEF784FC002801D072B6FEE710BD00
:101C50000054004010000020BB7C70000C4810B500
:101C60000A4901604FF4E1314160002181600C229A
:101C7000C160C0E904128161C16101624162FFF784
:101C800095FD002801D072B6FEE710BD004400406B
:101C90005C000020FEE7FEE7704700002DE9F04100
:101CA000444C05468846E0680026810728680DD028
:101CB000E16801F00301814216D1A8B1E0686968CA
:101CC000C0F30210401C88420ED120E0012804D04D
:101CD000022805D0032807D108E02168890701E020
:101CE00021684905002907DB01265FE02168890397
:101CF00002D421684903F5E7E1686A686FF00F03D1
:101D000021F0730103EB021211430143E1602068EB
:101D100020F080602060FEF7E9FB074605E000BF89
:101D2000FEF7E4FBC01B022837D820680001F7D477
:101D3000B8F1000F18D0B8F1010F1DD0287D4FF079
:101D40007E41400801EB4060A96840EA012021691A
:101D5000194A114008432061206840F080602060EB
:101D6000FEF7C4FB07461AE0A868297B000240EA98
:101D7000C1602169114AECE7288A1149400801EB4A
:101D80004050A96840EA012021690E4AE1E700BFFE
:101D9000FEF7ACFBC01B022801D9032606E0206831
:101DA0000001F5D52069A969084320613046BDE8E6
:101DB000F081000000100240FF80FFF9FF80FF0764
:101DC0000000E0FFFF809FFFF8B51C4D0646002491
:101DD000A86DC00002D5FEF707FF0DE0A86D40F02A
:101DE0008050A865A86D00F080500090FEF7FCFEC2
:101DF000A96D21F08051A965B0F5007F04D0802E37
:101E000007D94FF003040AE0802E08D9A02E01D88C
:101E100004E001D1022402E0702E00D10124084820
:101E2000016821F0070121430160006800F007000C
:101E3000A04201D00120F8BD0020F8BD00100240F2
:101E4000002002407047FEF70BBE000010B5ACB09A
:101E500044216846FEF7F3F9142126A8FEF7EFF9AE
:101E6000542111A8FEF7EBF9FEF7C6FE204850F802
:101E7000901F21F0180101601420009001200290B1
:101E8000002460210690CDE907410221CDE90A1026
:101E90000C9010200D900720CDE90E01684610919E
:101EA000FFF706F908B172B6FEE70F20269003206F
:101EB000CDE927042994012126A82A94FEF7F2FFF0
:101EC00008B172B6FEE7422011901A941C9411A832
:101ED000FEF7A2FE08B172B6FEE74FF40070FEF7FF
:101EE0004FFE08B172B6FEE7FEF78EFE2CB010BDB5
:101EF000001002400D48016841F4700101600C4877
:101F0000016841F001010160002181600268094B14
:101F10001A4002608214C260026822F480220260C9
:101F200081610249C00380390860704788ED00E094
:101F300000100240FFFFF6EA90F82410C90706D00F
:101F400001684A68836A22F400321A434A6090F8B2
:101F50002410890706D501684A68C36A22F48032D2
:101F60001A434A6090F82410490706D501684A6868
:101F7000036B22F480221A434A6090F82410090768
:101F800006D501684A68436B22F400421A434A604E
:101F900090F82410C90606D501688A68836B22F47C
:101FA00080521A438A6090F82410890606D5016889
:101FB0008A68C36B22F400521A438A6090F8241096
:101FC000490611D501684A68036C22F480121A434D
:101FD0004A60016CB1F5801F06D101684A68436C04
:101FE00022F4C0021A434A6090F82410090606D56C
:101FF00001684A68806C22F4002202434A607047FC
:10200000F8B500260446C667FEF770FA0546206854
:1020100000686FF07E47000708D52B4600224FF47A
:1020200000112046009700F023F960B9206800688D
:1020300040070AD52B4600224FF480012046009726
:1020400000F016F908B10320F8BD20206067A067F2
:1020500084F870600020F8BD10B5806A0021A0F8F7
:102060005A10A0F85210FFF7EEFA10BD01680A6886
:1020700022F490720A6001688A6822F001028A6084
:102080002021816700210166704700002DE9F041A1
:102090000446016880682269E3691043626900258B
:1020A0001A4310436B4F0A686B4B1A4002430A6095
:1020B00020684168E26821F4405111434160216881
:1020C000A069B94201D0226A10438A6822F43062C2
:1020D00002438A606149236861488B420DD1D0F880
:1020E000880010F0030006D0012838D0022834D030
:1020F000032821D135E001211FE05A498B420BD141
:10210000D0F8880010F00C0025D0042827D008282B
:1021100023D00C2810D124E0BB420DD1D0F8880088
:1021200010F4406017D0B0F5806F18D0B0F5006F94
:1021300013D0B0F5406F14D010214B4800264FF457
:102140000042BB422FD171B1022912D004290DD017
:10215000082973D125E00021EFE70221EDE70421F2
:10216000EBE70821E9E7FEF72DFF01E0FEF74EFF60
:10217000F0B3626802EB420181425FD8B0EB023FEC
:102180005CD8010E000273084FEA3207C0195941AA
:102190000023FEF719F8354AA0F54071914251D954
:1021A0004CE01046E5E7E3694FF6EF77934229D11B
:1021B000092943D2DFE801F005080E420B424242F2
:1021C0002400FEF7FFFE04E0FEF70EFF01E0FEF73D
:1021D0001DFF68B14100606801EB5001B1FBF0F0F8
:1021E00080B2A0F11001B94228D84FF6F07100E09A
:1021F0002AE00140C0F3420001432068C16023E0AF
:102200001046E7E7092919D2DFE801F005080E18A2
:102210000B1818181A00FEF7D5FE04E0FEF7E4FECE
:1022200001E0FEF7F3FE78B1616800EB5100B0FB0E
:10223000F1F080B2A0F11001B94203D9012503E009
:102240001046F1E72168C860266628466666BDE844
:10225000F081000000800040F369FFEF003801408A
:1022600000100240004400400024F400FFFC0F0076
:102270002DE9F0479A4617460E4604464FF00009EE
:102280004FF02008089D39E0681C37D0FEF72EF982
:10229000A0EB0A00A84222D80DB3206801684907C4
:1022A0002CD5C069C043000528D421684FF40060D4
:1022B00008622068016821F4D0710160206881689B
:1022C00021F001018160C4F87480C4F87880C4F8FA
:1022D0007C8000BF84F870900320BDE8F087206800
:1022E000016821F4D07101602068816821F001014A
:1022F0008160C4F87480C4F87880EBE72068C06916
:1023000036EA000004D00020B842BDD00020E4E747
:102310000120F9E70148FFF797B900005C000020B1
:10232000FEE70907090E002804DB00F1E02080F831
:102330000014704700F00F0000F1E02080F8141D39
:10234000704702E008C8121F08C1002AFAD170477E
:102350007047002001E001C1121F002AFBD1704725
:10236000092801D8303000E03730C0B27047000093
:1023700088B0FEF77DFBFFF769FDFFF70FFCFFF765
:1023800043FCFFF76BFC4FF0FF330A22D021524889
:10239000FEF76AF958B9514D012408212846FEF785
:1023A00098F8FA20FDF7B2FF641C0A2CF5DD002036
:1023B0008DF804008DF805000A24022301AAD0211B
:1023C00045480094FEF77CFA01208DF81400152092
:1023D0008DF81500022305AAD0213F480094FEF78E
:1023E0006FFA02208DF8180047208DF8190002239B
:1023F00006AAD02138480094FEF762FA38A202AB50
:1024000007CA83E8070001AD05AE06AF4FF47A783E
:10241000012301AAD02130480094FEF751FA01238C
:102420006A1CD1212C480094FEF7B4F99DF80500F0
:102430000009FFF795FF8DF80E009DF8050000F0EC
:102440000F00FFF78DFF8DF80F00012305AAD021A3
:1024500021480094FEF734FA0123721CD1211E4852
:102460000094FEF797F99DF815000009FFF778FF33
:102470008DF80B009DF8150000F00F00FFF770FFBE
:102480008DF80C00012306AAD02113480094FEF712
:1024900017FA01237A1CD1210F480094FEF77AF92C
:1024A0009DF81900C0F30010FFF75AFF8DF80800DF
:1024B0009DF8190000F00F00FFF752FF8DF809009A
:1024C00005480A231A4602A94C30FFF7DDF94046B9
:1024D000FDF71CFF9CE700001000002000040048EE
:1024E00000003A00003A00000D0A00000000000061
:1024F000000000000102030406070809A08601008D
:10250000400D0300801A060000350C0040420F0009
:1025100080841E0000093D0000127A000024F400AF
:1025200000366E010048E801006CDC02000000008B
:1025300001020304542500080000002010000000E0
:10254000422300086425000810000020D004000089
:1025500052230008010000001000000000000000ED
:0425600000093D0031
:040000050800018D61
:00000001FF
