:020000040800F2
:10000000E0040020A5010008372000084D1D00086D
:10001000352000082D080008AD260008000000006B
:10002000000000000000000000000000E5210008C2
:100030002F0800080000000039200008E721000810
:10004000BF010008BF010008BF010008BF01000890
:10005000BF010008BF010008BF010008BF01000880
:10006000BF010008BF010008BF010008BF01000870
:10007000BF010008BF010008BF010008BF01000860
:10008000BF010008BF010008BF010008BF01000850
:10009000BF010008BF010008BF010008BF01000840
:1000A000BF010008BF010008BF010008BF01000830
:1000B000BF0100080000000000000000511D000802
:1000C000BF0100080000000000000000BF010008A0
:1000D00000000000A1260008BF0100080000000089
:1000E000BF010008BF010008000000000000000080
:1000F0000000000000000000000000000000000000
:10010000000000000000000000000000BF01000827
:100110000000000000000000BF010008BF0100084F
:10012000BF010008BF010008BF010008BF010008AF
:10013000BF010008000000000000000000000000F7
:10014000BF010008BF010008BF010008BF0100088F
:10015000BF010008BF010008BF010008BF0100087F
:10016000BF010008BF010008BF0100080000000037
:10017000BF010008BF0100080000000000000000EF
:10018000BF010008BF010008BF010008DFF810D060
:1001900000F03AFB00480047BD2F0008AFF3008095
:1001A000E00400200648804706480047FEE7FEE7D7
:1001B000FEE7FEE7FEE7FEE7FEE7FEE7FEE7FEE717
:1001C000812200088D0100082DE9F05F054600201E
:1001D00092469B4688460646814640241BE02846B8
:1001E00041464746224600F0BAF953465A46C01ADD
:1001F000914110D311461846224600F0A1F92D1A5C
:1002000067EB01084F4622460120002100F098F9D3
:1002100017EB00094E41201EA4F10104DFDC484623
:1002200031462A46434600F000B830BCBDE8C09FC6
:10023000D2B201E000F8012B491EFBD27047002228
:10024000F6E710B513460A4604461946FFF7F0FFD5
:10025000204610BD2DE9FE4F804681EA0300C00F05
:100260000C46009021F0004123F00045B8EB02005D
:10027000A94105D24046214690461C460B460246FF
:1002800023F00040104347D0270DC7F30A00C3F303
:100290000A510290401A019040286BDAC3F3130010
:1002A00040F4801B0098924620B10023D2EB030A51
:1002B00063EB0B0B01985946C0F14002504600F029
:1002C0003FF906460D4650465946019A00F057F947
:1002D00010EB08006141002487EA115284EAE773B9
:1002E0001A4340D0009A62B3019A012A4FEA07529A
:1002F00015DC001B61EB02014FF0004202EA0752DD
:10030000CDE90042001C41F5801132462B4600F039
:100310008EF903B000F045B840462146F9E7001BCE
:1003200061EB0201001C41F5801300185B412018AD
:10033000A2F5001747EB030140EAD570B6196D41ED
:1003400011E06D084FEA360645EAC0754FEA0752DC
:10035000001B61EB0201001C41F5801149084FEAC6
:1003600030000019514132462B4603B000F01CB852
:1003700000F04EB90098012240000023D0EB0202A9
:1003800063EBE073009821464FEAE074B8EB00009D
:1003900061EB0401E9E783F000435BE781F0004192
:1003A00058E730BCBDE8C08F30BCBDE8C04FFFF798
:1003B000DFBF2DE9FE4F81EA030404F0004421F081
:1003C000004100944FF0000B23F0004350EA010479
:1003D0005ED052EA03045BD0C3F30A54C1F30A555A
:1003E0002C44A4F2F3340194A0FB0254C1F3130192
:1003F00041F48011C3F3130343F4801301FB02445F
:1004000000FB034E840A970A44EA815447EA835763
:10041000A4FB076802958D0A05FB07854FEA932C1C
:1004200004FB0C542705029D4FEA065847EA16378D
:10043000B5EB08056EEB070C870E920E47EA8117A5
:1004400042EA8312A7FB0201B6EB0B0164EB000446
:100450002B0D43EA0C335E1844EB1C50DA46514630
:10046000E7FB0201C5F313044FEA0B3343EA1453CD
:100470004FEA0432019C43EA0603A4F10C040294FF
:10048000009CCDE900B400F0D2F803B000F003B84E
:1004900000200146F9E730BCBDE8C08F0EB540F240
:1004A000334102910021CDE900110A460B4600F0CC
:1004B000BEF803B000BD00F0004230F000400AD0AA
:1004C000C10D01F56071C0F3160042EA0151C20886
:1004D00040071143704700200146704701F0004378
:1004E00030B421F0004150EA010206D00A0DA2F515
:1004F0006072C1F31301002A02DC30BC0020704797
:10050000440F44EAC104C100E01830BC00EBC25003
:1005100000F047B830B50B460146002020220124E8
:1005200009E021FA02F59D4205D303FA02F5491BC1
:1005300004FA02F52844151EA2F10102F1DC30BDD7
:10054000202A04DB203A00FA02F100207047914093
:10055000C2F1200320FA03F3194390407047202A88
:1005600004DB203A21FA02F00021704721FA02F35D
:10057000D040C2F120029140084319467047202A1A
:1005800006DBCB17203A41FA02F043EAE07306E0BB
:1005900041FA02F3D040C2F12002914008431946CB
:1005A00070470029A8BF7047401C490008BF20F0D1
:1005B0000100704710B4B0FA80FC00FA0CF050EA69
:1005C000010404BF10BC704749B1CCF1200421FAEA
:1005D00004F411FA0CF118BF012121430843A3EBE5
:1005E0000C01CB1D4FEA00614FEA102042BF0020F2
:1005F00010BC704700EBC35010440029A4BF10BCCE
:100600007047401C490008BF20F0010010BC704733
:1006100010B5141E73F1000408DA401C41F100010A
:1006200092185B411A4301D120F0010010BD2DE961
:10063000F04D92469B4611B1B1FA81F202E0B0FA58
:1006400080F220329046FFF77BFF04460F4640EAD7
:100650000A0041EA0B0153465A46084313D011469B
:1006600053EA010019D0C8F140025046FFF777FF66
:1006700005460E46504659464246FFF761FF08437D
:1006800005D0012004E020463946BDE8F08D002069
:10069000054346EAE0762C4337430A986305E40AAB
:1006A000A0EB08000022FD0A44EA47540A3002D5B4
:1006B00000200146E9E7010510196941DDE9084517
:1006C00000196941BDE8F04DA2E72DE9F04D81EA3E
:1006D000030404F0004B21F0004514464FF0000ADB
:1006E00023F0004150EA050220D054EA01021DD057
:1006F000C5F30A570246C5F31303C1F31300C1F350
:100700000A5640F4801543F48013A7EB0608101B2B
:10071000D64608F2FD3873EB050002D308F1010854
:1007200001E092185B41B8F1000F03DA00200146A6
:10073000BDE8F08D00204FF48011064684460EE09F
:10074000171B73EB050705D3121B63EB0503064369
:100750004CEA010C49084FEA300092185B4150EA1C
:100760000107EDD152EA030012D082EA040083EAC5
:100770000501084305D0101BAB4106D2012200231E
:1007800006E000224FF0004302E06FF00102531038
:100790001AEB06004CEB085110EB0A0041EB0B0181
:1007A000BDE8F04DFFF734BFC1F30A52C1F31301A6
:1007B00040F2FF3341F480119A4202DA00200146F0
:1007C000704740F233439A42A2F2334202DC524273
:1007D000FFF7C5BEFFF7B4BE30B5041E71F10004CB
:1007E00004DB4FF00044404264EB0101141E73F13E
:1007F000000405DB1C464FF00043524263EB040348
:10080000994208BF904230BD064C074D06E0E068B3
:1008100040F0010394E8070098471034AC42F6D347
:10082000FFF7B8FC80310008A0310008FEE77047F0
:1008300010B590F825100024022903D00421C163CB
:1008400001241AE001680A6822F00E020A600168B9
:100850000A6822F001020A6090F84410036C01F06B
:100860001C02012101FA02F25A6080F825100021D1
:1008700080F82410816B01B18847204610BD00002C
:100880002DE9FC4FDFF880A1002301250AF1040BBC
:1008900003244FF00F0C0BF1040EAEE005FA03F643
:1008A00032406FD04F68012F05D0022F03D0112F97
:1008B00001D0122F17D1D0F808905F0004FA07F882
:1008C00029EA08090097D1F80C8008FA07F848EAE5
:1008D0000908C0F808804768B7430E79C6F30016C8
:1008E0009E403E434660C6684FEA430804FA08F754
:1008F000BE4301978F6807FA08F73743C7604E6811
:10090000022E01D0122E13D1DE0800EB86060096CF
:10091000366A5F07FF0E0CFA07F926EA0906D1F8D6
:10092000109009FA07F949EA0609009EC6F82090D6
:100930000768019EB7430E7906F0030606FA08F62B
:100940003E4306604E68F60056D5304E376E47F08F
:1009500001073766366E23F0030706F0010600969E
:100960002B4E3E44B146B6689F074FEA17780CFA03
:1009700008F7BE43B0F1904F05D0264FB84204D1DE
:10098000012708E038E0002705E0234FB84201D1F5
:10099000022700E0072707FA08F73743C9F808706D
:1009A000DAF800605746D1F8048096435FEAC83809
:1009B00000D516433E60DBF800605F46D1F8048046
:1009C00096435FEA883800D516433E60DEF8006043
:1009D0007746D1F8048096435FEAC82800D51643CD
:1009E0003E60094F0C373E68D1F8048096435FEAB9
:1009F000882800D516433E605B1C0A6832FA03F66D
:100A00007FF44CAF00F00AB800040140001002402F
:100A10000000014000040048000800481CBCBDE87C
:100A2000E08F00000148806870470000040000204B
:100A300090F84120202A24D190F84020012A20D08B
:100A4000012280F84020242280F8412002681368A7
:100A500023F0010313600268136823F480531360CA
:100A6000026813680B43136001680A6842F00102D0
:100A70000A60202180F84110002180F840100846CB
:100A800070470220704790F84120202A22D190F828
:100A90004020012A1ED0012280F84020242280F824
:100AA00041200268136823F0010313600268136891
:100AB00023F4706343EA0121116001680A6842F07F
:100AC00001020A60202180F84110002180F84010C6
:100AD0000846704702207047026891691268436BAC
:100AE000002B00D01847704770B5040004D094F86C
:100AF0004100002510B106E0012070BD84F840508F
:100B0000204600F079F9242084F84100206801682B
:100B100021F0010101606068216820F070600861C7
:100B20002068816821F400418160E0680128A068A4
:100B300007D040F4044021688860E068022803D0B0
:100B400006E040F40040F6E721684FF4006048609A
:100B500020684168114A114341602068C16821F44E
:100B60000041C160D4E904010843A16940EA0120C1
:100B70002168C860D4E9070108432168086020683B
:100B8000016841F0010101606564202084F84100A2
:100B9000256384F84250002070BD000000800002F0
:100BA0002DE9F84F044690F84100DDF828A01F46D3
:100BB00090468B4620287ED194F8400001287AD0B8
:100BC000012084F84000FFF72DFF06460122009027
:100BD0001923D103204601F02BF9E0BB222084F831
:100BE0004100102084F8420000256564C4F8248088
:100BF00067856563618D3148FF274FF080784FF03E
:100C00000079FF2903D927853A46009039E0618DA4
:100C1000218500903AE05946204601F0F3F813E0B0
:100C200001F032F9B8B92068406A616A0870606AF8
:100C3000401C6062208D401E80B22085618D491E5F
:100C40006185618D01B168B1608D324600285146E1
:100C50002046E5D100E002E001F058F9D0B10120D2
:100C600000F030B85346002280212046009601F063
:100C7000DFF80028F3D1608DFF2804D927853A4694
:100C800000954346C7E7608D2085009594F828209D
:100C90004B46C0E721682020C86121684A68084B9C
:100CA0001A404A6084F8410084F8425084F8405069
:100CB0000020D5E7FFE70220D2E7000000240080F3
:100CC00000E800FE18BCBDE8E08F00002DE9F84FF9
:100CD000044690F84100DDF828A01F4690468B4658
:100CE00020287ED194F8400001287AD0012084F891
:100CF0004000FFF797FE0646012200901923D1031A
:100D0000204601F095F8E0BB212084F84100102036
:100D100084F8420000256564C4F824806785656313
:100D2000618D3148FF274FF080784FF00079FF291F
:100D300003D927853A46009039E0618D21850090DE
:100D40003AE05946204601F05DF813E001F004F95D
:100D5000B8B9606A216800788862606A401C606285
:100D6000608D401E6085208D401E80B22085618D83
:100D700001B168B1608D3246002851462046E5D168
:100D800000E002E001F0C2F8D0B1012000F030B87C
:100D90005346002280212046009601F049F80028A1
:100DA000F3D1608DFF2804D927853A460095434644
:100DB000C7E7608D2085009594F828204B46C0E752
:100DC00021682020C86121684A68084B1A404A609F
:100DD00084F8410084F8425084F840500020D5E760
:100DE000FFE70220D2E700000020008000E800FEBC
:100DF00018BCBDE8E08F000010B586B00446142191
:100E00006846FFF71CFA17492068884228D1164C1B
:100E1000E06C40F00100E064E06C694600F0010025
:100E200005904FF4C06000901220019001200290C4
:100E300003200390042004904FF09040FFF720FD22
:100E4000A06D40F40010A065A06D002200F4001019
:100E5000059011461F2000F067F81F2000F056F89B
:100E600006B010BD005400400010024002488168E6
:100E700002781144816070470400002010B50024FE
:100E8000032000F071F8002000F008F808B10124F8
:100E900001E000F025F8204610BD000070B50E4EB0
:100EA00005460024307898B14FF47A71B1FBF0F028
:100EB0000A490968B1FBF0F000F0B6FD40B9102D09
:100EC00006D200222946501E00F02EF8756000E080
:100ED0000124204670BD0000040000201000002006
:100EE000094808B5016E41F001010166016E01F08B
:100EF00001010091816D41F080518165806D00F0AC
:100F00008050009008BD000000100240002809DB5E
:100F100000F01F02012191404009800000F1E02013
:100F2000C0F8001170470000F0B40E4B1B680C466F
:100F3000C3F30223C3F10705042D00D90425191DAD
:100F4000072901D2002300E0DB1E012606FA05F185
:100F5000491E214099409E40761E16403143F0BC08
:100F600001F0BABB0CED00E0064900F0070208688A
:100F70004FF6FF03184040EA0220034A104308607E
:100F8000704700000CED00E00000FA051649B0F5CE
:100F9000007F0868C0F3412009D0022805D0086806
:100FA00020F4C06040F48060086000207047012891
:100FB000FBD0086820F4C06040F4007008600B4863
:100FC0003222006850430A4AB0FBF2F0401C00E0B5
:100FD000401E4A69520501D50028F9D148694005EB
:100FE000E3D503207047000000700040100000208F
:100FF00040420F000248006800F4C06070470000E3
:10100000007000400248016841F48071016070473F
:10101000007000400248016841F00401016070471F
:10102000001002402DE9F84F0446002700889C4D2F
:101030003E46000515D5E06B60B1B0F5000F04D059
:10104000B0F5400F2BD001270AE0E86840F480306B
:10105000E86024E00021201D00F0F0FF07001ED012
:101060003E462068800338D5A86D4FF00008C000C8
:1010700009D4A86D40F08050A865A86D4FF0010814
:1010800000F080500090DFF81CA2DAF8001041F464
:101090008071CAF80010FFF7C5FC814610E0D5F852
:1010A0008800E16B20F440000843C5F88800D8E7C9
:1010B000FFF7B8FCA0EB0900022801D9032704E0E0
:1010C000DAF80000C005F3D5EFB33E46B8F1000FE3
:1010D00003D0A86D20F08050A8652078C00707D005
:1010E000D5F88800216A20F003000843C5F888007D
:1010F0002078800707D5D5F88800616A20F00C00B9
:101100000843C5F888002078800607D5D5F8880000
:10111000A16A20F440600843C5F888002088800553
:1011200007D5D5F88800616B20F440200843C5F846
:1011300088002088400509D5D5F88800A16B20F4E7
:101140004010084300E02EE0C5F8880020784006F3
:1011500007D5D5F88800E16A20F440500843C5F867
:1011600088002088C00507D5D5F88800216B20F4B9
:1011700040300843C5F8880020884FF0006780049D
:101180004FF080684ED5D5F88800216C20F0406083
:101190000843C5F88800206CB8423BD1E86840F4A9
:1011A0008010E8603EE0D5F8900010F4407014D054
:1011B000216D814211D0D5F89000D5F8901020F41F
:1011C000407041F48031C5F89010D5F8901021F4AA
:1011D0008031C5F89010C5F89000C00711D0FFF716
:1011E00021FC074641F2883907E000BFFFF71AFCEF
:1011F000C11B494501D9032668E7D5F8900080074F
:10120000F4D5D5F89000216D20F440700843C5F85E
:1012100090005BE7404505D10121201D00F00EFF45
:1012200000B106462068400317D5D5F88800616CE8
:1012300020F040600843C5F88800606CB84204D1D3
:10124000E86840F48010E86007E0404505D10121DE
:10125000201D00F0F3FE00B106462088400411D5A1
:10126000D5F88800A16C20F040500843C5F88800EC
:10127000A06CB0F1805F05D10221201D00F0DEFEE0
:1012800000B106462088000406D555F8880FE16CA9
:1012900020F0804008432860304600F005B8000088
:1012A000001002400070004018BCBDE8E08F000054
:1012B0002DE9F0470F46050058D0404E306800F049
:1012C0000700B84209D2306820F007003843306088
:1012D000306800F00700B84248D12878384CC00781
:1012E0002CD06868032811D0022812D0216898B148
:1012F000490500293ADAA16821F003010143A16000
:10130000FFF790FB804641F2883910E0216889019F
:10131000EFE721688903ECE78907EAE7FFF782FB3B
:10132000A0EB0801494502D90320BDE8F087A06879
:10133000696800F00C00B0EB810FEFD128788007CE
:1013400005D5A068A96820F0F0000843A0603068C7
:1013500000F00700B8420BD9306820F0070038438E
:101360003060306800F00700B84201D00120DCE7AF
:101370002878400705D5A068E96820F4E0600843B4
:10138000A0602878000706D5A068296920F460507D
:1013900040EAC100A06000F03FF8A168094AC1F32B
:1013A0000311515C01F01F01C8400749086007485C
:1013B0000068BDE8F047FFF771BD00000020024063
:1013C0000010024038310008100000200800002002
:1013D0000548064900688968054AC1F30221515C45
:1013E00001F01F01C84070471000002000100240AB
:1013F000783100080548064900688968054AC1F344
:10140000C221515C01F01F01C8407047100000204C
:10141000001002407831000870B5254900231846B5
:101420008A68CC6812F00C0204F00306214C4FEAE3
:10143000640509D00C2A05D0042A32D0082A00D12C
:10144000284670BD012E10D10B681B0704D4D1F8BB
:101450009430C3F3032302E00B68C3F30313164E67
:1014600056F82330DAB10C2AEBD1C86800F003003B
:10147000022818D0032818D01846CA68CB68C2F3CF
:101480000212C3F306234343521CB3FBF2F2C868B3
:10149000C0F34160401C4000B2FBF0F070BD184644
:1014A00070BD204670BD2046E7E72846E5E700000E
:1014B000001002400024F400483100082DE9F843F0
:1014C00004006FD0FE4DA86800F00C06E86800F03C
:1014D00003072078C00664D576B10C2E01D1012F08
:1014E0000AD0A069002828687AD040F0010028605E
:1014F000FFF798FA80465DE02868800702D5A0696A
:101500000028DED0216A2868000703D5286800F08B
:10151000F00004E0D5F89400F02202EA10108142B5
:1015200016D9084600F020FE00283BD1286840F07C
:10153000080028602868216A20F0F000084328602D
:101540006868E16920F47F4040EA0120686016E0A5
:10155000286840F0080028602868216A20F0F00020
:10156000084328606868E16920F47F4040EA012070
:10157000686026B9206A00F0F7FD0028D5D1FFF792
:101580004BFFA968CF4AC1F30311515C01F01F0161
:10159000C840CD490860CD480068FFF77FFC0028AF
:1015A0007ED12EE0CAE000BFFFF73CFAA0EB0800B6
:1015B000022876D828688007F6D5286840F0080009
:1015C00028602868216A20F0F000084328606868D5
:1015D000E16920F47F4040EA0120686011E0FFE704
:1015E00020F001002860FFF71DFA804606E000BFEA
:1015F000FFF718FAA0EB08000228DAD8286880075D
:10160000F6D42078C00740D0082E18D00C2E01D177
:10161000032F14D06068B0F5803F17D0B0F5A02F2D
:10162000286817D020F480302860286820F48020B3
:1016300028606068E0B1FFF7F5F9804614E028689B
:10164000800322D56068002878D01EE0286840F426
:101650008030EDE740F480202860F7E7FFF7E2F9FB
:10166000A0EB08006428A4D828688003F6D50CE015
:10167000FFF7D8F9804605E0FFF7D4F9A0EB0800A2
:10168000642896D828688003F6D4207880073BD554
:10169000042E11D00C2E01D1022F0DD0E06801E0F4
:1016A000B6E1FFE0002828681ED040F48070286072
:1016B000FFF7B8F907460CE0286840050CD5E0684C
:1016C0000028C1D008E000BFFFF7ACF9C01B02281A
:1016D00093D828684005F7D56868217C20F0FE4043
:1016E00040EA016068600FE020F480702860FFF736
:1016F00099F9074605E000BFFFF794F9C01B0228DF
:10170000B1D828684005F7D42078000729D560694A
:101710000028D5F8940012D040F00100C5F89400DC
:10172000FFF780F9074604E0FFF77CF9C01B0228A9
:1017300099D8D5F894008007F6D512E02BE120F077
:101740000100C5F89400FFF76DF9074605E000BFFA
:10175000FFF768F9C01B022885D8D5F894008007E8
:10176000F6D42078400766D5A86D0027C00008D4BD
:10177000A86D40F08050A865A86D012700F080504A
:10178000009053480168C90512D40168814641F4AC
:1017900080710160FFF746F9804605E0FFF742F9E6
:1017A000A0EB080002287DD8D9F80000C005F5D5C7
:1017B000A068012816D00528D5F8900017D020F091
:1017C0000100C5F89000D5F8900020F0040000BF9B
:1017D000C5F89000A06841F28839C0B1FFF722F93E
:1017E00080460FE0D5F8900040F00100F0E740F0AF
:1017F0000400C5F89000F5E7FFF714F9A0EB080125
:1018000049454FD8D5F890008007F5D50EE0FFF791
:1018100009F9804606E000BFFFF704F9A0EB0801D4
:1018200049453FD8D5F890008007F5D41FB1A86D81
:1018300020F08050A8652078800628D5606A0028AE
:10184000D5F8980012D040F00100C5F89800FFF7D5
:10185000E9F8074605E000BFFFF7E4F8C01B0228DF
:1018600020D8D5F898008007F6D510E020F00100C8
:10187000C5F89800FFF7D6F8074604E0FFF7D2F85E
:10188000C01B02280ED8D5F898008007F6D4A06AAD
:10189000A8B1022824D00C2E7DD0286820F08070BA
:1018A000286000E0B3E02868000103D4E86820F075
:1018B0000300E860E86807490840E8600CE09FE042
:1018C00000100240383100081000002008000020FD
:1018D00000700040FFFFEEFEFFF7A4F8044699E019
:1018E000E868E26A00F00301914226D1216B00F022
:1018F00070020901103991421FD1626B00F4FE4160
:10190000B1EB022F19D194F8382000F07841B1EBF7
:10191000C26F12D1A18F00F4C00249084905A1F598
:101920000011914209D194F8401000F0C0604908BC
:101930004906A1F1007181424BD00C2E6FD028686E
:1019400040016CD4286820F080702860FFF76AF8A6
:10195000064604E0FFF766F8801B022857D828687F
:101960008001F7D4F4E90B016FF00F0202EB0111D3
:101970000843218A5204490802EB4151A26841EA16
:1019800002210843217D4FF07E42490802EB41616C
:101990000843217B00E042E040EAC160E968214A57
:1019A00011400843E860286840F080702860E868CB
:1019B00040F08070E860FFF735F8044605E000BFAE
:1019C000FFF730F8001B022821D828688001F7D5DE
:1019D00023E02868800120D4286840F080702860C7
:1019E000E86840F08070E860FFF71CF8044604E007
:1019F000FFF718F8001B022809D828688001F7D5DE
:101A00000BE000BFFFF70EF8001B022802D90320ED
:101A1000BDE8F88328688001F4D40020F8E70120AD
:101A2000F6E700008C809D0110B5401EB0F1807F6C
:101A300001D3012010BD4FF0E02460610F21601739
:101A400000F04AFE0020A06107202061002010BDA8
:101A5000704770472DE9F04102680446D06911686B
:101A6000936840F60F0528424FF0000505D1860621
:101A70007BD58E0679D5216E88E04D4F03F00106A7
:101A80000F40374371D0C70707D0CF0505D50127D1
:101A90001762E26F42F00102E267820708D5DA07B7
:101AA00006D0276802223A62E26F42F00402E2673F
:101AB000420708D5DA0706D0236804221A62E26FCB
:101AC00042F00202E26702070AD501F02002324327
:101AD00006D0236808221A62E26F42F00802E26729
:101AE000020509D54A0107D523684FF400621A623E
:101AF000E26F42F02002E267E26F002A2ED08006F9
:101B000005D5880603D5216E09B120468847E06FC8
:101B100021688968490602D410F0280F20D0204699
:101B200000F06AFC20688168490614D5816821F0BC
:101B300040018160E06E70B11E498163E06EFEF786
:101B400077FE00280AD0E06E816B00E02046BDE8F9
:101B5000F041084709E02046FFF77BFFBDE8F08130
:101B60002046FFF776FFE567F8E7C60209D55B0276
:101B700007D54FF4801010622046BDE8F041FFF712
:101B800067BF030605D50B0603D5616E0029DDD1BD
:101B9000E4E74006E2D54806E0D51168204621F08A
:101BA0004001116020216167656600F0CEF8D5E73D
:101BB00020010004E523000810B5040002D0606F86
:101BC00010B107E0012010BD002084F8700020460D
:101BD00000F026F8242060672068016821F00101E8
:101BE0000160204600F018FC0128ECD0606A10B1BA
:101BF000204600F067FB2068416821F49041416075
:101C00002068816821F02A0181602068016841F024
:101C1000010101602046BDE8104000F0B7BB0000A4
:101C200010B586B0044614216846FEF708FB164935
:101C30002068884226D11548016E41F48041016632
:101C4000016E01F480410591C16C41F00201C16453
:101C5000C06C694600F002000590C0200090022090
:101C60000190002002900320039007200490084870
:101C7000FEF706FE002211462520FFF755F9252024
:101C8000FFF744F906B010BD0038014000100240D3
:101C9000000400482DE9F8430446406F1F461646ED
:101CA0000D4620284FD1CDB1C6B194F8700001285F
:101CB00049D0012084F870004FF00008C4F87C80FF
:101CC00021206067FEF7AEFEA4F850608146A4F8BC
:101CD0005260A068B0F5805F03D004E00120BDE849
:101CE000F883206928B12E465FF0000584F87080E3
:101CF00010E00026FAE78021204600F07FFCB8B90A
:101D0000C6B116F8010B21680885B4F85200401ED0
:101D1000A4F85200B4F852004B464FF0000200976E
:101D20000028E8D14FF04001204600F067FC30B1B8
:101D30000320D4E735F8020BC0F30800E3E72020C6
:101D400060670020CBE70220C9E77047FEE700008C
:101D50000148FEF7C1BE00001400002001688A6936
:101D6000D243920701D400228A6200688169C94384
:101D7000C90703D0816941F001018161704700000A
:101D80002DE9F0410446006890460E468069C04344
:101D9000C00633D40025202720688069C043800610
:101DA00015D5701CF8D0FEF73DFEA0EB0800B04240
:101DB00001D8002EF0D154F8440F40F0200044F830
:101DC00004096770A57025700120BDE8F0812168C5
:101DD0001020C8612068C7612046FFF7BFFF54F894
:101DE000440B4168064A11404160206840F00400FD
:101DF00044F820096777A5772577E5E70020E4E731
:101E000000E800FEF0B50568059C68684FF4806640
:101E1000064FC1F3090106EA545641EA02413E4326
:101E20001943B043214308436860F0BDFF63FF03DB
:101E30002DE9F0411D4617460E460446DDF8188090
:101E400008E0681C06D0FEF7EDFDA0EB0800A842F4
:101E50000BD855B12068806936EA000012D0002006
:101E6000B842EED00020BDE8F08154F8440F40F0B5
:101E7000200044F80409202060700020A070207029
:101E80000120F0E70120EBE72DE9F0410026904624
:101E90000F460446202525E0424639462046FFF7F6
:101EA0006FFF78BB20688069C043800613D4206828
:101EB0008169C943490701D4218DC1B9C56154F86D
:101EC000440B4168104A1140416044F8206965772D
:101ED000A677267716E0FEF7A5FDA0EB0800B8422E
:101EE00008D83FB120688069C0434007D4D400209F
:101EF000BDE8F08154F8440F40F0200044F8040994
:101F0000657026700120F3E700E800FE70B5164604
:101F10000D4604460DE0324629462046FFF730FFC5
:101F200008B1012070BDFEF77DFD801BA84207D8D7
:101F300035B120688069C0438006ECD4002070BDB4
:101F400054F8440F40F0200044F804092020607049
:101F50000020A0702070E4E770B516460D460446D8
:101F60000FE0324629462046FFF70AFF08B101205C
:101F700070BD681C05D0FEF755FD801BA84207D830
:101F800035B120688069C0438007EAD4002070BD65
:101F900054F8440F40F0200044F8040920206070F9
:101FA0000020A0702070E2E7134810B511490160CD
:101FB00040F61461416000210122C0E90212016172
:101FC00041618161C1610162FEF78EFD08B172B6A7
:101FD000FEE700210848FEF72BFD08B172B6FEE7C8
:101FE00000210548FEF74FFD002801D072B6FEE73C
:101FF00010BD000000540040140000200C4810B533
:102000000A4901604FF4E1314160002181600C22F6
:10201000C160C0E904128161C16101624162FFF7E0
:10202000CBFD002801D072B6FEE710BD003801409C
:1020300060000020FEE7FEE7704700002DE9F04158
:10204000444C05468846E0680026810728680DD084
:10205000E16801F00301814216D1A8B1E068696826
:10206000C0F30210401C88420ED120E0012804D0A9
:10207000022805D0032807D108E02168890701E07C
:1020800021684905002907DB01265FE021688903F3
:1020900002D421684903F5E7E1686A686FF00F032D
:1020A00021F0730103EB021211430143E160206848
:1020B00020F080602060FEF7B5FC074605E000BF19
:1020C000FEF7B0FCC01B022837D820680001F7D407
:1020D000B8F1000F18D0B8F1010F1DD0287D4FF0D6
:1020E0007E41400801EB4060A96840EA0120216977
:1020F000194A114008432061206840F08060206048
:10210000FEF790FC07461AE0A868297B000240EA27
:10211000C1602169114AECE7288A1149400801EBA6
:102120004050A96840EA012021690E4AE1E700BF5A
:10213000FEF778FCC01B022801D9032606E02068C0
:102140000001F5D52069A969084320613046BDE842
:10215000F081000000100240FF80FFF9FF80FF07C0
:102160000000E0FFFF809FFFF8B51C4D06460024ED
:10217000A86DC00002D5FEF73DFF0DE0A86D40F050
:102180008050A865A86D00F080500090FEF732FFE7
:10219000A96D21F08051A965B0F5007F04D0802E93
:1021A00007D94FF003040AE0802E08D9A02E01D8E9
:1021B00004E001D1022402E0702E00D1012408487D
:1021C000016821F0070121430160006800F0070069
:1021D000A04201D00120F8BD0020F8BD001002404F
:1021E000002002407047FEF741BE000010B5ACB0C1
:1021F000442115A8FEF723F8142126A8FEF71FF89E
:1022000054216846FEF71BF8FEF7FCFE1B4850F809
:10221000901F21F018010160142015900120002466
:102220001790CDE91B0460201D901F9415A8FFF79F
:1022300045F908B172B6FEE70F20CDE926042894CF
:102240002994002126A82A94FFF732F808B172B623
:10225000FEE74120009008940B946846FEF7E2FEEA
:1022600008B172B6FEE74FF40070FEF78FFE08B1BA
:1022700072B6FEE7FEF7CEFE2CB010BD0010024095
:102280000D48016841F4700101600C48016841F09B
:1022900001010160002181600268094B1A4002605F
:1022A0008214C260026822F48022026081610249C5
:1022B000C00380390860704788ED00E000100240DC
:1022C000FFFFF6EA90F82410C90706D001684A68B3
:1022D000836A22F400321A434A6090F82410890776
:1022E00006D501684A68C36A22F480321A434A60FC
:1022F00090F82410490706D501684A68036B22F458
:1023000080221A434A6090F82410090706D5016814
:102310004A68436B22F400421A434A6090F8241042
:10232000C90606D501688A68836B22F480521A4375
:102330008A6090F82410890606D501688A68C36B04
:1023400022F400521A438A6090F82410490611D5ED
:1023500001684A68036C22F480121A434A60016CD7
:10236000B1F5801F06D101684A68436C22F4C002AF
:102370001A434A6090F82410090606D501684A6895
:10238000806C22F4002202434A607047F8B50026B0
:102390000446C667FEF746FB0546206800686FF0F6
:1023A0007E47000708D52B4600224FF40011204637
:1023B000009700F023F960B92068006840070AD54B
:1023C0002B4600224FF480012046009700F016F9BA
:1023D00008B10320F8BD20206067A06784F8706012
:1023E0000020F8BD10B5806A0021A0F85A10A0F8AE
:1023F0005210FFF72EFB10BD01680A6822F490729C
:102400000A6001688A6822F001028A6020218167DF
:1024100000210166704700002DE9F0410446016883
:1024200080682269E3691043626900251A431043FA
:102430006B4F0A686B4B1A4002430A602068416880
:10244000E26821F44051114341602168A069B9421A
:1024500001D0226A10438A6822F4306202438A6003
:102460006149236861488B420DD1D0F8880010F093
:10247000030006D0012838D0022834D0032821D107
:1024800035E001211FE05A498B420BD1D0F888007A
:1024900010F00C0025D0042827D0082823D00C28C1
:1024A00010D124E0BB420DD1D0F8880010F4406078
:1024B00017D0B0F5806F18D0B0F5006F13D0B0F51D
:1024C000406F14D010214B4800264FF40042BB420D
:1024D0002FD171B1022912D004290DD0082973D14E
:1024E00025E00021EFE70221EDE70421EBE70821D9
:1024F000E9E7FEF76DFF01E0FEF78EFFF0B36268DB
:1025000002EB420181425FD8B0EB023F5CD8010E82
:10251000000273084FEA3207C01959410023FDF742
:1025200053FE354AA0F54071914251D94CE0104616
:10253000E5E7E3694FF6EF77934229D1092943D2C2
:10254000DFE801F005080E420B4242422400FEF78C
:102550003FFF04E0FEF74EFF01E0FEF75DFF68B1CC
:102560004100606801EB5001B1FBF0F080B2A0F1D6
:102570001001B94228D84FF6F07100E02AE001407E
:10258000C0F3420001432068C16023E01046E7E742
:10259000092919D2DFE801F005080E180B181818E0
:1025A0001A00FEF715FF04E0FEF724FF01E0FEF736
:1025B00033FF78B1616800EB5100B0FBF1F080B2FD
:1025C000A0F11001B94203D9012503E01046F1E75B
:1025D0002168C860266628466666BDE8F08100006E
:1025E00000800040F369FFEF003801400010024016
:1025F000004400400024F400FFFC0F002DE9F047E8
:102600009A4617460E4604464FF000094FF0200840
:10261000089D39E0681C37D0FEF704FAA0EB0A00E9
:10262000A84222D80DB32068016849072CD5C0699B
:10263000C043000528D421684FF400600862206878
:10264000016821F4D07101602068816821F00101E6
:102650008160C4F87480C4F87880C4F87C8000BFBE
:1026600084F870900320BDE8F0872068016821F4A9
:10267000D07101602068816821F001018160C4F897
:102680007480C4F87880EBE72068C06936EA0000FF
:1026900004D00020B842BDD00020E4E70120F9E7D3
:1026A0000148FFF7D7B9000060000020FEE70000F6
:1026B0000FB4084B10B504A902AA039800F0F2F871
:1026C000044602A9002000F073FC204610BC5DF80F
:1026D00014FB0000B12F00080907090E002804DBD5
:1026E00000F1E02080F80014704700F00F0000F1C6
:1026F000E02080F8141D704702E008C8121F08C1CE
:10270000002AFAD170477047002001E001C1121F72
:10271000002AFBD1704700002DE9FF5F82B0002145
:10272000DDE90430020DDDF840B0034318D044F673
:102730001050A2F2FF3242431514119801281FD005
:10274000A5EB0B00401C5FEA000A4FF000064E4F5D
:10275000DFF83891B046504615D5CAF1000413E0B1
:10276000119801244AA3012801D16FEA0B010298B4
:10277000119AC0E90031C0E9024206B000F08EB8FB
:10278000CBF10000DFE704460021404A491842EB44
:102790000450CDE9001012E0E00707D032463B4676
:1027A00040464946FDF705FE8046894632463B468F
:1027B00010461946FDF7FDFD06460F466410002C35
:1027C000EAD1DDE90401DDE90023BAF1000F06DA00
:1027D000FDF7EFFD42464B46FDF7EBFD05E0FDF74B
:1027E00074FF42464B46FDF770FF04460E4600223A
:1027F000284BFDF7F1FF03D84FF0FF30014607E00B
:102800000022254B20463146FDF724FDFDF7CCFF85
:10281000102409E0002C0ADB0A220023FDF7D4FC77
:10282000039B30321A55641E50EA0102F2D1641C37
:10283000039AC4F111031444119A012A03D001220E
:1028400008430DD10AE0084304D000204FF0110BDB
:10285000119072E7A3EB0B056D1E0DE05B4504DDE7
:102860004FF0000205F1010504E003DA4FF0000229
:10287000A5F10105002AECD002981199C0E90231B6
:10288000C0E9004579E70000000014400000F03F77
:10289000300000000000F0430000E03F30BCBDE825
:1028A000C09F00002DE9FF4F95B09A468846064626
:1028B0000025EEE1252877D100242746F94A012199
:1028C000039400E0044316F8013F203B01FA03F0B3
:1028D0001042F7D130782A2811D06FF02F033078CA
:1028E000A0F13002092A16D8039A44F0020402EB40
:1028F000820203EB42021044761C0390EFE758F883
:10290000042B0392002A03DA504244F4005403904B
:1029100044F00204761C30782E2816D116F8010FE8
:1029200044F004042A280DD06FF02F023078A0F173
:102930003003092B09D807EB870302EB4303C718C1
:10294000761CF3E758F8047B761C30786C280FD09F
:1029500006DC4C2817D068280DD06A2814D104E072
:10296000742810D07A280FD10DE044F400140AE046
:1029700044F4801401E044F440147278824202D19D
:1029800004F58014761C761C307866280BD013DC96
:10299000582877D009DC002875D04528F6D046287D
:1029A000F4D047281AD193E118E0632835D0642881
:1029B00079D0652812D18BE1702873D008DC6728A4
:1029C000F1D069286FD06E280DD06F2806D1ACE009
:1029D00073282CD0752874D0782853D05246179974
:1029E00090476D1C54E1C4F30250022809D003281B
:1029F0000DD0D8F8001004280DD00D6008F104089F
:102A000046E1D8F80010EA17C1E90052F6E7D8F815
:102A100000100D80F2E70D70F0E718F8041B8DF838
:102A2000001000208DF80100EB46012003E058F86B
:102A300004BB4FF0FF3061074FF0000102D40DE0FE
:102A400009F101018946B9420FDA8145F8DB1BF82B
:102A500009100029F4D108E009F1010189468142F9
:102A6000FADB1BF809100029F6D103985346A0EBB6
:102A7000090721463846179A00F083FA284400EBEC
:102A8000090507E044E008E10DE01BF8010B5246A0
:102A900017999047B9F10109F7D2534621463846B4
:102AA000179AF2E039E00A21C4F302524FF0000B0A
:102AB0000091022A06D058F8040BC117032A09D046
:102AC0000AE023E008F1070020F00702F2E8020123
:102AD000904605E000B2C117042A01D140B2C117E7
:102AE000002906DA0A460021404261EB02012D224C
:102AF00002E0220504D52B228DF80420012203E0F8
:102B0000E20701D02022F7E7914657E00A2100E0D2
:102B100010214FF0000B00910BE010214FF0000B43
:102B200044F004040827009103E008204FF0000B54
:102B30000090C4F30252022A05D058F8040B002179
:102B4000032A08D008E008F1070020F00702F2E8A5
:102B50000201904603E080B2042A00D1C0B24FF0D7
:102B6000000922072AD53278702A07D0DDF800C084
:102B70008CF0100C5CEA0B0C05D00EE040228DF8B6
:102B80000420012208E050EA010306D030238DF82A
:102B900004308DF8052002229146009B83F0080343
:102BA00053EA0B030AD150EA010201D1620705D5AD
:102BB00030228DF804204FF001097F1E3278582A08
:102BC00004D039A20C920CAA02920BE03BA2F9E7C6
:102BD0005B46009AFDF7F8FA0C9B9B5C029A521E2A
:102BE0000292137050EA0102F2D1029804A9081A65
:102BF00000F1200B600702D524F4803400E00127A7
:102C00005F4502DDA7EB0B0000E0002000EB0B01AD
:102C1000009003984944401A0390E00306D45346B9
:102C20002146179A039800F0ACF90544002706E006
:102C300001A85246C05D179990476D1C7F1C4F45F7
:102C4000F6DBE0030CD553462146179A039800F0B3
:102C500098F9054404E030205246179990476D1CBE
:102C60000099481E00900029F5DC08E002980299BE
:102C700052460078491C0291179990476D1CBBF190
:102C80000001ABF1010BF1DC5BE100F068F90544F8
:102C9000761C307800287FF40DAE19B0284600F07D
:102CA0005BB9000009280100303132333435363742
:102CB0003839616263646566000000003031323388
:102CC0003435363738394142434445460000000028
:102CD000600700D4062708F1070020F00700F0E89D
:102CE0000223804603F0004C5FEA0C0001D097A05D
:102CF00009E0200501D596A005E0E00701D095A0E8
:102D000001E0AFF24C001390307823F000436528C7
:102D10000CD006DC452809D046281DD047287FD195
:102D20003BE0662818D067287AD136E00021112FC1
:102D300001DB112000E0781CCDE9000104A90CA8FA
:102D4000FFF7EAFCDDE90D010C9A4FF0000B07F1EB
:102D50000109109200914EE04FF000400097CDE93C
:102D6000011004A90CA8FFF7D7FCDDE90D020C9BAC
:102D70000F994FF0000B91461093009211B9791CF6
:102D800000EB0109B7EB090003D4C0F1FF3B07F1E9
:102D90000109A9EB0700019042E0012F00DA0127A9
:102DA0000021112F01DD112000E03846CDE900019E
:102DB00004A90CA8FFF7B0FCDDE90D010C9A009105
:102DC0004FF0000BB946109221070FD4009A4A45E4
:102DD00003DA914601E0A9F10109B9F1010F05DD1E
:102DE000109AA9F10101515C3029F4D0B84202DAFD
:102DF00010F1040F03DA0121CDE9011010E00028E1
:102E000003DC8344A9EB000102E0411C494500DDDD
:102E10008946A0EB0B00401C01904FF0004002904F
:102E2000200705D40198484502DB4FF0FF300190A0
:102E300000208DF84B0002980DF14B07B0F1004FC8
:102E400025D002200C902B200D90029800280CDA3F
:102E5000404202902D200D9007E00A210298FDF7D4
:102E600059FB3031029007F8011D0C99481E0C9057
:102E70000029F2DC02980028EFD1791E0D98087025
:102E8000307800F0200040F0450007F8020D11A84E
:102E9000C01BC01D02901398007800B1012000EB08
:102EA0000901019801EBE071029801440398401A6E
:102EB000401E0390E00306D453462146179A039818
:102EC00000F05FF805441398007818B1524617993E
:102ED00090476D1CE00323D553462146179A03986B
:102EE00000F04FF805441BE0BBF1000F07DB009832
:102EF000584504DD1098179910F80B0001E0179958
:102F000030205246904701980BF1010B401E05F10D
:102F10000105019004D12E205246179990476D1C4F
:102F2000B9F10001A9F10109DEDC05E017F8010B98
:102F30005246179990476D1C0299481E029000292D
:102F4000F4DC53462146179A03989EE62D000000B4
:102F50002B0000002000000030BCBDE8C08F2DE930
:102F6000F041044600251E461746880404D405E0B7
:102F700039462020B0476D1C641EF9D52846BDE8AF
:102F8000F0812DE9F041044600251E469046C80315
:102F900001D5302700E02027880404D505E041460C
:102FA0003846B0476D1C641EF9D52846BDE8F0814F
:102FB0000A68531C0B601070704700002DED048BE5
:102FC00092B0FDF75BFFFFF711F95148C16C41F07A
:102FD0000401C164C16C01F004010091C16C41F0B5
:102FE0000101C164C16C01F001010091C16C41F0AB
:102FF0000201C164C06C00F002000090FEF7D4FF33
:10300000FEF7FCFF434F0E26DFF80C910DF104088C
:103010000DF13C0A4FF03C0B0A249FED409B112020
:103020008DF83C0012208DF804003868016841F0EA
:103030002001016037488DF840605D468DF841B051
:10304000022310AAD0214C380094FDF73FFE3148EE
:103050008DF844608DF84550022311AAD0214C38D8
:103060000094FDF733FE2B4801230FAAD0214C38E2
:103070000094FDF72BFE274801230AF10102D1211C
:103080004C380094FDF78CFD9DF83D004D4600EE58
:10309000100A20480123B8EE400A01AAD02189ED88
:1030A000000A4C380094FDF711FE1A48012308F17C
:1030B0000102D1214C380094FDF772FD9DF8050006
:1030C00080098DF80500FDF7E9F953EC192BFDF7A0
:1030D00070F941EC180B2868FDF7EDF953EC182B4B
:1030E000FDF7B8F8FDF7FAF92860FDF7E4F941ECCF
:1030F000100B0CA153EC102B02A8FFF7D9FA4FF0DC
:10310000FF33322202A90348FEF7C4FD87E700001F
:1031100000100240600000200000002000000000BD
:103120000000D03F54656D70657261747572653AC8
:10313000202566200A0000000000000000000000BA
:103140000102030406070809A0860100400D0300E0
:10315000801A060000350C0040420F0080841E00DB
:1031600000093D0000127A000024F40000366E01D0
:103170000048E801006CDC020000000001020304CA
:10318000A03100080000002014000000F82600080C
:10319000B431000814000020CC0400000827000807
:1031A000000000000100000010000000000000000E
:0431B00000093D00D5
:040000050800018D61
:00000001FF
