:020000040800F2
:1000000030050020A5010008371900084D18000828
:1000100035190008B9020008252300080000000077
:10002000000000000000000000000000E51A0008C9
:10003000BB0200080000000039190008E71A000898
:10004000BF010008BF010008BF010008BF01000890
:10005000BF010008BF010008BF010008BF01000880
:10006000BF010008BF010008BF010008BF01000870
:10007000BF010008BF010008BF010008BF01000860
:10008000BF010008BF010008BF010008BF01000850
:10009000BF010008BF010008BF010008BF01000840
:1000A000BF010008BF010008BF010008BF01000830
:1000B000BF0100080000000000000000BF010008B0
:1000C000BF0100080000000000000000BF010008A0
:1000D00000000000A1220008BF010008000000008D
:1000E000BF010008BF010008000000000000000080
:1000F0000000000000000000000000000000000000
:10010000000000000000000000000000BF01000827
:100110000000000000000000BF010008BF0100084F
:10012000BF010008BF010008BF010008BF010008AF
:10013000BF010008000000000000000000000000F7
:10014000BF010008BF010008BF010008BF0100088F
:10015000BF010008BF010008BF010008BF0100087F
:10016000BF010008BF010008BF0100080000000037
:10017000BF010008BF0100080000000000000000EF
:10018000BF010008BF010008BF010008DFF810D060
:1001900000F080F80048004765230008AFF30080B6
:1001A000300500200648804706480047FEE7FEE786
:1001B000FEE7FEE7FEE7FEE7FEE7FEE7FEE7FEE717
:1001C0007D1B00088D0100082DE9F05F0546002029
:1001D00092469B4688460646814640241BE02846B8
:1001E00041464746224600F044F853465A46C01A54
:1001F000914110D311461846224600F02BF82D1AD3
:1002000067EB01084F4622460120002100F022F84A
:1002100017EB00094E41201EA4F10104DFDC484623
:1002200031462A46434600F000B830BCBDE8C09FC6
:10023000D2B201E000F8012B491EFBD27047002228
:10024000F6E710B513460A4604461946FFF7F0FFD5
:10025000204610BD202A04DB203A00FA02F10020DB
:1002600070479140C2F1200320FA03F319439040F4
:100270007047202A04DB203A21FA02F0002170475F
:1002800021FA02F3D040C2F12002914008431946FE
:1002900070470000064C074D06E0E06840F001039F
:1002A00094E8070098471034AC42F6D3FFF772FF8A
:1002B0001C2400083C240008FEE7704710B590F8A5
:1002C00025100024022903D00421C16301241AE06F
:1002D00001680A6822F00E020A6001680A6822F0CA
:1002E00001020A6090F84410036C01F01C02012125
:1002F00001FA02F25A6080F82510002180F82410DB
:10030000816B01B18847204610BD00002DE9FC4FEC
:10031000DFF880A1002301250AF1040B03244FF02C
:100320000F0C0BF1040EAEE005FA03F632406FD06D
:100330004F68012F05D0022F03D0112F01D0122FAB
:1003400017D1D0F808905F0004FA07F829EA0809E5
:100350000097D1F80C8008FA07F848EA0908C0F8B5
:1003600008804768B7430E79C6F300169E403E43A7
:100370004660C6684FEA430804FA08F7BE4301978F
:100380008F6807FA08F73743C7604E68022E01D01E
:10039000122E13D1DE0800EB86060096366A5F0740
:1003A000FF0E0CFA07F926EA0906D1F8109009FAAF
:1003B00007F949EA0609009EC6F820900768019EE1
:1003C000B7430E7906F0030606FA08F63E430660C8
:1003D0004E68F60056D5304E376E47F00107376647
:1003E000366E23F0030706F0010600962B4E3E44BE
:1003F000B146B6689F074FEA17780CFA08F7BE4374
:10040000B0F1904F05D0264FB84204D1012708E043
:1004100038E0002705E0234FB84201D1022700E071
:10042000072707FA08F73743C9F80870DAF80060B9
:100430005746D1F8048096435FEAC83800D5164382
:100440003E60DBF800605F46D1F8048096435FEAC7
:10045000883800D516433E60DEF800607746D1F854
:10046000048096435FEAC82800D516433E60094FD2
:100470000C373E68D1F8048096435FEA882800D59F
:1004800016433E605B1C0A6832FA03F67FF44CAFF9
:1004900000F00AB8000401400010024000000140D2
:1004A00000040048000800481CBCBDE8E08F0000C4
:1004B00001488068704700005400002002488168AD
:1004C00002781144816070475400002010B5002468
:1004D000032000F071F8002000F008F808B10124B2
:1004E00001E000F025F8204610BD000070B50E4E6A
:1004F00005460024307898B14FF47A71B1FBF0F0E2
:100500000A490968B1FBF0F000F0B6FD40B9102DC2
:1005100006D200222946501E00F02EF8756000E039
:100520000124204670BD000054000020600000201F
:10053000094808B5016E41F001010166016E01F044
:1005400001010091816D41F080518165806D00F065
:100550008050009008BD000000100240002809DB18
:1005600000F01F02012191404009800000F1E020CD
:10057000C0F8001170470000F0B40E4B1B680C4629
:10058000C3F30223C3F10705042D00D90425191D67
:10059000072901D2002300E0DB1E012606FA05F13F
:1005A000491E214099409E40761E16403143F0BCC2
:1005B00001F0B9BE0CED00E0064900F00702086842
:1005C0004FF6FF03184040EA0220034A1043086038
:1005D000704700000CED00E00000FA051649B0F588
:1005E000007F0868C0F3412009D0022805D00868C0
:1005F00020F4C06040F4806008600020704701284B
:10060000FBD0086820F4C06040F4007008600B481C
:100610003222006850430A4AB0FBF2F0401C00E06E
:10062000401E4A69520501D50028F9D148694005A4
:10063000E3D50320704700000070004060000020F8
:1006400040420F000248006800F4C060704700009C
:10065000007000400248016841F4807101607047F9
:10066000007000400248016841F0040101607047D9
:10067000001002402DE9F84F0446002700889C4DE9
:100680003E46000515D5E06B60B1B0F5000F04D013
:10069000B0F5400F2BD001270AE0E86840F4803025
:1006A000E86024E00021201D01F048F907001ED079
:1006B0003E462068800338D5A86D4FF00008C00082
:1006C00009D4A86D40F08050A865A86D4FF00108CE
:1006D00000F080500090DFF81CA2DAF8001041F41E
:1006E0008071CAF80010FFF7E3FE814610E0D5F8EC
:1006F0008800E16B20F440000843C5F88800D8E783
:10070000FFF7D6FEA0EB0900022801D9032704E079
:10071000DAF80000C005F3D5EFB33E46B8F1000F9C
:1007200003D0A86D20F08050A8652078C00707D0BE
:10073000D5F88800216A20F003000843C5F8880036
:100740002078800707D5D5F88800616A20F00C0072
:100750000843C5F888002078800607D5D5F88800BA
:10076000A16A20F440600843C5F88800208880050D
:1007700007D5D5F88800616B20F440200843C5F800
:1007800088002088400509D5D5F88800A16B20F4A1
:100790004010084300E02EE0C5F8880020784006AD
:1007A00007D5D5F88800E16A20F440500843C5F821
:1007B00088002088C00507D5D5F88800216B20F473
:1007C00040300843C5F8880020884FF00067800457
:1007D0004FF080684ED5D5F88800216C20F040603D
:1007E0000843C5F88800206CB8423BD1E86840F463
:1007F0008010E8603EE0D5F8900010F4407014D00E
:10080000216D814211D0D5F89000D5F8901020F4D8
:10081000407041F48031C5F89010D5F8901021F463
:100820008031C5F89010C5F89000C00711D0FFF7CF
:100830003FFE074641F2883907E000BFFFF738FE68
:10084000C11B494501D9032668E7D5F89000800708
:10085000F4D5D5F89000216D20F440700843C5F818
:1008600090005BE7404505D10121201D01F066F8AD
:1008700000B106462068400317D5D5F88800616CA2
:1008800020F040600843C5F88800606CB84204D18D
:10089000E86840F48010E86007E0404505D1012198
:1008A000201D01F04BF800B106462088400411D508
:1008B000D5F88800A16C20F040500843C5F88800A6
:1008C000A06CB0F1805F05D10221201D01F036F847
:1008D00000B106462088000406D555F8880FE16C63
:1008E00020F0804008432860304600F005B8000042
:1008F000001002400070004018BCBDE8E08F00000E
:100900002DE9F0470F46050058D0404E306800F002
:100910000700B84209D2306820F007003843306041
:10092000306800F00700B84248D12878384CC0073A
:100930002CD06868032811D0022812D0216898B101
:10094000490500293ADAA16821F003010143A160B9
:10095000FFF7AEFD804641F2883910E02168890139
:10096000EFE721688903ECE78907EAE7FFF7A0FDD5
:10097000A0EB0801494502D90320BDE8F087A06833
:10098000696800F00C00B0EB810FEFD12878800788
:1009900005D5A068A96820F0F0000843A060306881
:1009A00000F00700B8420BD9306820F00700384348
:1009B0003060306800F00700B84201D00120DCE769
:1009C0002878400705D5A068E96820F4E06008436E
:1009D000A0602878000706D5A068296920F4605037
:1009E00040EAC100A06000F03FF8A168094AC1F3E5
:1009F0000311515C01F01F01C84007490860074816
:100A00000068BDE8F047FFF771BD0000002002401C
:100A100000100240D423000860000020580000208D
:100A20000548064900688968054AC1F30221515CFE
:100A300001F01F01C8407047600000200010024014
:100A4000142400080548064900688968054AC1F36E
:100A5000C221515C01F01F01C840704760000020B6
:100A6000001002401424000870B5254900231846E0
:100A70008A68CC6812F00C0204F00306214C4FEA9D
:100A8000640509D00C2A05D0042A32D0082A00D1E6
:100A9000284670BD012E10D10B681B0704D4D1F875
:100AA0009430C3F3032302E00B68C3F30313164E21
:100AB00056F82330DAB10C2AEBD1C86800F00300F5
:100AC000022818D0032818D01846CA68CB68C2F389
:100AD0000212C3F306234343521CB3FBF2F2C8686D
:100AE000C0F34160401C4000B2FBF0F070BD1846FE
:100AF00070BD204670BD2046E7E72846E5E70000C8
:100B0000001002400024F400E42300082DE9F8431B
:100B100004006FD0FE4DA86800F00C06E86800F0F5
:100B200003072078C00664D576B10C2E01D1012FC1
:100B30000AD0A069002828687AD040F00100286017
:100B4000FFF7B6FC80465DE02868800702D5A06903
:100B50000028DED0216A2868000703D5286800F045
:100B6000F00004E0D5F89400F02202EA101081426F
:100B700016D9084600F078FF00283BD1286840F0DD
:100B8000080028602868216A20F0F00008432860E7
:100B90006868E16920F47F4040EA0120686016E05F
:100BA000286840F0080028602868216A20F0F000DA
:100BB000084328606868E16920F47F4040EA01202A
:100BC000686026B9206A00F04FFF0028D5D1FFF7F2
:100BD0004BFFA968CF4AC1F30311515C01F01F011B
:100BE000C840CD490860CD480068FFF77FFC002869
:100BF0007ED12EE0CAE000BFFFF75AFCA0EB080050
:100C0000022876D828688007F6D5286840F00800C2
:100C100028602868216A20F0F0000843286068688E
:100C2000E16920F47F4040EA0120686011E0FFE7BD
:100C300020F001002860FFF73BFC804606E000BF83
:100C4000FFF736FCA0EB08000228DAD828688007F6
:100C5000F6D42078C00740D0082E18D00C2E01D131
:100C6000032F14D06068B0F5803F17D0B0F5A02FE7
:100C7000286817D020F480302860286820F480206D
:100C800028606068E0B1FFF713FC804614E0286834
:100C9000800322D56068002878D01EE0286840F4E0
:100CA0008030EDE740F480202860F7E7FFF700FC94
:100CB000A0EB08006428A4D828688003F6D50CE0CF
:100CC000FFF7F6FB804605E0FFF7F2FBA0EB08001C
:100CD000642896D828688003F6D4207880073BD50E
:100CE000042E11D00C2E01D1022F0DD0E06801E0AE
:100CF000B6E1FFE0002828681ED040F4807028602C
:100D0000FFF7D6FB07460CE0286840050CD5E068E5
:100D10000028C1D008E000BFFFF7CAFBC01B0228B3
:100D200093D828684005F7D56868217C20F0FE40FC
:100D300040EA016068600FE020F480702860FFF7EF
:100D4000B7FB074605E000BFFFF7B2FBC01B022858
:100D5000B1D828684005F7D42078000729D5606904
:100D60000028D5F8940012D040F00100C5F8940096
:100D7000FFF79EFB074604E0FFF79AFBC01B022823
:100D800099D8D5F894008007F6D512E02BE120F031
:100D90000100C5F89400FFF78BFB074605E000BF94
:100DA000FFF786FBC01B022885D8D5F89400800782
:100DB000F6D42078400766D5A86D0027C00008D477
:100DC000A86D40F08050A865A86D012700F0805004
:100DD000009053480168C90512D40168814641F466
:100DE00080710160FFF764FB804605E0FFF760FB60
:100DF000A0EB080002287DD8D9F80000C005F5D581
:100E0000A068012816D00528D5F8900017D020F04A
:100E10000100C5F89000D5F8900020F0040000BF54
:100E2000C5F89000A06841F28839C0B1FFF740FBD7
:100E300080460FE0D5F8900040F00100F0E740F068
:100E40000400C5F89000F5E7FFF732FBA0EB0801BE
:100E500049454FD8D5F890008007F5D50EE0FFF74B
:100E600027FB804606E000BFFFF722FBA0EB08014E
:100E700049453FD8D5F890008007F5D41FB1A86D3B
:100E800020F08050A8652078800628D5606A002868
:100E9000D5F8980012D040F00100C5F89800FFF78F
:100EA00007FB074605E000BFFFF702FBC01B022857
:100EB00020D8D5F898008007F6D510E020F0010082
:100EC000C5F89800FFF7F4FA074604E0FFF7F0FAD8
:100ED000C01B02280ED8D5F898008007F6D4A06A67
:100EE000A8B1022824D00C2E7DD0286820F0807074
:100EF000286000E0B3E02868000103D4E86820F02F
:100F00000300E860E86807490840E8600CE09FE0FB
:100F100000100240D4230008600000205800002088
:100F200000700040FFFFEEFEFFF7C2FA044699E0B2
:100F3000E868E26A00F00301914226D1216B00F0DB
:100F400070020901103991421FD1626B00F4FE4119
:100F5000B1EB022F19D194F8382000F07841B1EBB1
:100F6000C26F12D1A18F00F4C00249084905A1F552
:100F70000011914209D194F8401000F0C060490876
:100F80004906A1F1007181424BD00C2E6FD0286828
:100F900040016CD4286820F080702860FFF788FA40
:100FA000064604E0FFF784FA801B022857D8286819
:100FB0008001F7D4F4E90B016FF00F0202EB01118D
:100FC0000843218A5204490802EB4151A26841EAD0
:100FD00002210843217D4FF07E42490802EB416126
:100FE0000843217B00E042E040EAC160E968214A11
:100FF00011400843E860286840F080702860E86885
:1010000040F08070E860FFF753FA044605E000BF47
:10101000FFF74EFA001B022821D828688001F7D577
:1010200023E02868800120D4286840F08070286080
:10103000E86840F08070E860FFF73AFA044604E0A0
:10104000FFF736FA001B022809D828688001F7D577
:101050000BE000BFFFF72CFA001B022802D9032087
:10106000BDE8F88328688001F4D40020F8E7012067
:10107000F6E700008C809D0110B5401EB0F1807F26
:1010800001D3012010BD4FF0E02460610F216017F3
:1010900001F049F90020A06107202061002010BD67
:1010A00030B590F83C20012A37D0012280F83C204E
:1010B000CA688C6822F4407222434C6822F4806231
:1010C00022430C6822F4006222430C6922F480520D
:1010D00022434C6922F4005222438C6A22F480425B
:1010E00022430C8B22F4702242EA04420C4D046825
:1010F0000023AC420CD18D8C22F4700242EA0552DE
:10110000CD6922F080722A43096A22F000720A43F4
:10111000626480F83C30002030BD022030BD000009
:10112000002C0140F0B590F83C20012A29D0012480
:1011300080F83C40022280F83D2003685A689D6890
:10114000114EB34203D122F470074A683A4322F0A9
:1011500070070A683A435A600268B24205D0B2F199
:10116000804F02D0094B9A4204D1896825F0800350
:101170001943916080F83D40002180F83C100846FA
:10118000F0BD0220F0BD0000002C014000400140F5
:1011900010B586B0044614216846FFF750F80F4991
:1011A0002068884217D10E48C16C41F00101C1642A
:1011B000C06C694600F0010005904FF4807000900B
:1011C00002200190002002900390012004904FF033
:1011D0009040FFF79BF806B010BD0000002C0140C6
:1011E0000010024070B5044690F83C000D460128FE
:1011F0000BD0012084F83C000C2A45D007DC5AB102
:10120000042A1BD0082A78D12CE0022070BD102AB5
:101210004ED0142A71D15DE0206800F015FD2068E1
:10122000816941F0080181612068816921F0040130
:101230008161206881692A69114311E0206800F00A
:101240003FFD2068816941F4006181612068816906
:1012500021F480618161206881692A6941EA022163
:1012600081614AE0206800F067FD2068C16941F0B3
:101270000801C1612068C16921F00401C1612068D1
:10128000C1692A69114311E0206800F08FFD2068D0
:10129000C16941F40061C1612068C16921F48061C4
:1012A000C1612068C1692A6941EA0221C16124E063
:1012B000206800F0ABFD2068416D41F008014165F8
:1012C0002068416D21F0040141652068416D2A6963
:1012D000114311E0206800F0C7FD2068416D41F422
:1012E000006141652068416D21F48061416520689D
:1012F000416D2A6941EA02214165002084F83C00E1
:1013000070BD10B5040003D094F83D0010B107E0A3
:10131000012010BD002084F83C00204600F022F897
:10132000022084F83D00211D206800F049FC0120C6
:1013300084F8480084F83E0084F83F0084F84000B8
:1013400084F8410084F8420084F8430084F84400A3
:1013500084F8450084F8460084F8470084F83D008E
:10136000002010BD08B500680649884208D106482B
:10137000016E41F400610166006E00F400600090AF
:1013800008BD0000002C01400010024010B50446CA
:10139000022269B1042912D0082917D00C291CD0C7
:1013A000102921D094F84300012824D0012010BD39
:1013B00094F83E000128F9D184F83E201DE094F80D
:1013C0003F000128F2D184F83F2016E094F8400055
:1013D0000128EBD184F840200FE094F84100012867
:1013E000E4D184F8412008E094F842000128DDD1DE
:1013F00084F8422001E084F843200122206800F0B4
:1014000015FC12492068124A884204D0904202D04A
:10141000104B984203D1436C43F40043436420686B
:10142000884204D0B0F1804F01D0904207D181684A
:10143000094A1140062906D0B1F5803F03D0016862
:1014400041F001010160002010BD0000002C0140AE
:101450000040014000440140070001007047704710
:101460002DE9F04102680446D0691168936840F69E
:101470000F0528424FF0000505D186067BD58E0664
:1014800079D5216E88E04D4F03F001060F403743B8
:1014900071D0C70707D0CF0505D501271762E26FC6
:1014A00042F00102E267820708D5DA0706D0276812
:1014B00002223A62E26F42F00402E267420708D574
:1014C000DA0706D0236804221A62E26F42F00202B1
:1014D000E26702070AD501F02002324306D02368F2
:1014E00008221A62E26F42F00802E267020509D59B
:1014F0004A0107D523684FF400621A62E26F42F096
:101500002002E267E26F002A2ED0800605D5880609
:1015100003D5216E09B120468847E06F21688968AC
:10152000490602D410F0280F20D0204600F064FDB8
:1015300020688168490614D5816821F040018160E6
:10154000E06E70B11E498163E06EFEF7B7FE0028C1
:101550000AD0E06E816B00E02046BDE8F04108470C
:1015600009E02046FFF77BFFBDE8F0812046FFF74A
:1015700076FFE567F8E7C60209D55B0207D54FF4A9
:10158000801010622046BDE8F041FFF767BF0306F8
:1015900005D50B0603D5616E0029DDD1E4E74006D1
:1015A000E2D54806E0D51168204621F040011160DF
:1015B00020216167656600F048F9D5E72001000445
:1015C000E51F000810B5040002D0606F10B107E0FD
:1015D000012010BD002084F87000204600F026F89D
:1015E000242060672068016821F001010160204625
:1015F00000F012FD0128ECD0606A10B1204600F026
:1016000061FC2068416821F4904141602068816854
:1016100021F02A0181602068016841F00101016028
:101620002046BDE8104000F0B1BC000010B586B007
:10163000044614216846FEF702FE174920688842D6
:1016400028D11648016E41F480410166016E01F413
:1016500080410591C16C41F00101C164C06C6946D3
:1016600000F0010005904FF4C0600090022001904E
:101670000020029003200390072004904FF0904038
:10168000FEF744FE002211462520FEF775FF2520B7
:10169000FEF764FF06B010BD0038014000100240A4
:1016A0002DE9F84F0446806F9A4616460D462028CD
:1016B0006BD1EDB1E6B194F87000012865D001203E
:1016C00084F870004FF00008C4F87C802220A067E6
:1016D000FEF7EEFEA4F858608146A4F85A60A068B0
:1016E0004FF48053FF21984208D122691AB11CE0BF
:1016F000012000F04CB840F2FF1116E07F2290B1BB
:10170000B0F1805F14D0A4F85C8000BFB4F85C70C6
:10171000984201D1206990B12E46002584F870804E
:1017200007F0FF0825E0266936B9A4F85C10EDE75C
:10173000216909B13F21F8E7A4F85C20E6E700261B
:10174000ECE74B46002220212046CDF800A000F017
:1017500055FD08B10320CCE72068808C8EB100EAEB
:10176000080006F8010B00BFB4F85A00401EA4F8A8
:101770005A00B4F85A000028E3D12020A0670020C6
:10178000B7E7384025F8020BEEE70220B1E718BCB6
:10179000BDE8E08F2DE9F8430446406F1F4616462A
:1017A0000D4620284FD1CDB1C6B194F87000012864
:1017B00049D0012084F870004FF00008C4F87C8004
:1017C00021206067FEF774FEA4F850608146A4F8FB
:1017D0005260A068B0F5805F03D004E00120BDE84E
:1017E000F883206928B12E465FF0000584F87080E8
:1017F00010E00026FAE78021204600F0FFFCB8B98F
:10180000C6B116F8010B21680885B4F85200401ED5
:10181000A4F85200B4F852004B464FF00002009773
:101820000028E8D14FF04001204600F0E7FC30B13D
:101830000320D4E735F8020BC0F30800E3E72020CB
:1018400060670020CBE70220C9E77047FEE7000091
:1018500010B596B00024129413941C210BA8149474
:10186000FEF7EDFC2C216846FEF7E9FC22482149F1
:1018700001602721C0E901146321C0E90314446118
:101880008461FFF73EFD08B172B6FEE7129413942F
:1018900012A919481494FFF745FC08B172B6FEE787
:1018A0006020CDE90B040D940E940F941094002247
:1018B0000BA911481194FFF795FC08B172B6FEE729
:1018C00000944FF40050CDE9044001940294039435
:1018D00000030694CDE907400994694606480A9436
:1018E000FFF7DEFB08B172B6FEE70348FFF750FCD6
:1018F00016B010BD002C0140640000200C4810B54B
:101900000A4901604FF4E1314160002181600C22FD
:10191000C160C0E904128161C16101624162FFF7E7
:1019200051FE002801D072B6FEE710BD003801401C
:10193000B0000020FEE7FEE7704700002DE9F0410F
:10194000444C05468846E0680026810728680DD08B
:10195000E16801F00301814216D1A8B1E06869682D
:10196000C0F30210401C88420ED120E0012804D0B0
:10197000022805D0032807D108E02168890701E083
:1019800021684905002907DB01265FE021688903FA
:1019900002D421684903F5E7E1686A686FF00F0334
:1019A00021F0730103EB021211430143E16020684F
:1019B00020F080602060FEF77BFD074605E000BF59
:1019C000FEF776FDC01B022837D820680001F7D447
:1019D000B8F1000F18D0B8F1010F1DD0287D4FF0DD
:1019E0007E41400801EB4060A96840EA012021697E
:1019F000194A114008432061206840F0806020604F
:101A0000FEF756FD07461AE0A868297B000240EA67
:101A1000C1602169114AECE7288A1149400801EBAD
:101A20004050A96840EA012021690E4AE1E700BF61
:101A3000FEF73EFDC01B022801D9032606E0206800
:101A40000001F5D52069A969084320613046BDE849
:101A5000F081000000100240FF80FFF9FF80FF07C7
:101A60000000E0FFFF809FFFF8B51C4D06460024F4
:101A7000A86DC00002D5FEF7E5FD0DE0A86D40F0B1
:101A80008050A865A86D00F080500090FEF7DAFD48
:101A9000A96D21F08051A965B0F5007F04D0802E9A
:101AA00007D94FF003040AE0802E08D9A02E01D8F0
:101AB00004E001D1022402E0702E00D10124084884
:101AC000016821F0070121430160006800F0070070
:101AD000A04201D00120F8BD0020F8BD0010024056
:101AE000002002407047FEF7E9BC000030B5ABB003
:101AF00044216846FEF7A3FB142126A8FEF79FFBAE
:101B0000542111A8FEF79BFBFEF7A4FD1A4850F8DC
:101B1000901F21F01801016014200125009002950A
:101B2000002406956020CDE9074068460A94FEF738
:101B3000EDFF08B172B6FEE70F20CDE92604289428
:101B40002994002126A82A94FEF7DAFE08B172B67D
:101B5000FEE711A811951994FEF78CFD08B172B635
:101B6000FEE74FF40070FEF739FD08B172B6FEE7EC
:101B7000FEF778FD2BB030BD001002400D48016823
:101B800041F4700101600C48016841F001010160FD
:101B9000002181600268094B1A4002608214C26011
:101BA000026822F48022026081610249C003803908
:101BB0000860704788ED00E000100240FFFFF6EA81
:101BC00070B50268164B4FF08046984201D0B04283
:101BD00003D122F070044A682243124C124D9842FD
:101BE00005D0B04203D0A04201D0A84203D122F4D4
:101BF0004076CA6832434E6922F080023243026066
:101C00008A68C2620A688262984203D0A04201D008
:101C1000A84201D1096901630121416170BD000041
:101C2000002C0140004001400044014010B501F08B
:101C30001F030121046A99408C430462016A9A409F
:101C40001143016210BD0000F0B5026A22F00102EA
:101C50000262056A43688269154C25F0020522403C
:101C60000C6822F0030214438A68134E2A43114D74
:101C7000124FA84203D0B04201D0B84206D122F0A0
:101C8000080CCA6842EA0C0222F00402A84203D0FF
:101C9000B04201D0B84205D14D6923F440731D43D1
:101CA0008B692B4343608461496841630262F0BDE4
:101CB0008FFFFEFF002C0140004001400044014026
:101CC00030B5026A22F010020262046A4268836937
:101CD000154D2B400D6823F4407343EA052524F08D
:101CE00020038C6843EA0413104CA04207D1CC684F
:101CF00023F0800343EA041323F0400305E00C4C77
:101D0000A04202D00B4CA04207D14C6922F44062A1
:101D100042EA84028C6942EA840242608561496831
:101D20008163036230BD0000FF8FFFFE002C014085
:101D3000004001400044014030B5026A22F4807244
:101D40000262046A4268C369144D2B400D6823F097
:101D500003031D4324F400738C6843EA0423104CEE
:101D6000A04207D1CC6823F4006343EA042323F4A0
:101D7000806305E00B4CA04202D00B4CA04207D17F
:101D80004C6922F4405242EA04128C6942EA04127D
:101D90004260C5614968C163036230BD8FFFFEFFC9
:101DA000002C0140004001400044014030B5026A6F
:101DB00022F480520262046A4268C3690F4D24F41F
:101DC00000542B400D6823F4407343EA05238D68CB
:101DD00044EA05340A4DA84205D00A4DA84202D073
:101DE000094DA84204D14D6922F4804242EA85128D
:101DF0004260C36149680164046230BDFF8FFFFE29
:101E0000002C0140004001400044014030B5026A0E
:101E100022F480320262046A4268436D0E4D2B4008
:101E20000D681D4324F400330C8943EA04430B4C32
:101E3000A04205D00A4CA04202D00A4CA04204D1D4
:101E40004C6922F4803242EA0422426045654968C6
:101E50008165036230BD00008FFFFEFF002C014052
:101E6000004001400044014030B5026A22F4801273
:101E70000262046A4268436D0E4D24F400142B4044
:101E80000D6843EA05230D8944EA05540A4DA8422A
:101E900005D00A4DA84202D0094DA84204D14D698F
:101EA00022F4802242EA8522426043654968C16586
:101EB000046230BDFF8FFFFE002C01400040014056
:101EC0000044014090F82410C90706D001684A6810
:101ED000836A22F400321A434A6090F8241089077A
:101EE00006D501684A68C36A22F480321A434A6000
:101EF00090F82410490706D501684A68036B22F45C
:101F000080221A434A6090F82410090706D5016818
:101F10004A68436B22F400421A434A6090F8241046
:101F2000C90606D501688A68836B22F480521A4379
:101F30008A6090F82410890606D501688A68C36B08
:101F400022F400521A438A6090F82410490611D5F1
:101F500001684A68036C22F480121A434A60016CDB
:101F6000B1F5801F06D101684A68436C22F4C002B3
:101F70001A434A6090F82410090606D501684A6899
:101F8000806C22F4002202434A607047F8B50026B4
:101F90000446C667FEF78CFA0546206800686FF0B5
:101FA0007E47000708D52B4600224FF4001120463B
:101FB000009700F023F960B92068006840070AD54F
:101FC0002B4600224FF480012046009700F016F9BE
:101FD00008B10320F8BD20206067A06784F8706016
:101FE0000020F8BD10B5806A0021A0F85A10A0F8B2
:101FF0005210FFF734FA10BD01680A6822F490729B
:102000000A6001688A6822F001028A6020218167E3
:1020100000210166704700002DE9F0410446016887
:1020200080682269E3691043626900251A431043FE
:102030006B4F0A686B4B1A4002430A602068416884
:10204000E26821F44051114341602168A069B9421E
:1020500001D0226A10438A6822F4306202438A6007
:102060006149236861488B420DD1D0F8880010F097
:10207000030006D0012838D0022834D0032821D10B
:1020800035E001211FE05A498B420BD1D0F888007E
:1020900010F00C0025D0042827D0082823D00C28C5
:1020A00010D124E0BB420DD1D0F8880010F440607C
:1020B00017D0B0F5806F18D0B0F5006F13D0B0F521
:1020C000406F14D010214B4800264FF40042BB4211
:1020D0002FD171B1022912D004290DD0082973D152
:1020E00025E00021EFE70221EDE70421EBE70821DD
:1020F000E9E7FEF795FC01E0FEF7B6FCF0B3626895
:1021000002EB420181425FD8B0EB023F5CD8010E86
:10211000000273084FEA3207C01959410023FEF745
:1021200053F8354AA0F54071914251D94CE0104620
:10213000E5E7E3694FF6EF77934229D1092943D2C6
:10214000DFE801F005080E420B4242422400FEF790
:1021500067FC04E0FEF776FC01E0FEF785FC68B161
:102160004100606801EB5001B1FBF0F080B2A0F1DA
:102170001001B94228D84FF6F07100E02AE0014082
:10218000C0F3420001432068C16023E01046E7E746
:10219000092919D2DFE801F005080E180B181818E4
:1021A0001A00FEF73DFC04E0FEF74CFC01E0FEF7F0
:1021B0005BFC78B1616800EB5100B0FBF1F080B2DC
:1021C000A0F11001B94203D9012503E01046F1E75F
:1021D0002168C860266628466666BDE8F081000072
:1021E00000800040F369FFEF00380140001002401A
:1021F000004400400024F400FFFC0F002DE9F047EC
:102200009A4617460E4604464FF000094FF0200844
:10221000089D39E0681C37D0FEF74AF9A0EB0A00A8
:10222000A84222D80DB32068016849072CD5C0699F
:10223000C043000528D421684FF40060086220687C
:10224000016821F4D07101602068816821F00101EA
:102250008160C4F87480C4F87880C4F87C8000BFC2
:1022600084F870900320BDE8F0872068016821F4AD
:10227000D07101602068816821F001018160C4F89B
:102280007480C4F87880EBE72068C06936EA000003
:1022900004D00020B842BDD00020E4E70120F9E7D7
:1022A00038B54FF0FF342346012269461A48FFF73C
:1022B000F7F99DF800001949194A44280CD0522812
:1022C0000CD04D280CD046280CD053280CD04C28CC
:1022D0001ED054281ED00AE0086806E0486804E0D2
:1022E000C86802E0886800E00869116888622346CF
:1022F000012269460848FFF74DFA084923461B2288
:102300001C310548FFF746FA0348FFF7A9F838BD26
:102310004869EAE78869E8E7B00000201C0000206F
:1023200064000020FEE70907090E002804DB00F125
:10233000E02080F80014704700F00F0000F1E0206A
:1023400080F8141D704702E008C8121F08C1002A57
:10235000FAD170477047002001E001C1121F002A26
:10236000FBD1704708B5FEF7B1F8FFF7BFFB154882
:10237000C16C41F00401C164C16C01F00401009121
:10238000C16C41F00101C164C06C00F0010000901B
:10239000FFF75EFAFFF7B2FA0B480068016841F0F8
:1023A000200101604FF0FF33192208490648FFF76A
:1023B000F1F9054800214C38FEF7E8FF04493220C6
:1023C0000860FEE700100240B0000020000000207E
:1023D000342C014000000000000000000102030452
:1023E00006070809A0860100400D0300801A0600B8
:1023F00000350C0040420F0080841E0000093D00A3
:1024000000127A000024F40000366E010048E80152
:10241000006CDC0200000000010203043C24000800
:10242000000000206400000046230008A0240008EB
:1024300064000020CC04000056230008506C656145
:1024400073652C20656E74657220746865204E6F0C
:1024500074653A20000000008F010000C7000000F2
:1024600084000000630000004F00000042000000F4
:10247000380000000D0A506C656173652C20656E94
:1024800074657220746865204E6F74653A20000090
:1024900001000000100000000000000000093D00E5
:040000050800018D61
:00000001FF
