:020000040800F2
:10000000081E0020850200088B1800084D18000803
:1000100089180008BD030008052100080000000041
:10002000000000000000000000000000A501000822
:10003000BF03000800000000010200087D1B00084B
:100040009F0200089F0200089F0200089F0200080C
:100050009F0200089F0200089F0200089F020008FC
:100060009F0200089F0200089F0200089F020008EC
:100070009F0200089F0200089F0200089F020008DC
:100080009F0200089F0200089F0200089F020008CC
:100090009F0200089F0200089F0200089F020008BC
:1000A0009F020008911C00089F0200089F020008A0
:1000B0009F02000800000000000000009F020008EE
:1000C0009F02000800000000000000009F020008DE
:1000D00000000000E52000089F020008000000006A
:1000E0009F0200089F0200080000000000000000BE
:1000F0000000000000000000000000000000000000
:100100000000000000000000000000009F02000846
:1001100000000000000000009F0200089F0200088D
:100120009F0200089F0200089F0200089F0200082B
:100130009F02000800000000000000000000000016
:100140009F0200089F0200089F0200089F0200080B
:100150009F0200089F0200089F0200089F020008FB
:100160009F0200089F0200089F0200080000000094
:100170009F0200089F02000800000000000000002D
:100180009F0200089F0200089F020008DFF810D0BD
:1001900000F002F90048004745210008AFF3008055
:1001A000081E00202C4B1968086800F05AB880F32C
:1001B0000988BFF36F8F4FF0000080F311887047FC
:1001C0000000000008480068006880F308884FF0CD
:1001D000000080F3148862B661B6BFF34F8FBFF39F
:1001E0006F8F00DF00BF00BF08ED00E0DFF80C00FC
:1001F000016841F470010160704700BF88ED00E0C4
:10020000EFF30980BFF36F8F134B1A681EF0100FC6
:1002100008BF20ED108A20E9F04F106009B44FF0BC
:10022000500080F31188BFF34F8FBFF36F8F03F03F
:1002300047F84FF0000080F3118809BC196808687E
:1002400000F014B81EF0100F08BF00F014B880F3CF
:100250000988BFF36F8F704734000020EFF30580EB
:10026000704730C8B0E8C04FFFF7A1BF30C8B0E852
:10027000C04FFFF7E7BFB0EC088AB0EC08CAFFF741
:10028000E6BF00000648804706480047FEE7FEE755
:10029000FEE7FEE7FEE7FEE7FEE7FEE7FEE7FEE736
:1002A0004D1C00088D0100082DE9F05F0546002077
:1002B00092469B4688460646814640241BE02846D7
:1002C00041464746224600F056F853465A46C01A61
:1002D000914110D311461846224600F03DF82D1AE0
:1002E00067EB01084F4622460120002100F034F858
:1002F00017EB00094E41201EA4F10104DFDC484643
:1003000031462A46434600F000B830BCBDE8C09FE5
:1003100040EA01039B0703D009E008C9121F08C087
:10032000042AFAD203E011F8013B00F8013B521E07
:10033000F9D27047D2B201E000F8012B491EFBD27E
:1003400070470022F6E710B513460A4604461946E0
:10035000FFF7F0FF204610BD202A04DB203A00FA08
:1003600002F1002070479140C2F1200320FA03F30C
:10037000194390407047202A04DB203A21FA02F00A
:100380000021704721FA02F3D040C2F120029140CF
:100390000843194670470000064C074D06E0E06828
:1003A00040F0010394E8070098471034AC42F6D3BC
:1003B000FFF7F0FE0042000820420008FEE7704709
:1003C00010B590F825100024022903D00421C16340
:1003D00001241AE001680A6822F00E020A6001682E
:1003E0000A6822F001020A6090F84410036C01F0E0
:1003F0001C02012101FA02F25A6080F82510002146
:1004000080F82410816B01B18847204610BD0000A0
:100410002DE9FC4FDFF880A1002301250AF1040B30
:1004200003244FF00F0C0BF1040EAEE005FA03F6B7
:1004300032406FD04F68012F05D0022F03D0112F0B
:1004400001D0122F17D1D0F808905F0004FA07F8F6
:1004500029EA08090097D1F80C8008FA07F848EA59
:100460000908C0F808804768B7430E79C6F300163C
:100470009E403E434660C6684FEA430804FA08F7C8
:10048000BE4301978F6807FA08F73743C7604E6885
:10049000022E01D0122E13D1DE0800EB8606009644
:1004A000366A5F07FF0E0CFA07F926EA0906D1F84B
:1004B000109009FA07F949EA0609009EC6F820904B
:1004C0000768019EB7430E7906F0030606FA08F6A0
:1004D0003E4306604E68F60056D5304E376E47F004
:1004E00001073766366E23F0030706F00106009613
:1004F0002B4E3E44B146B6689F074FEA17780CFA78
:1005000008F7BE43B0F1904F05D0264FB84204D152
:10051000012708E038E0002705E0234FB84201D169
:10052000022700E0072707FA08F73743C9F80870E1
:10053000DAF800605746D1F8048096435FEAC8387D
:1005400000D516433E60DBF800605F46D1F80480BA
:1005500096435FEA883800D516433E60DEF80060B7
:100560007746D1F8048096435FEAC82800D5164341
:100570003E60094F0C373E68D1F8048096435FEA2D
:10058000882800D516433E605B1C0A6832FA03F6E1
:100590007FF44CAF00F00AB80004014000100240A4
:1005A0000000014000040048000800481CBCBDE8F1
:1005B000E08F0000014880687047000024000020A0
:1005C000024881680278114481607047240000204D
:1005D00010B50024032000F08DF8002000F008F88A
:1005E00008B1012401E000F03DF8204610BD0000F4
:1005F00000B5014687B00022192000F05BF81920F1
:1006000000F04AF81348016E41F400610166006E83
:1006100005A900F400600690684600F09FFA00F01B
:10062000CFFA0D490D4AB0FBF1F10D48491E0260A9
:10063000416040F2E7320021C0E90321816000F00F
:10064000DCFD10B1012007B000BD054800F008FE38
:10065000F9E700000010024040420F00002C01406A
:100660002C0100200B4882B0016E41F001010166AF
:10067000016E01F001010091816D41F080518165B1
:10068000806D002200F0805000900F21901E02B07B
:1006900000F010B800100240002809DB00F01F0233
:1006A000012191404009800000F1E020C0F80011D4
:1006B00070470000F0B40E4B1B680C46C3F30223D6
:1006C000C3F10705042D00D90425191D072901D2FE
:1006D000002300E0DB1E012606FA05F1491E214039
:1006E00099409E40761E16403143F0BC01F00BBD90
:1006F0000CED00E0064900F0070208684FF6FF0322
:10070000184040EA0220034A104308607047000086
:100710000CED00E00000FA051649B0F5007F08680E
:10072000C0F3412009D0022805D0086820F4C06039
:1007300040F480600860002070470128FBD0086802
:1007400020F4C06040F4007008600B48322200685A
:1007500050430A4AB0FBF2F0401C00E0401E4A69D8
:10076000520501D50028F9D148694005E3D5032099
:1007700070470000007000403000002040420F0031
:100780000248006800F4C06070470000007000403C
:100790000248016841F480710160704700700040B8
:1007A0000248016841F004010160704700100240F6
:1007B0002DE9F84F0446002700889C4D3E46000571
:1007C00015D5E06B60B1B0F5000F04D0B0F5400F67
:1007D0002BD001270AE0E86840F48030E86024E08C
:1007E0000021201D01F052F807001ED03E4620686F
:1007F000800338D5A86D4FF00008C00009D4A86D5B
:1008000040F08050A865A86D4FF0010800F08050BE
:100810000090DFF81CA2DAF8001041F48071CAF8E9
:100820000010FFF7C7FE814610E0D5F88800E16BA5
:1008300020F440000843C5F88800D8E7FFF7BAFE67
:10084000A0EB0900022801D9032704E0DAF8000030
:10085000C005F3D5EFB33E46B8F1000F03D0A86D45
:1008600020F08050A8652078C00707D0D5F8880010
:10087000216A20F003000843C5F88800207880072B
:1008800007D5D5F88800616A20F00C000843C5F848
:1008900088002078800607D5D5F88800A16A20F462
:1008A00040600843C5F888002088800507D5D5F842
:1008B0008800616B20F440200843C5F88800208838
:1008C000400509D5D5F88800A16B20F440100843F5
:1008D00000E02EE0C5F888002078400607D5D5F85E
:1008E0008800E16A20F440500843C5F88800208859
:1008F000C00507D5D5F88800216B20F440300843A7
:10090000C5F8880020884FF0006780044FF08068A9
:100910004ED5D5F88800216C20F040600843C5F81A
:100920008800206CB8423BD1E86840F48010E86051
:100930003EE0D5F8900010F4407014D0216D814253
:1009400011D0D5F89000D5F8901020F4407041F403
:100950008031C5F89010D5F8901021F48031C5F899
:100960009010C5F89000C00711D0FFF723FE07468E
:1009700041F2883907E000BFFFF71CFEC11B494563
:1009800001D9032668E7D5F890008007F4D5D5F89B
:100990009000216D20F440700843C5F890005BE79B
:1009A000404505D10121201D00F070FF00B1064631
:1009B0002068400317D5D5F88800616C20F04060AE
:1009C0000843C5F88800606CB84204D1E86840F478
:1009D0008010E86007E0404505D10121201D00F0AE
:1009E00055FF00B106462088400411D5D5F888008F
:1009F000A16C20F040500843C5F88800A06CB0F10D
:100A0000805F05D10221201D00F040FF00B10646A5
:100A10002088000406D555F8880FE16C20F080404E
:100A200008432860304600F005B80000001002407E
:100A30000070004018BCBDE8E08F00002DE9F047D1
:100A40000F46050058D0404E306800F00700B8420D
:100A500009D2306820F0070038433060306800F079
:100A60000700B84248D12878384CC0072CD06868B5
:100A7000032811D0022812D0216898B14905002915
:100A80003ADAA16821F003010143A160FFF792FD6A
:100A9000804641F2883910E021688901EFE721683A
:100AA0008903ECE78907EAE7FFF784FDA0EB08017B
:100AB000494502D90320BDE8F087A068696800F0C5
:100AC0000C00B0EB810FEFD12878800705D5A06826
:100AD000A96820F0F0000843A060306800F007002B
:100AE000B8420BD9306820F00700384330603068D6
:100AF00000F00700B84201D00120DCE72878400769
:100B000005D5A068E96820F4E0600843A060287873
:100B1000000706D5A068296920F4605040EAC100AA
:100B2000A06000F05FF8A168094AC1F30311515CAD
:100B300001F01F01C8400749086007480068BDE888
:100B4000F047FFF755BD00000020024000100240B2
:100B50005041000830000020280000200F220260D1
:100B60000C4A936803F003034360936803F0F003B7
:100B70008360936803F4E063C36092684FF4E063BA
:100B800003EAD20202610448006800F0070008602E
:100B9000704700000010024000200240054806494E
:100BA00000688968054AC1F30221515C01F01F0108
:100BB000C8407047300000200010024090410008FB
:100BC0000548064900688968054AC1F3C221515C9D
:100BD00001F01F01C84070473000002000100240A3
:100BE0009041000870B52549002318468A68CC68F2
:100BF00012F00C0204F00306214C4FEA640509D000
:100C00000C2A05D0042A32D0082A00D1284670BD0B
:100C1000012E10D10B681B0704D4D1F89430C3F314
:100C2000032302E00B68C3F30313164E56F8233078
:100C3000DAB10C2AEBD1C86800F00300022818D002
:100C4000032818D01846CA68CB68C2F30212C3F34F
:100C500006234343521CB3FBF2F2C868C0F3416061
:100C6000401C4000B2FBF0F070BD184670BD20463D
:100C700070BD2046E7E72846E5E700000010024087
:100C80000024F400604100082DE9F84304006FD00F
:100C9000FE4DA86800F00C06E86800F00307207815
:100CA000C00664D576B10C2E01D1012F0AD0A069FF
:100CB000002828687AD040F001002860FFF77AFC0D
:100CC00080465DE02868800702D5A0690028DED054
:100CD000216A2868000703D5286800F0F00004E0C6
:100CE000D5F89400F02202EA1010814216D9084685
:100CF00000F062FE00283BD1286840F00800286020
:100D00002868216A20F0F000084328606868E169DB
:100D100020F47F4040EA0120686016E0286840F037
:100D2000080028602868216A20F0F0000843286045
:100D30006868E16920F47F4040EA0120686026B9D4
:100D4000206A00F039FE0028D5D1FFF74BFFA968D3
:100D5000CF4AC1F30311515C01F01F01C840CD49D6
:100D60000860CD480068FFF743FC00287ED12EE0E4
:100D7000CAE000BFFFF71EFCA0EB0800022876D8EF
:100D800028688007F6D5286840F0080028602868A1
:100D9000216A20F0F000084328606868E16920F4C7
:100DA0007F4040EA0120686011E0FFE720F0010089
:100DB0002860FFF7FFFB804606E000BFFFF7FAFB65
:100DC000A0EB08000228DAD828688007F6D420783B
:100DD000C00740D0082E18D00C2E01D1032F14D0FC
:100DE0006068B0F5803F17D0B0F5A02F286817D005
:100DF00020F480302860286820F480202860606813
:100E0000E0B1FFF7D7FB804614E02868800322D5C5
:100E10006068002878D01EE0286840F48030EDE754
:100E200040F480202860F7E7FFF7C4FBA0EB080040
:100E30006428A4D828688003F6D50CE0FFF7BAFB35
:100E4000804605E0FFF7B6FBA0EB0800642896D8C3
:100E500028688003F6D4207880073BD5042E11D073
:100E60000C2E01D1022F0DD0E06801E0B6E1FFE0C9
:100E7000002828681ED040F480702860FFF79AFB95
:100E800007460CE0286840050CD5E0680028C1D072
:100E900008E000BFFFF78EFBC01B022893D828682C
:100EA0004005F7D56868217C20F0FE4040EA0160EB
:100EB00068600FE020F480702860FFF77BFB074636
:100EC00005E000BFFFF776FBC01B0228B1D82868F9
:100ED0004005F7D42078000729D560690028D5F8A7
:100EE000940012D040F00100C5F89400FFF762FBB7
:100EF000074604E0FFF75EFBC01B022899D8D5F82F
:100F000094008007F6D512E02BE120F00100C5F82F
:100F10009400FFF74FFB074605E000BFFFF74AFBD1
:100F2000C01B022885D8D5F894008007F6D4207815
:100F3000400766D5A86D0027C00008D4A86D40F012
:100F40008050A865A86D012700F08050009053489C
:100F50000168C90512D40168814641F480710160BD
:100F6000FFF728FB804605E0FFF724FBA0EB080015
:100F700002287DD8D9F80000C005F5D5A068012861
:100F800016D00528D5F8900017D020F00100C5F83C
:100F90009000D5F8900020F0040000BFC5F8900044
:100FA000A06841F28839C0B1FFF704FB80460FE02A
:100FB000D5F8900040F00100F0E740F00400C5F8DB
:100FC0009000F5E7FFF7F6FAA0EB080149454FD886
:100FD000D5F890008007F5D50EE0FFF7EBFA8046D4
:100FE00006E000BFFFF7E6FAA0EB080149453FD84D
:100FF000D5F890008007F5D41FB1A86D20F080507F
:10100000A8652078800628D5606A0028D5F8980061
:1010100012D040F00100C5F89800FFF7CBFA074660
:1010200005E000BFFFF7C6FAC01B022820D8D5F89C
:1010300098008007F6D510E020F00100C5F8980070
:10104000FFF7B8FA074604E0FFF7B4FAC01B02281E
:101050000ED8D5F898008007F6D4A06AA8B1022867
:1010600024D00C2E7DD0286820F08070286000E00D
:10107000B3E02868000103D4E86820F00300E860CA
:10108000E86807490840E8600CE09FE00010024073
:10109000504100083000002028000020007000406F
:1010A000FFFFEEFEFFF786FA044699E0E868E26A81
:1010B00000F00301914226D1216B00F0700209017A
:1010C000103991421FD1626B00F4FE41B1EB022F47
:1010D00019D194F8382000F07841B1EBC26F12D1E9
:1010E000A18F00F4C00249084905A1F50011914201
:1010F00009D194F8401000F0C06049084906A1F1F8
:10110000007181424BD00C2E6FD0286840016CD406
:10111000286820F080702860FFF74CFA064604E04B
:10112000FFF748FA801B022857D828688001F7D4B7
:10113000F4E90B016FF00F0202EB01110843218A61
:101140005204490802EB4151A26841EA02210843D6
:10115000217D4FF07E42490802EB41610843217B2B
:1011600000E042E040EAC160E968214A11400843DA
:10117000E860286840F080702860E86840F080707F
:10118000E860FFF717FA044605E000BFFFF712FA20
:10119000001B022821D828688001F7D523E02868A1
:1011A000800120D4286840F080702860E86840F012
:1011B0008070E860FFF7FEF9044604E0FFF7FAF9F3
:1011C000001B022809D828688001F7D50BE000BF72
:1011D000FFF7F0F9001B022802D90320BDE8F883CD
:1011E00028688001F4D40020F8E70120F6E7000029
:1011F0008C809D0170477047704710B5040003D084
:1012000094F83D0010B107E0012010BD002084F8E3
:101210003C00204600F022F8022084F83D00211D09
:10122000206800F03BFD012084F8480084F83E006F
:1012300084F83F0084F8400084F8410084F84200BC
:1012400084F8430084F8440084F8450084F846009C
:1012500084F8470084F83D00002010BD704700006E
:1012600090F83D10012901D001207047022180F83B
:101270003D100168CA6842F00102CA6000680B496B
:10128000884205D0B0F1804F02D00949884207D189
:101290008168084A1140062906D0B1F5803F03D085
:1012A000016841F00101016000207047002C0140FD
:1012B0000040014007000100704770B50446006817
:1012C00001694FF00005C943890715D4C168C943B6
:1012D000890711D4E91E0161012020772068806907
:1012E0008007204602D0FFF7E7FF04E000F0A7F8F0
:1012F000204600F0A5F8257720680169C943490711
:1013000017D4C168C943490713D46FF004010161C0
:10131000022020772068806910F4407F204602D0A8
:10132000FFF7CAFF04E000F08AF8204600F088F8D2
:10133000257720680169C943090716D4C168C943E4
:10134000090712D46FF0080101610420207720689A
:10135000C0698007204602D0FFF7AEFF04E000F02E
:101360006EF8204600F06CF8257720680169C943C3
:10137000C90617D4C168C943C90613D46FF0100158
:101380000161082020772068C06910F4407F204662
:1013900002D0FFF791FF04E000F051F8204600F082
:1013A0004FF8257720680169C943C90708D1C1688A
:1013B000C943C90704D1891E0161204600F042F8E3
:1013C00020680169C943090609D4C168C9430906EF
:1013D00005D46FF0800101612046FFF70CFF206803
:1013E0000169C943C90509D4C168C943090605D4BF
:1013F0006FF4807101612046FFF7FCFE20680169EF
:10140000C943490609D4C168C943490605D46FF0E8
:1014100040010161204600F01FF820680169C943BE
:1014200089060BD4C168C943890607D46FF020012F
:1014300001612046BDE87040FFF7DEBE70BD704719
:101440007047000000680349884201D1FFF7B8B82F
:1014500070470000002C0140704770477047000043
:101460002DE9F04102680446D0691168936840F69E
:101470000F0528424FF0000505D186067BD58E0664
:1014800079D5216E88E04D4F03F001060F403743B8
:1014900071D0C70707D0CF0505D501271762E26FC6
:1014A00042F00102E267820708D5DA0706D0276812
:1014B00002223A62E26F42F00402E267420708D574
:1014C000DA0706D0236804221A62E26F42F00202B1
:1014D000E26702070AD501F02002324306D02368F2
:1014E00008221A62E26F42F00802E267020509D59B
:1014F0004A0107D523684FF400621A62E26F42F096
:101500002002E267E26F002A2ED0800605D5880609
:1015100003D5216E09B120468847E06F21688968AC
:10152000490602D410F0280F20D0204600F086FC97
:1015300020688168490614D5816821F040018160E6
:10154000E06E70B11E498163E06EFEF739FF00283E
:101550000AD0E06E816B00E02046BDE8F04108470C
:1015600009E02046FFF77AFFBDE8F0812046FFF74B
:1015700075FFE567F8E7C60209D55B0207D54FF4AA
:10158000801010622046BDE8F041FFF766BF0306F9
:1015900005D50B0603D5616E0029DDD1E4E74006D1
:1015A000E2D54806E0D51168204621F040011160DF
:1015B00020216167656600F048F9D5E72001000445
:1015C000291E000810B5040002D0606F10B107E0BA
:1015D000012010BD002084F87000204600F026F89D
:1015E000242060672068016821F001010160204625
:1015F00000F034FC0128ECD0606A10B1204600F005
:1016000083FB2068416821F4904141602068816833
:1016100021F02A0181602068016841F00101016028
:101620002046BDE8104000F0D3BB000010B586B0E6
:10163000044614216846FEF784FE17492068884254
:1016400028D11648016E41F480410166016E01F413
:1016500080410591C16C41F00101C164C06C6946D3
:1016600000F0010005904FF4C0600090022001904E
:101670000020029003200390072004904FF0904038
:10168000FEF7C6FE002205212520FFF713F82520CE
:10169000FFF702F806B010BD00380140001002400C
:1016A0002DE9F84F0446806F9A4616460D462028CD
:1016B0006BD1EDB1E6B194F87000012865D001203E
:1016C00084F870004FF00008C4F87C802220A067E6
:1016D000FEF770FFA4F858608146A4F85A60A0682D
:1016E0004FF48053FF21984208D122691AB11CE0BF
:1016F000012000F04CB840F2FF1116E07F2290B1BB
:10170000B0F1805F14D0A4F85C8000BFB4F85C70C6
:10171000984201D1206990B12E46002584F870804E
:1017200007F0FF0825E0266936B9A4F85C10EDE75C
:10173000216909B13F21F8E7A4F85C20E6E700261B
:10174000ECE74B46002220212046CDF800A000F017
:1017500077FC08B10320CCE72068808C8EB100EACA
:10176000080006F8010B00BFB4F85A00401EA4F8A8
:101770005A00B4F85A000028E3D12020A0670020C6
:10178000B7E7384025F8020BEEE70220B1E718BCB6
:10179000BDE8E08F2DE9F8430446406F1F4616462A
:1017A0000D4620284FD1CDB1C6B194F87000012864
:1017B00049D0012084F870004FF00008C4F87C8004
:1017C00021206067FEF7F6FEA4F850608146A4F879
:1017D0005260A068B0F5805F03D004E00120BDE84E
:1017E000F883206928B12E465FF0000584F87080E8
:1017F00010E00026FAE78021204600F021FCB8B96D
:10180000C6B116F8010B21680885B4F85200401ED5
:10181000A4F85200B4F852004B464FF00002009773
:101820000028E8D14FF04001204600F009FC30B11B
:101830000320D4E735F8020BC0F30800E3E72020CB
:1018400060670020CBE70220C9E77047FEE7000091
:101850000C4810B50A4901604FF4E13141600021A4
:1018600081600C22C160C0E904128161C161016222
:101870004162FFF7A7FE002801D072B6FEE710BD57
:1018800000380140AC000020FEE7FEE72DE9F04102
:10189000444C05468846E0680026810728680DD03C
:1018A000E16801F00301814216D1A8B1E0686968DE
:1018B000C0F30210401C88420ED120E0012804D061
:1018C000022805D0032807D108E02168890701E034
:1018D00021684905002907DB01265FE021688903AB
:1018E00002D421684903F5E7E1686A686FF00F03E5
:1018F00021F0730103EB021211430143E160206800
:1019000020F080602060FEF755FE074605E000BF2E
:10191000FEF750FEC01B022837D820680001F7D41C
:10192000B8F1000F18D0B8F1010F1DD0287D4FF08D
:101930007E41400801EB4060A96840EA012021692E
:10194000194A114008432061206840F080602060FF
:10195000FEF730FE07461AE0A868297B000240EA3D
:10196000C1602169114AECE7288A1149400801EB5E
:101970004050A96840EA012021690E4AE1E700BF12
:10198000FEF718FEC01B022801D9032606E02068D6
:101990000001F5D52069A969084320613046BDE8FA
:1019A000F081000000100240FF80FFF9FF80FF0778
:1019B0000000E0FFFF809FFFF8B51C4D06460024A5
:1019C000A86DC00002D5FEF7DBFE0DE0A86D40F06B
:1019D0008050A865A86D00F080500090FEF7D0FE02
:1019E000A96D21F08051A965B0F5007F04D0802E4B
:1019F00007D94FF003040AE0802E08D9A02E01D8A1
:101A000004E001D1022402E0702E00D10124084834
:101A1000016821F0070121430160006800F0070020
:101A2000A04201D00120F8BD0020F8BD0010024006
:101A300000200240012000F0FBFBFBE708B51F4C33
:101A4000606901F0E4F9A8BB00226946606901F011
:101A50002FFF9DF8006000226946303E606901F06A
:101A600027FF9DF800002B2802D02D280AD012E075
:101A700000226946606901F01BFF9DF800003038C4
:101A8000351808E000226946606901F011FF9DF8F1
:101A900000003038351A00226946606901F008FFFD
:101AA00005F130008DF8000000231A466946A06950
:101AB00001F0A2FD012000F0BBFBC1E70000002007
:101AC0000EB50D208DF808000A20144C8DF8040086
:101AD0004FF0FF35A06901F09AF9D0B900226946AC
:101AE000A06901F0E5FE01F0EFF92B4601226946FD
:101AF0000B48FFF74FFE2B46012202A90848FFF7CB
:101B000049FE2B46012201A90548FFF743FE01F0DB
:101B1000FBF9012000F08CFBDCE700000000002056
:101B2000AC00002008B5124E124D4FF0FF37314681
:101B3000286801F059FFB0B15020EFF3118480F311
:101B40001188BFF34F8FBFF36F8F3B460122694669
:101B50000948FFF7A5FD84F3118800231A4669465A
:101B6000686901F0F9FD012000F062FBDFE7000089
:101B70007F96980000000020AC00002010B5502097
:101B800080F31188BFF34F8FBFF36F8F02F092F88D
:101B900018B104494FF080500860002080F311888C
:101BA00010BD000004ED00E030B5ABB04421684644
:101BB000FEF7C7FB142126A8FEF7C3FB542111A88A
:101BC000FEF7BFFBFEF7E4FD1F4850F8901F21F021
:101BD000180101601420012400900294002506944D
:101BE0006020CDE9075002201021CDE90A04CDE99B
:101BF0000C410721CDE90E1010906846FFF744F81C
:101C000008B172B6FEE70F2026900320CDE9270524
:101C10002995012126A82A95FEF710FF08B172B672
:101C2000FEE711A819951194FEF7C2FD08B172B62E
:101C3000FEE74FF40070FEF76FFD08B172B6FEE7E5
:101C4000FEF7AEFD2BB030BD001002400D4801681C
:101C500041F4700101600C48016841F0010101602C
:101C6000002181600268094B1A4002608214C26040
:101C7000026822F48022026081610249C003803937
:101C80000860704788ED00E000100240FFFFF6EAB0
:101C90000148FFF712BB00002C01002070B502685C
:101CA000164B4FF08046984201D0B04203D122F04B
:101CB00070044A682243124C124D984205D0B0423B
:101CC00003D0A04201D0A84203D122F44076CA68D2
:101CD00032434E6922F08002324302608A68C26257
:101CE0000A688262984203D0A04201D0A84201D182
:101CF000096901630121416170BD0000002C0140B0
:101D0000004001400044014090F82410C90706D06B
:101D100001684A68836A22F400321A434A6090F8E4
:101D20002410890706D501684A68C36A22F4803204
:101D30001A434A6090F82410490706D501684A689A
:101D4000036B22F480221A434A6090F8241009079A
:101D500006D501684A68436B22F400421A434A6080
:101D600090F82410C90606D501688A68836B22F4AE
:101D700080521A438A6090F82410890606D50168BB
:101D80008A68C36B22F400521A438A6090F82410C8
:101D9000490611D501684A68036C22F480121A437F
:101DA0004A60016CB1F5801F06D101684A68436C36
:101DB00022F4C0021A434A6090F82410090606D59E
:101DC00001684A68806C22F4002202434A6070472E
:101DD000F8B500260446C667FEF7ECFB054620680A
:101DE00000686FF07E47000708D52B4600224FF4AD
:101DF00000112046009700F023F960B920680068C0
:101E000040070AD52B4600224FF480012046009758
:101E100000F016F908B10320F8BD20206067A06724
:101E200084F870600020F8BD10B5806A0021A0F829
:101E30005A10A0F85210FFF711FB10BD01680A6894
:101E400022F490720A6001688A6822F001028A60B6
:101E50002021816700210166704700002DE9F041D3
:101E60000446016880682269E369104362690025BD
:101E70001A4310436B4F0A686B4B1A4002430A60C7
:101E800020684168E26821F44051114341602168B3
:101E9000A069B94201D0226A10438A6822F43062F4
:101EA00002438A606149236861488B420DD1D0F8B2
:101EB000880010F0030006D0012838D0022834D062
:101EC000032821D135E001211FE05A498B420BD173
:101ED000D0F8880010F00C0025D0042827D008285E
:101EE00023D00C2810D124E0BB420DD1D0F88800BB
:101EF00010F4406017D0B0F5806F18D0B0F5006FC7
:101F000013D0B0F5406F14D010214B4800264FF489
:101F10000042BB422FD171B1022912D004290DD049
:101F2000082973D125E00021EFE70221EDE7042124
:101F3000EBE70821E9E7FEF731FE01E0FEF752FE8C
:101F4000F0B3626802EB420181425FD8B0EB023F1E
:101F50005CD8010E000273084FEA3207C0195941DC
:101F60000023FEF7A1F9354AA0F54071914251D9FD
:101F70004CE01046E5E7E3694FF6EF77934229D14D
:101F8000092943D2DFE801F005080E420B42424224
:101F90002400FEF703FE04E0FEF712FE01E0FEF768
:101FA00021FE68B14100606801EB5001B1FBF0F027
:101FB00080B2A0F11001B94228D84FF6F07100E0CC
:101FC0002AE00140C0F3420001432068C16023E0E1
:101FD0001046E7E7092919D2DFE801F005080E18D5
:101FE0000B1818181A00FEF7D9FD04E0FEF7E8FDFB
:101FF00001E0FEF7F7FD78B1616800EB5100B0FB3E
:10200000F1F080B2A0F11001B94203D9012503E03B
:102010001046F1E72168C860266628466666BDE876
:10202000F081000000800040F369FFEF00380140BC
:1020300000100240004400400024F400FFFC0F00A8
:102040002DE9F0479A4617460E4604464FF0000920
:102050004FF02008089D39E0681C37D0FEF7AAFA37
:10206000A0EB0A00A84222D80DB3206801684907F6
:102070002CD5C069C043000528D421684FF4006006
:1020800008622068016821F4D071016020688168CD
:1020900021F001018160C4F87480C4F87880C4F82C
:1020A0007C8000BF84F870900320BDE8F087206832
:1020B000016821F4D07101602068816821F001017C
:1020C0008160C4F87480C4F87880EBE72068C06948
:1020D00036EA000004D00020B842BDD00020E4E77A
:1020E0000120F9E7054810B50021006801F092FBD6
:1020F000BDE810400248FFF7B3B90000000000201F
:10210000AC000020FEE70907090E002804DB00F1FF
:10211000E02080F80014704700F00F0000F1E0208C
:1021200080F8141D704702E008C8121F08C1002A79
:10213000FAD170477047002001E001C1121F002A48
:10214000FBD1704708B5FEF743FAFFF72DFD304885
:10215000C16C41F00401C164C16C01F00401009143
:10216000C16C41F00101C164C06C00F0010000903D
:10217000FFF76EFB00F076F8264800F0E5F8264CF5
:10218000244A0121E0611032084600F01DF9214A7D
:102190002062303A0221042000F09CF81D4A606160
:1021A000183A0221012000F095F81A4AA061C03ABD
:1021B00000211A4800F060F9164A60609C3A00213C
:1021C000174800F059F9134AA060783A00211548E1
:1021D00000F052F90F4AE060543A0021124800F032
:1021E0004BF9206103220021012001F06AF92060EF
:1021F00020B100231A46194601F0FEF90B48006889
:10220000016841F02001016000F046F8FEE700009F
:10221000001002403041000800000020351A00087C
:102220003D1A0008C11A0008251B0008AC00002058
:1022300010B5EFF3058179B9EFF3108111B9EFF320
:10224000118119B106490968022905D0002408B195
:1022500000F03AFF204610BD6FF00504FAE70000D9
:1022600084000020EFF3058068B9EFF3108209497C
:10227000086812B9EFF311820AB1022803D028B11D
:102280004FF0FF3070476FF0050070470120086085
:10229000002070478400002010B5EFF3058070B96E
:1022A000EFF310820A49086812B9EFF311820AB1FC
:1022B000022804D0012805D04FF0FF3010BD6FF088
:1022C000050010BD0220086000F0AEFF002010BD28
:1022D00084000020F8B514464FF00005EFF30582A6
:1022E0006ABBEFF3108212B9EFF311821AB1154AEB
:1022F0001268022A23D010B309B3ACB1D4E9023278
:102300006BB1502A1BD32269CAB1676900FB01F681
:10231000B74214D30025009501F0F7F807E072B931
:10232000226962B9626952B9002201F0CAF8050057
:1023300005D00CB1216800E0002100F063FE2846C2
:10234000F8BD00008400002070B505464FF0000481
:10235000EFF30580A0BBEFF3108010B9EFF311800D
:1023600018B11848006802282AD00DB1686800E04A
:102370000020C10701D0012600E0002600071FD47D
:102380006DB1D5E9021021B1502819D31EB1042036
:1023900002E020B114E0012001F086F805E00EB162
:1023A000042000E0012001F074F8040008D00DB111
:1023B000296800E0002100F025FE0EB144F0010480
:1023C000204670BD84000020F8B5144603460E4632
:1023D0004FF00005EFF30580E8BBEFF3108010B974
:1023E000EFF3118018B123480068022840D093B35E
:1023F0009E423DD84CB1A0680028E06803D0502828
:1024000036D3012002E008B132E00020012B05D0D4
:1024100010B31846A26801F01CF820E040B1032078
:102420000090002211460120A36801F06EF804E03C
:1024300003220021012001F044F8050018D086B1E4
:1024400000231A46194601F0D7F8012809D028467A
:1024500000F0ECFD00250BE0184600F0DDFF050064
:1024600006D00CB1216800E00021284600F0CAFD2A
:102470002846F8BD840000202DE9FF414FEA010302
:102480004FF00005EFF30581039599BBEFF3108141
:1024900011B9EFF3118119B11F490968022938D028
:1024A00040B38026182100244AB3176807B13C4680
:1024B00097691FB139467F1E382F02D21779FF075F
:1024C00003D0002004B0BDE8F081576907B1BE0811
:1024D000D2F808C0BCF1000F0DD0D5685C2D18D320
:1024E00012693AB137B18DE806103246214601F043
:1024F000A1FB03900DE0D7685FB912694AB903AA3E
:10250000CDE90012B2B2214601F064FB012800D0EF
:1025100003950398D6E70000840000202DE9F041E0
:10252000134C0F46054666692068001D00F05CFCF0
:10253000681C07D137B12168BDE8F0410D48091D7D
:1025400000F0B6BC20683544B5424560216805D22C
:10255000A068BDE8F041091D00F092BC6068091D4B
:1025600000F08EFC206B854200D22563BDE8F0812F
:1025700034000020680600202DE9F041054600F0F7
:10258000A3FC2D4C2069401C206120682B4F10B10A
:10259000E06930B32BE025602069012827D10026AF
:1025A00006EB860007EB800000F05CFC761C382E02
:1025B000F6D3234800F056FC2148143000F052FCBA
:1025C0001F48283000F04EFC1D483C3000F04AFC0B
:1025D0001B48503000F046FC194860601430A06081
:1025E00005E02068E96AC06A884200D82560E06A90
:1025F000401CE0626864E86AA169884200D9A06171
:1026000000EB800007EB8000291D00F051FC00F07A
:102610007BFCE06900280CD02068E96AC06A884227
:1026200007D208494FF080500860BFF34F8FBFF3C7
:102630006F8FBDE8F081000034000020B801002059
:102640001806002004ED00E038B500F03DFC104C09
:10265000A068C8B90F4800F005FC0E48143000F01F
:1026600001FC0C482060143060600A4B00202833C5
:10267000009003F1500210210A2000F046FFA060F4
:1026800010B105A100F0BEFCBDE8384000F03CBC34
:10269000700000207C060020546D72510000000084
:1026A00030B4026C0B46002A0BD0C1681144C160E3
:1026B0008468A14201D30168C16030BC1846FDF7AF
:1026C00027BE30BC70472DE9F041856B17460446A4
:1026D0000026026C82B1C7B1E068FDF719FEE1681F
:1026E000206C091AE1602268914202D2A168081A9E
:1026F000E060022F16D017E02068A8B9A06801F0AA
:102700003DFB06460020A0600EE06068FDF700FE7D
:10271000216C606808446060A168884204D3206826
:10272000606001E005B16D1E6D1CA5633046BDE81B
:10273000F08110B5044690F8590058B101280CD02A
:1027400002280FD0502080F31188BFF34F8FBFF3C2
:102750006F8FFEE7206B00F0EBFB2046BDE81040DA
:1027600000F0E6BB10BD00000F4840F6B83142074C
:1027700005D0C01D0C4A20F00700821A891A0B4AA6
:1027800000230144C2E900030839103A21F007018F
:1027900011604B600B600B1AC0E9001393604FF09F
:1027A00000405360D06070474C0E0020980000201D
:1027B000144E154CA6F29C474FF08058DFF84C9011
:1027C00012E000BF00F080FBF068C568281D00F033
:1027D0000BFB2069401E2061E068401EE06000F0B5
:1027E00093FB2846FFF7A5FFE0680028EAD1386888
:1027F0000128F9D9C9F80080BFF34F8FBFF36F8F5D
:10280000F2E70000540600203400002004ED00E050
:10281000002807D00021816001600B460A46C16094
:1028200000F0EABE7047000070B51D46049C51B12F
:10283000C4F80020C4E90F010121204600F098FEF1
:1028400084F84C5070BD2460F4E700002DE9F05F7F
:102850008846DDE90B941546834691009A460A9E08
:10286000A522206BFDF766FD6FF00301206B01EBE5
:102870008501084420F00707780707D0502080F32F
:102880001188BFF34F8FBFF36F8FFEE70025B8F1BC
:10289000000F0FD05FF00000221818F8001082F827
:1028A000341018F8001011B1401C1028F4D384F82B
:1028B000435001E084F83450382E00D33726E662C6
:1028C000C4E91365201D00F0D8FA04F1180000F0E7
:1028D000D4FA2461C6F138006462A061656584F8A9
:1028E000585052465946384600F068FA2060B9F10F
:1028F000000F01D0C9F8004000F000B830BCBDE8BE
:10290000C09F000030B5114900E011460A688242BC
:10291000FBD34B685C18844203D14068184448607C
:10292000084643681C18944209D1084C103C24689E
:10293000A24209D052681A4442600A6812680260D2
:10294000814200D0086030BD0460F9E798000020A3
:1029500070B5002441600B4D0061914206D8D11A38
:102960008269914206D2011D686807E09A4203D24B
:10297000994201D3012403E0011D286800F080FA88
:10298000204670BD7000002010B5044600F09CFA8F
:10299000A06B28B15FF0000400F0B6FA204610BD2D
:1029A0000124F9E730B589B03C4D6EE00498002869
:1029B00006DADDE90601059A90470498002864DBF1
:1029C000069C606910B1201D00F00EFA03A800F00B
:1029D000D7F8024604980A2857D2DFE800F0050528
:1029E000052D334A05052D3394F8280040F00100E9
:1029F00084F828000599A069059B01442046FFF74B
:102A0000A7FF68B3216A2046884794F8280040074A
:102A10003BD5002000900598A16900234218194673
:102A2000204601F0F1FAD8B9502080F31188BFF3A5
:102A30004F8FBFF36F8FFEE714F8280F20F00100CF
:102A4000207022E094F8280040F0010084F828006B
:102A50000598A06128B1811813462046FFF778FF3A
:102A600013E0502080F31188BFF34F8FBFF36F8FB7
:102A7000FEE794F82800810703D4204600F058FAB6
:102A800003E020F0010084F82800002204A9A868CF
:102A900000F00EFF002889D109B030BD7000002081
:102AA0002DE9FC410F46054600F002FC01A800F0AC
:102AB00067F80446019818B101F014FABDE8FC81EA
:102AC000254EAFB170680068D0B30027291B3A4685
:102AD000B06800F0D7FA01F005FA0028EED11F49DE
:102AE0004FF080500860BFF34F8FBFF36F8FE5E763
:102AF000A542EBD801F0F6F930682746C068C468F3
:102B0000201D00F071F994F82800410719D5A0693B
:102B10002B4641193A462046FFF71AFFA8B100207C
:102B20000346014600902A46204601F06DFA60B93E
:102B3000502080F31188BFF34F8FBFF36F8FFEE7F4
:102B400007E020F0010084F82800216A2046884729
:102B5000B4E70127BAE700007000002004ED00E0B0
:102B600006484168096829B14168C968C968496867
:102B7000016370474FF0FF31FAE700003400002096
:102B800070B5054601F090F8064E0446306984425F
:102B900003D200F009F8012000E000202860204660
:102BA000346170BD70000020F8B5194D20E0C06898
:102BB000C4680668201D00F017F9216A204688477E
:102BC00094F82800400713D5A0693044B04206D9D4
:102BD00024616060211D286800F052F908E000209F
:102BE0000346014600903246204601F00DFA38B106
:102BF000286801680029DAD16968C5E90010F8BDC4
:102C0000502080F31188BFF34F8FBFF36F8FFEE723
:102C10007000002008484068401C4FF0500080F3CE
:102C2000118804D0BFF34F8FBFF36F8FFEE7BFF360
:102C30004F8FBFF36F8FFEE7A0000020074C206886
:102C4000016841B1C0680021D0F80000FFF728FFFB
:102C5000FFF7A8FEF3E701210020F7E7700000204E
:102C60002DE9F041044600F02FF994F9455004F1A4
:102C7000240609E0606A48B1304601F0FBF808B16B
:102C800000F050FA6D1E6DB2002DF3DC4FF0FF36F0
:102C900084F8456000F038F900F016F994F94450D2
:102CA00004F1100709E0206948B1384601F0E2F864
:102CB00008B100F037FA6D1E6DB2002DF3DC84F818
:102CC0004460BDE8F04100F01FB900002DE9F0417B
:102CD0000546002700F0ECFA314E306808B9FFF7DE
:102CE00043FDF06805424BD1C5B3083568070ED0E7
:102CF00005F00700C0F108000544680707D0502020
:102D000080F31188BFF34F8FBFF36F8FFEE72DB3B2
:102D10007068854234D82248103001460C6801E0C2
:102D200020460C466168A94202D221680029F7D1E9
:102D300031688C4224D007682168016060680837D8
:102D4000411B10290FD96019420708D0502080F389
:102D50001188BFF34F8FBFF36F8FFEE710E0416024
:102D60006560FFF7CFFD61687068401A7060B268F7
:102D7000904200D2B060F06801430020C4E9000135
:102D800001F0B0F8780707D0502080F31188BFF326
:102D90004F8FBFF36F8FFEE73846BDE8F08100002C
:102DA000880000200449086818B10868026D521CA8
:102DB00002650868704700003400002010B5031F4A
:102DC0004FF080741C601B1F21F001011960191F56
:102DD000044B0B6014390A60091F6FF0020244387B
:102DE0000A6010BD152C0008D0E9013201699A6013
:102DF000D0E901235A604A68824201D182684A6060
:102E0000002202610868401E08600868704710B51B
:102E1000040008D000F058F8D4E90E10441A00F06D
:102E200073F8204610BD502080F31188BFF34F8FF8
:102E3000BFF36F8FFEE70000034B036003F15C00FC
:102E4000086080201060704794070020044B0360E6
:102E500003F15C0008604FF4807010607047000060
:102E6000F009002000F108014FF0FF32C0E9011223
:102E7000C16001610021016070470021016170475C
:102E800030B50B685A1C02D000F1080202E002695A
:102E900004E02246546825689D42FAD953684B6085
:102EA00099608A60516008610168491C016030BD09
:102EB00042684A6093688B609368596091600861CA
:102EC0000168491C01607047502080F31188BFF3EE
:102ED0004F8FBFF36F8F0A494868401C4860012834
:102EE0000CD10848006810F0FF0F07D0502080F385
:102EF0001188BFF34F8FBFF36F8FFEE7704700005D
:102F0000A000002004ED00E00849486828B1401EF8
:102F1000486001D180F311887047502080F31188F8
:102F2000BFF34F8FBFF36F8FFEE70000A0000020BC
:102F300070B5002827D0144DA0F108046168E86836
:102F4000014207D1502080F31188BFF34F8FBFF3A8
:102F50006F8FFEE722683AB1502080F31188BFF3EB
:102F60004F8FBFF36F8FFEE78143616000F0A0F9E0
:102F700060686968084468602046FFF7C3FCBDE8E4
:102F8000704000F0AFBF70BD880000204FF0E0201F
:102F900000210161816105494FF47A720968B1FB32
:102FA000F2F1491E416107210161704730000020A4
:102FB00010B5FDF753F9114910280ED300F1E020A8
:102FC00090F8F0030A78904207D2502080F31188DD
:102FD000BFF34F8FBFF36F8FFEE709480068896822
:102FE00000F4E060884207D9502080F31188BFF3D5
:102FF0004F8FBFF36F8FFEE710BD0000A0000020D1
:103000000CED00E010B5084B002200BF53F8324031
:103010001CB1521C082AF9D310BD43F8321003EB3F
:10302000C201486010BD00007801002010B5040006
:103030000AD000F013F894F8460000280CD120467E
:10304000BDE81040FFF774BF502080F31188BFF334
:103050004F8FBFF36F8FFEE710BD0000084A0021BD
:1030600002EBC1035B68834206D1002042F83100C5
:1030700002EBC10148607047491C0829F0D3704732
:103080007801002070B515460E460446FFF71CFF78
:1030900094F944100020491C01D184F8440094F9AB
:1030A0004510491C01D184F84500FFF72DFFA06BA6
:1030B00028B92A46314604F1240000F051F8204690
:1030C000BDE87040FFF7CCBD10B5020014D00F482A
:1030D000806B38B1502080F31188BFF34F8FBFF35E
:1030E0006F8FFEE700F0E4F800211046FFF716FAB4
:1030F00000F0F8FE002807D105494FF08050086025
:10310000BFF34F8FBFF36F8F10BD0000340000205E
:1031100004ED00E002498A6A026049694160704733
:10312000340000200149012048627047340000202B
:1031300010B50C4650B1094909681831FFF7A0FED7
:103140002046BDE810400121FFF7E8B9502080F388
:103150001188BFF34F8FBFF36F8FFEE7340000205D
:1031600070B514460D4668B10A4909681831FFF771
:103170009FFE0CB14FF0FF3521462846BDE8704058
:10318000FFF7CCB9502080F31188BFF34F8FBFF306
:103190006F8FFEE73400002070B504003ED0226D32
:1031A000A2B1E06C884200D30146E06A884235D083
:1031B000012A33D11A4D2A6894420FD1502080F34E
:1031C0001188BFF34F8FBFF36F8FFEE7502080F35E
:1031D0001188BFF34F8FBFF36F8FFEE7E162A269E3
:1031E000002A02DBC1F13801A1610E4E00EB800024
:1031F000616906EB8000814210D1201DFFF7F4FDCC
:10320000E06AA969884200D9A86100EB800006EB5A
:103210008000211DBDE87040FFF74ABE70BD000070
:1032200034000020B801002030B587B0002403949A
:1032300005AA04A903A80494FFF7FEFDDDE9030134
:103240000094CDE90110002315A11748059A00F05C
:10325000F1FC164D002868631FD000F0A5FE012880
:1032600009D0401C19D1502080F31188BFF34F8F33
:10327000BFF36F8FFEE7502080F31188BFF34F8FAD
:10328000BFF36F8F4FF0FF3028630120E8616C615E
:1032900007B0BDE8304000F045B807B030BD0000D1
:1032A00049444C4500000000B127000834000020CC
:1032B0000248816B491C8163704700003400002084
:1032C000164810B5816B11B10121416210BD00217A
:1032D00041628169124A01E0B9B1491E01EB8103E3
:1032E00052F82330002BF7D001EB810302EB83026D
:1032F00002F1080453685B685360A34201D15B6824
:103300005360DA680260816110BD502080F311883B
:10331000BFF34F8FBFF36F8FFEE700003400002034
:10332000B80100201CB537480168374A914207D1DF
:10333000502080F31188BFF34F8FBFF36F8FFEE7EC
:1033400000683149491E884207D1502080F3118816
:10335000BFF34F8FBFF36F8FFEE72C4908780190C2
:10336000FF20087008788DF800009DF800009DF897
:10337000002000F0F000904207D0502080F3118828
:10338000BFF34F8FBFF36F8FFEE79DF80000204B18
:1033900000F0500018700720986005E09DF80020AC
:1033A00052008DF80020401E9DF800201206F5D432
:1033B0009860032807D0502080F31188BFF34F8F07
:1033C000BFF36F8FFEE74FF440709860019808706C
:1033D0000C482030016841F470010160016841F03F
:1033E00070410160FFF7D2FD00205860FCF7FEFE3F
:1033F0000848016841F040410160FCF7E3FE00200D
:103400001CBD000000ED00E071C20F4100E400E0CF
:10341000A000002034EF00E010B50C4648B1844213
:103420000FD9502080F31188BFF34F8FBFF36F8FF8
:10343000FEE7502080F31188BFF34F8FBFF36F8FEB
:10344000FEE70222002100F03CF8002800D084634F
:1034500010BD38B50C4648B184420FD9502080F3D6
:103460001188BFF34F8FBFF36F8FFEE7502080F3BB
:103470001188BFF34F8FBFF36F8FFEE70221134612
:1034800000220091114600F040F8002800D084632B
:1034900038BD10B502460021012000F012F80446A4
:1034A000FFF7B6F9204610BD38B50B460022009054
:1034B0001146012000F029F80446FFF7A9F920463B
:1034C00038BDF8B517460E46050014D0DEB105FB31
:1034D00006F05030FFF7FAFB04000AD0002084F811
:1034E000460004F150023B46314628460094FFF75F
:1034F0009BF92046F8BD502080F31188BFF34F8F11
:10350000BFF36F8FFEE70020E3E738B5049D18B1E5
:1035100053B1CAB181B120E0502080F31188BFF3CC
:103520004F8FBFF36F8FFEE7502080F31188BFF3FA
:103530004F8FBFF36F8FFEE7502080F31188BFF3EA
:103540004F8FBFF36F8FFEE739B1502080F31188A2
:10355000BFF34F8FBFF36F8FFEE750241C4601234C
:1035600084F846302B460094FFF75EF9204638BDBC
:1035700070B50D46040025D0FFF7A6FCD4E90F2056
:10358000216802FB0011A1600021A1632168616034
:103590000A46D4E90F01401E00FB0121E1602146EB
:1035A0004FF0FF3001F8440F487004F110008DB166
:1035B000FFF758FC04F12400FFF754FCFFF7A4FCCC
:1035C000012070BD502080F31188BFF34F8FBFF3EF
:1035D0006F8FFEE721690029F0D000F04BFC002836
:1035E000ECD004494FF080500860BFF34F8FBFF319
:1035F0006F8FE3E704ED00E02DE9FF4782B01D4641
:103600008A464FF00008040003D0BAF1000F08D03A
:1036100011E0502080F31188BFF34F8FBFF36F8FFD
:10362000FEE7206C38B1502080F31188BFF34F8F34
:10363000BFF36F8FFEE7022D0AD1E06B012807D0A0
:10364000502080F31188BFF34F8FBFF36F8FFEE7D9
:1036500000F01CFB3F4F4FF000094FF0805648B977
:10366000049838B1502080F31188BFF34F8FBFF317
:103670006F8FFEE7FFF728FCA06BE16B884207D352
:10368000022D05D00498D0B1B8F1000F1AD01EE079
:103690002A4651462046FFF716F8616A19B104F12F
:1036A000240000F0E7FB20B13E60BFF34F8FBFF373
:1036B0006F8FFFF729FC012006B0BDE8F087FFF708
:1036C00023FC22E06846FFF725FD4FF00108FFF7D5
:1036D0001BFCFFF7EDFDFFF7F7FB94F94400401CDE
:1036E00001D184F8449094F94500401C01D184F83C
:1036F0004590FFF709FC04A9684600F031FA30B1A3
:103700002046FFF7ADFA00F0EDFB0020D4E7FFF70D
:10371000DBFBA06BE16B884213D1FFF7F5FB04F1F3
:1037200010000499FFF704FD2046FFF799FA00F016
:10373000D9FB00289ED13E60BFF34F8FBFF36F8F40
:1037400098E7FFF7E1FB2046FFF78AFA00F0CAFB93
:1037500090E7000004ED00E02DE9F0471F46904699
:103760008946040003D0B9F1000F08D011E05020C1
:1037700080F31188BFF34F8FBFF36F8FFEE7206C8C
:1037800038B1502080F31188BFF34F8FBFF36F8F94
:10379000FEE7022F0AD1E06B012807D0502080F30A
:1037A0001188BFF34F8FBFF36F8FFEE7FFF700FC69
:1037B0005020EFF3118680F31188BFF34F8FBFF3D2
:1037C0006F8FA06BE16B884206D3022F04D00020DC
:1037D00086F31188BDE8F08794F945503A4649468A
:1037E0002046FEF770FF681C04D06D1C84F845501D
:1037F0000120EDE7606A0028FAD004F1240000F00F
:1038000039FB0028F4D0B8F1000FF1D00121C8F83D
:103810000010EDE770B50E46040009D0206C78B1B9
:10382000502080F31188BFF34F8FBFF36F8FFEE7F7
:10383000502080F31188BFF34F8FBFF36F8FFEE7E7
:10384000206848B9A06838B1502080F31188BFF3D0
:103850004F8FBFF36F8FFEE7FFF7AAFB5020EFF308
:10386000118580F31188BFF34F8FBFF36F8FA16B6A
:10387000E06B884218D994F94500491CA163411CAA
:1038800004D0401C84F8450001200EE0606A002846
:10389000FAD004F1240000F0EDFA0028F4D0002E54
:1038A000F2D001203060EFE7002085F3118870BD71
:1038B0002DE9F747002683B08A46040003D0BAF109
:1038C000000F08D011E0502080F31188BFF34F8F14
:1038D000BFF36F8FFEE7206C38B1502080F3118862
:1038E000BFF34F8FBFF36F8FFEE700F0CFF9DFF824
:1038F000F4804FF000094FF0805748B9059838B16F
:10390000502080F31188BFF34F8FBFF36F8FFEE716
:10391000FFF7DAFAA56BC5B151462046FEF7C0FEA7
:103920006D1EA563206950B104F1100000F0A2FAE9
:1039300028B1C8F80070BFF34F8FBFF36F8FFFF748
:10394000E3FA012006B0BDE8F087059808B11EB182
:1039500006E0FFF7D9FA27E06846FFF7DBFB012610
:10396000FFF7D2FAFFF7A4FCFFF7AEFA94F9440090
:10397000401C01D184F8449094F94500401C01D1C9
:1039800084F84590FFF7C0FA05A9684600F0E8F80A
:10399000002820460AD0FFF763F900F0A3FA20467A
:1039A000FEF7F2FF0028B3D00020CBE7FEF7ECFFD4
:1039B00090B104F124000599FFF7BAFB2046FFF708
:1039C0004FF900F08FFA0028A2D1C8F80070BFF3B9
:1039D0004F8FBFF36F8F9BE72046FFF741F900F051
:1039E00081FA95E704ED00E02DE9F343002683B06A
:1039F0000400354609D0206C78B1502080F311883E
:103A0000BFF34F8FBFF36F8FFEE7502080F3118815
:103A1000BFF34F8FBFF36F8FFEE700F037F9DFF88A
:103A20003C814FF000094FF0805748B9049838B1F5
:103A3000502080F31188BFF34F8FBFF36F8FFEE7E5
:103A4000FFF742FAA06BC8B1401EA063206810B90E
:103A5000FFF7A8F9A060206950B104F1100000F050
:103A600009FA28B1C8F80070BFF34F8FBFF36F8F0A
:103A7000FFF74AFA012005B0BDE8F083049808B1C9
:103A800066B10FE03DB1502080F31188BFF34F8F36
:103A9000BFF36F8FFEE7FFF737FA5DE06846FFF789
:103AA00039FB0126FFF730FAFFF702FCFFF70CFAAB
:103AB00094F94400401C01D184F8449094F94500E5
:103AC000401C01D184F84590FFF71EFA04A968460E
:103AD00000F046F80028204612D0FFF7C1F800F0A9
:103AE00001FA2046FEF750FF0028A9D09DB3FFF74A
:103AF000EBF9606A50B3206B0068C0F1380126E032
:103B0000FEF742FFE0B1206838B9FFF7DDF9A068A1
:103B100000F074F90546FFF7F7F904F12400049961
:103B2000FFF706FB2046FFF79BF800F0DBF90028C3
:103B300086D1C8F80070BFF34F8FBFF36F8F7FE758
:103B40002046FFF78DF800F0CDF979E70021A06855
:103B5000FFF722FB9FE7FFE700208CE704ED00E082
:103B60002DE9F0410C46050011D0C4B1FFF7ACF9C6
:103B7000174B5A696E682068911B471C17D02F6835
:103B80009B6A9F4219D0964217D8012410E050201A
:103B900080F31188BFF34F8FBFF36F8FFEE7502084
:103BA00080F31188BFF34F8FBFF36F8FFEE70024C0
:103BB000FFF7AAF92046BDE8F081884205D9401AEE
:103BC00020602846FFF7A6FAF1E700202060DCE736
:103BD000340000202DE9FF5F8346DDE90E8799461A
:103BE00016468A469000FFF771F805001CD05C204D
:103BF000FFF76CF8040014D00020256384F8590006
:103C0000CDE90240CDE900874B4632465146584641
:103C1000FEF71CFE2046FEF7AFFC012004B000F0CA
:103C200006B82846FFF784F94FF0FF30F6E730BCBE
:103C3000BDE8C09FF0B585B0DDE90B640A9DA6B173
:103C4000DCB15C2700972663022684F859600026C1
:103C500004AFCDE90246CDE90057FEF7F7FD204657
:103C6000FEF78AFC049805B0F0BD502080F311885F
:103C7000BFF34F8FBFF36F8FFEE7502080F31188A3
:103C8000BFF34F8FBFF36F8FFEE700000548C16998
:103C900019B1806B18B100207047012070470220D5
:103CA0007047000034000020014840697047000060
:103CB000340000202DE9F0412E4C0027A06B40B1CC
:103CC000206A401C2062606A00B101273846BDE8C6
:103CD000F0816669761C666113D16068006838B14E
:103CE000502080F31188BFF34F8FBFF36F8FFEE733
:103CF0006068A1686160A060A06A401CA062FEF7D5
:103D00002FFF206BDFF87080864209D3606800685F
:103D100080B16068C068C568686886420DD220635B
:103D20002068C06A00EB800158F821000128CAD938
:103D30000127C8E74FF0FF30F1E7281DFFF754F8DF
:103D4000A86A18B105F11800FFF74EF8E86AA169F2
:103D5000884200D9A06100EB800108EB8100291D99
:103D6000FFF7A6F8E86A2168C96A8842CED301271E
:103D7000CCE7000034000020B801002070B504003A
:103D80004FF0000133D01B4D2868844207D05020EB
:103D900080F31188BFF34F8FBFF36F8FFEE7206D65
:103DA00038B1401E2065E36CE26A9A421FD040B1F0
:103DB0001DE0502080F31188BFF34F8FBFF36F8F4A
:103DC000FEE7201DFFF710F8E06CE062C0F138005C
:103DD000A061E06AA969884200D9A861064900EBA0
:103DE000800001EB8000211DFFF762F801210846E9
:103DF00070BD000034000020B801002070B5040040
:103E00004FF000002BD0194DE16A2A68D26A914226
:103E100026D2A069002804DB2868C06AC0F13800F7
:103E2000A061134E01EB8101606906EB81018842BC
:103E300011D1201DFEF7D8FF2868C06AE062A96989
:103E4000884200D9A86100EB800006EB8000211DAC
:103E5000FFF72EF802E02868C06AE062012070BD1A
:103E6000E16C2A68D26A9142F8D370BD3400002018
:103E7000B801002070B5C068C46854B104F11800DE
:103E80000646FEF7B1FF144DA86B50B131461348FA
:103E900015E0502080F31188BFF34F8FBFF36F8F71
:103EA000FEE7201DFEF7A0FFE06AA969884200D95D
:103EB000A8610B4900EB800001EB8000211DFEF79B
:103EC000F7FFE06A2968C96A884202D9012068625E
:103ED00070BD002070BD00003400002040060020AE
:103EE000B80100202DE9F0472C4D00242746A86B8F
:103EF00038B1FEF7E9FFA86B401EA863A86B40B17C
:103F000046E0502080F31188BFF34F8FBFF36F8FCF
:103F1000FEE72969224E0120D1B3A6F591698046BA
:103F20003068E0B1F068C46804F11800FEF75CFF87
:103F3000201DFEF759FFE06AA969884200D9A861EF
:103F400000EB800109EB8100211DFEF7B1FFE06A63
:103F50002968C96A8842E3D3C5F82480E0E70CB138
:103F6000FEF7FEFD2C6A4CB14FEA0806FFF7A2FEF1
:103F700000B16E62641EF9D100202862686A38B10F
:103F80000849012738070860BFF34F8FBFF36F8FD1
:103F9000FEF7BAFF3846BDE8F08700003400002085
:103FA0004006002004ED00E010B586B0FEF74CFBA3
:103FB000114CA068B8B100200390049005AA04A990
:103FC00003A8FEF743FFDDE9032102208DE8070087
:103FD00000230AA10B48059AFFF72CFEE06010B100
:103FE00006B0012010BD502080F31188BFF34F8F21
:103FF000BFF36F8FFEE7000070000020546D722049
:10400000537663003D2C00082DE9FF411E46134600
:1040100002000A9D4FF0000016D0144CA768002F34
:104020000FD0CDE900130292062917DAFFF72EFE12
:1040300002284FF000030FD000226946A068FFF766
:10404000DBFA04B0BDE8F081502080F31188BFF3A3
:104050004F8FBFF36F8FFEE72A46EEE7002332460D
:1040600069463846FFF778FBEBE700007000002058
:10407000E441000800000000000000000000000013
:104080000000000000020000180000000000000016
:1040900000000000B841000800000000000000001F
:1040A00000000000000000000002000018000000F6
:1040B0000000000000000000A8410008000000000F
:1040C00000000000000000000000000000020000EE
:1040D000180000000000000000000000C8410008B7
:1040E00000000000000000000000000000000000D0
:1040F00000020000180000000000000000000000A6
:1041000098410008000000000000000000000000CE
:104110000000000000000000A041000800000000B6
:10412000000000000000000000000000000000008F
:10413000D84100080000000000000000000000005E
:10414000F041000800000000000000000000000036
:104150000000000000000000010203040607080937
:10416000A0860100400D0300801A060000350C00F7
:1041700040420F0080841E0000093D0000127A00BA
:104180000024F40000366E010048E801006CDC02F7
:10419000000000000102030471756575655251004D
:1041A00071756575655351005461736B325F55418C
:1041B000525453656E6400005461736B315F4576F1
:1041C000616C7561746500005461736B335F5541B8
:1041D000525452656365690075736172745F6C6FE8
:1041E000636B000064656661756C745461736B0089
:1041F0006576656E745F7369676E616C00000000C0
:104200002042000800000020AC0000002621000829
:10421000CC420008AC0000205C1D000036210008E4
:10422000000000000000000000000000000000008E
:10423000000000000000000000000000000000007E
:10424000000000000100000010000000000000005D
:1042500000093D0000000000000000000000000018
:10426000000000000000000000000000000000004E
:10427000000000000000000000000000000000003E
:10428000000000000000000000000000000000002E
:10429000000000000000000000000000000000001E
:1042A000000000000000000000000000000000000E
:1042B00000000000000000000000000000000000FE
:0C42C00000000000AAAAAAAA000000004A
:040000050800018D61
:00000001FF
